:02000000FFFF00
:020001000000FD
:020002000000FC
:020003000000FB
:020004000000FA
:020005000000F9
:020006000000F8
:020007000000F7
:020008000000F6
:020009000000F5
:02000A000000F4
:02000B000000F3
:02000C000000F2
:02000D000000F1
:02000E000000F0
:02000F000000EF
:020010000000EE
:020011000000ED
:020012000000EC
:020013000000EB
:020014000000EA
:020015000000E9
:020016000000E8
:020017000000E7
:020018000000E6
:020019000000E5
:02001A000000E4
:02001B000000E3
:02001C000000E2
:02001D000000E1
:02001E000000E0
:02001F000000DF
:020020000000DE
:020021000000DD
:020022000000DC
:020023000000DB
:020024000000DA
:020025000000D9
:020026000000D8
:020027000000D7
:020028000000D6
:020029000000D5
:02002A000000D4
:02002B000000D3
:02002C000000D2
:02002D000000D1
:02002E000000D0
:02002F000000CF
:020030000000CE
:020031000000CD
:020032000000CC
:020033000000CB
:020034000000CA
:020035000000C9
:020036000000C8
:020037000000C7
:020038000000C6
:020039000000C5
:02003A000000C4
:02003B000000C3
:02003C000000C2
:02003D000000C1
:02003E000000C0
:02003F000000BF
:020040000000BE
:020041000000BD
:020042000000BC
:020043000000BB
:020044000000BA
:020045000000B9
:020046000000B8
:020047000000B7
:020048000000B6
:020049000000B5
:02004A000000B4
:02004B000000B3
:02004C000000B2
:02004D000000B1
:02004E000000B0
:02004F000000AF
:020050000000AE
:020051000000AD
:020052000000AC
:020053000000AB
:020054000000AA
:020055000000A9
:020056000000A8
:020057000000A7
:020058000000A6
:020059000000A5
:02005A000000A4
:02005B000000A3
:02005C000000A2
:02005D000000A1
:02005E000000A0
:02005F0000009F
:0200600000009E
:0200610000009D
:0200620000009C
:0200630000009B
:0200640000009A
:02006500000099
:02006600000098
:02006700000097
:02006800000096
:02006900000095
:02006A00000094
:02006B00000093
:02006C00000092
:02006D00000091
:02006E00000090
:02006F0000008F
:0200700000008E
:0200710000008D
:0200720000008C
:0200730000008B
:0200740000008A
:02007500000089
:02007600000088
:02007700000087
:02007800000086
:02007900000085
:02007A00000084
:02007B00000083
:02007C00000082
:02007D00000081
:02007E00000080
:02007F0000007F
:0200800000007E
:0200810000007D
:0200820000007C
:0200830000007B
:0200840000007A
:02008500000079
:02008600000078
:02008700000077
:02008800000076
:02008900000075
:02008A00000074
:02008B00000073
:02008C00000072
:02008D00000071
:02008E00000070
:02008F0000006F
:0200900000006E
:0200910000006D
:0200920000006C
:0200930000006B
:0200940000006A
:02009500000069
:02009600000068
:02009700000067
:02009800000066
:02009900000065
:02009A00000064
:02009B00000063
:02009C00000062
:02009D00000061
:02009E00000060
:02009F0000005F
:0200A00000005E
:0200A10000005D
:0200A20000005C
:0200A30000005B
:0200A40000005A
:0200A500000059
:0200A600000058
:0200A700000057
:0200A800000056
:0200A900000055
:0200AA00000054
:0200AB00000053
:0200AC00000052
:0200AD00000051
:0200AE00000050
:0200AF0000004F
:0200B00000004E
:0200B10000004D
:0200B20000004C
:0200B30000004B
:0200B40000004A
:0200B500000049
:0200B600000048
:0200B700000047
:0200B800000046
:0200B900000045
:0200BA00000044
:0200BB00000043
:0200BC00000042
:0200BD00000041
:0200BE00000040
:0200BF0000003F
:0200C00000003E
:0200C10000003D
:0200C20000003C
:0200C30000003B
:0200C40000003A
:0200C500000039
:0200C600000038
:0200C700000037
:0200C800000036
:0200C900000035
:0200CA00000034
:0200CB00000033
:0200CC00000032
:0200CD00000031
:0200CE00000030
:0200CF0000002F
:0200D00000002E
:0200D10000002D
:0200D20000002C
:0200D30000002B
:0200D40000002A
:0200D500000029
:0200D600000028
:0200D700000027
:0200D800000026
:0200D900000025
:0200DA00000024
:0200DB00000023
:0200DC00000022
:0200DD00000021
:0200DE00000020
:0200DF0000001F
:0200E00000001E
:0200E10000001D
:0200E20000001C
:0200E30000001B
:0200E40000001A
:0200E500000019
:0200E600000018
:0200E700000017
:0200E800000016
:0200E900000015
:0200EA00000014
:0200EB00000013
:0200EC00000012
:0200ED00000011
:0200EE00000010
:0200EF0000000F
:0200F00000000E
:0200F10000000D
:0200F20000000C
:0200F30000000B
:0200F40000000A
:0200F500000009
:0200F600000008
:0200F700000007
:0200F800000006
:0200F900000005
:0200FA00000004
:0200FB00000003
:0200FC00000002
:0200FD00000001
:0200FE00000000
:0200FF000000FF
:020100000000FD
:020101000000FC
:020102000000FB
:020103000000FA
:020104000000F9
:020105000000F8
:020106000000F7
:020107000000F6
:020108000000F5
:020109000000F4
:02010A000000F3
:02010B000000F2
:02010C000000F1
:02010D000000F0
:02010E000000EF
:02010F000000EE
:020110000000ED
:020111000000EC
:020112000000EB
:020113000000EA
:020114000000E9
:020115000000E8
:020116000000E7
:020117000000E6
:020118000000E5
:020119000000E4
:02011A000000E3
:02011B000000E2
:02011C000000E1
:02011D000000E0
:02011E000000DF
:02011F000000DE
:020120000000DD
:020121000000DC
:020122000000DB
:020123000000DA
:020124000000D9
:020125000000D8
:020126000000D7
:020127000000D6
:020128000000D5
:020129000000D4
:02012A000000D3
:02012B000000D2
:02012C000000D1
:02012D000000D0
:02012E000000CF
:02012F000000CE
:020130000000CD
:020131000000CC
:020132000000CB
:020133000000CA
:020134000000C9
:020135000000C8
:020136000000C7
:020137000000C6
:020138000000C5
:020139000000C4
:02013A000000C3
:02013B000000C2
:02013C000000C1
:02013D000000C0
:02013E000000BF
:02013F000000BE
:020140000000BD
:020141000000BC
:020142000000BB
:020143000000BA
:020144000000B9
:020145000000B8
:020146000000B7
:020147000000B6
:020148000000B5
:020149000000B4
:02014A000000B3
:02014B000000B2
:02014C000000B1
:02014D000000B0
:02014E000000AF
:02014F000000AE
:020150000000AD
:020151000000AC
:020152000000AB
:020153000000AA
:020154000000A9
:020155000000A8
:020156000000A7
:020157000000A6
:020158000000A5
:020159000000A4
:02015A000000A3
:02015B000000A2
:02015C000000A1
:02015D000000A0
:02015E0000009F
:02015F0000009E
:0201600000009D
:0201610000009C
:0201620000009B
:0201630000009A
:02016400000099
:02016500000098
:02016600000097
:02016700000096
:02016800000095
:02016900000094
:02016A00000093
:02016B00000092
:02016C00000091
:02016D00000090
:02016E0000008F
:02016F0000008E
:0201700000008D
:0201710000008C
:0201720000008B
:0201730000008A
:02017400000089
:02017500000088
:02017600000087
:02017700000086
:02017800000085
:02017900000084
:02017A00000083
:02017B00000082
:02017C00000081
:02017D00000080
:02017E0000007F
:02017F0000007E
:0201800000007D
:0201810000007C
:0201820000007B
:0201830000007A
:02018400000079
:02018500000078
:02018600000077
:02018700000076
:02018800000075
:02018900000074
:02018A00000073
:02018B00000072
:02018C00000071
:02018D00000070
:02018E0000006F
:02018F0000006E
:0201900000006D
:0201910000006C
:0201920000006B
:0201930000006A
:02019400000069
:02019500000068
:02019600000067
:02019700000066
:02019800000065
:02019900000064
:02019A00000063
:02019B00000062
:02019C00000061
:02019D00000060
:02019E0000005F
:02019F0000005E
:0201A00000005D
:0201A10000005C
:0201A20000005B
:0201A30000005A
:0201A400000059
:0201A500000058
:0201A600000057
:0201A700000056
:0201A800000055
:0201A900000054
:0201AA00000053
:0201AB00000052
:0201AC00000051
:0201AD00000050
:0201AE0000004F
:0201AF0000004E
:0201B00000004D
:0201B10000004C
:0201B20000004B
:0201B30000004A
:0201B400000049
:0201B500000048
:0201B600000047
:0201B700000046
:0201B800000045
:0201B900000044
:0201BA00000043
:0201BB00000042
:0201BC00000041
:0201BD00000040
:0201BE0000003F
:0201BF0000003E
:0201C00000003D
:0201C10000003C
:0201C20000003B
:0201C30000003A
:0201C400000039
:0201C500000038
:0201C600000037
:0201C700000036
:0201C800000035
:0201C900000034
:0201CA00000033
:0201CB00000032
:0201CC00000031
:0201CD00000030
:0201CE0000002F
:0201CF0000002E
:0201D00000002D
:0201D10000002C
:0201D20000002B
:0201D30000002A
:0201D400000029
:0201D500000028
:0201D600000027
:0201D700000026
:0201D800000025
:0201D900000024
:0201DA00000023
:0201DB00000022
:0201DC00000021
:0201DD00000020
:0201DE0000001F
:0201DF0000001E
:0201E00000001D
:0201E10000001C
:0201E20000001B
:0201E30000001A
:0201E400000019
:0201E500000018
:0201E600000017
:0201E700000016
:0201E800000015
:0201E900000014
:0201EA00000013
:0201EB00000012
:0201EC00000011
:0201ED00000010
:0201EE0000000F
:0201EF0000000E
:0201F00000000D
:0201F10000000C
:0201F20000000B
:0201F30000000A
:0201F400000009
:0201F500000008
:0201F600000007
:0201F700000006
:0201F800000005
:0201F900000004
:0201FA00000003
:0201FB00000002
:0201FC00000001
:0201FD00000000
:0201FE000000FF
:0201FF000000FE
:020200000000FC
:020201000000FB
:020202000000FA
:020203000000F9
:020204000000F8
:020205000000F7
:020206000000F6
:020207000000F5
:020208000000F4
:020209000000F3
:02020A000000F2
:02020B000000F1
:02020C000000F0
:02020D000000EF
:02020E000000EE
:02020F000000ED
:020210000000EC
:020211000000EB
:020212000000EA
:020213000000E9
:020214000000E8
:020215000000E7
:020216000000E6
:020217000000E5
:020218000000E4
:020219000000E3
:02021A000000E2
:02021B000000E1
:02021C000000E0
:02021D000000DF
:02021E000000DE
:02021F000000DD
:020220000000DC
:020221000000DB
:020222000000DA
:020223000000D9
:020224000000D8
:020225000000D7
:020226000000D6
:020227000000D5
:020228000000D4
:020229000000D3
:02022A000000D2
:02022B000000D1
:02022C000000D0
:02022D000000CF
:02022E000000CE
:02022F000000CD
:020230000000CC
:020231000000CB
:020232000000CA
:020233000000C9
:020234000000C8
:020235000000C7
:020236000000C6
:020237000000C5
:020238000000C4
:020239000000C3
:02023A000000C2
:02023B000000C1
:02023C000000C0
:02023D000000BF
:02023E000000BE
:02023F000000BD
:020240000000BC
:020241000000BB
:020242000000BA
:020243000000B9
:020244000000B8
:020245000000B7
:020246000000B6
:020247000000B5
:020248000000B4
:020249000000B3
:02024A000000B2
:02024B000000B1
:02024C000000B0
:02024D000000AF
:02024E000000AE
:02024F000000AD
:020250000000AC
:020251000000AB
:020252000000AA
:020253000000A9
:020254000000A8
:020255000000A7
:020256000000A6
:020257000000A5
:020258000000A4
:020259000000A3
:02025A000000A2
:02025B000000A1
:02025C000000A0
:02025D0000009F
:02025E0000009E
:02025F0000009D
:0202600000009C
:0202610000009B
:0202620000009A
:02026300000099
:02026400000098
:02026500000097
:02026600000096
:02026700000095
:02026800000094
:02026900000093
:02026A00000092
:02026B00000091
:02026C00000090
:02026D0000008F
:02026E0000008E
:02026F0000008D
:0202700000008C
:0202710000008B
:0202720000008A
:02027300000089
:02027400000088
:02027500000087
:02027600000086
:02027700000085
:02027800000084
:02027900000083
:02027A00000082
:02027B00000081
:02027C00000080
:02027D0000007F
:02027E0000007E
:02027F0000007D
:0202800000007C
:0202810000007B
:0202820000007A
:02028300000079
:02028400000078
:02028500000077
:02028600000076
:02028700000075
:02028800000074
:02028900000073
:02028A00000072
:02028B00000071
:02028C00000070
:02028D0000006F
:02028E0000006E
:02028F0000006D
:0202900000006C
:0202910000006B
:0202920000006A
:02029300000069
:02029400000068
:02029500000067
:02029600000066
:02029700000065
:02029800000064
:02029900000063
:02029A00000062
:02029B00000061
:02029C00000060
:02029D0000005F
:02029E0000005E
:02029F0000005D
:0202A00000005C
:0202A10000005B
:0202A20000005A
:0202A300000059
:0202A400000058
:0202A500000057
:0202A600000056
:0202A700000055
:0202A800000054
:0202A900000053
:0202AA00000052
:0202AB00000051
:0202AC00000050
:0202AD0000004F
:0202AE0000004E
:0202AF0000004D
:0202B00000004C
:0202B10000004B
:0202B20000004A
:0202B300000049
:0202B400000048
:0202B500000047
:0202B600000046
:0202B700000045
:0202B800000044
:0202B900000043
:0202BA00000042
:0202BB00000041
:0202BC00000040
:0202BD0000003F
:0202BE0000003E
:0202BF0000003D
:0202C00000003C
:0202C10000003B
:0202C20000003A
:0202C300000039
:0202C400000038
:0202C500000037
:0202C600000036
:0202C700000035
:0202C800000034
:0202C900000033
:0202CA00000032
:0202CB00000031
:0202CC00000030
:0202CD0000002F
:0202CE0000002E
:0202CF0000002D
:0202D00000002C
:0202D10000002B
:0202D20000002A
:0202D300000029
:0202D400000028
:0202D500000027
:0202D600000026
:0202D700000025
:0202D800000024
:0202D900000023
:0202DA00000022
:0202DB00000021
:0202DC00000020
:0202DD0000001F
:0202DE0000001E
:0202DF0000001D
:0202E00000001C
:0202E10000001B
:0202E20000001A
:0202E300000019
:0202E400000018
:0202E500000017
:0202E600000016
:0202E700000015
:0202E800000014
:0202E900000013
:0202EA00000012
:0202EB00000011
:0202EC00000010
:0202ED0000000F
:0202EE0000000E
:0202EF0000000D
:0202F00000000C
:0202F10000000B
:0202F20000000A
:0202F300000009
:0202F400000008
:0202F500000007
:0202F600000006
:0202F700000005
:0202F800000004
:0202F900000003
:0202FA00000002
:0202FB00000001
:0202FC00000000
:0202FD000000FF
:0202FE000000FE
:0202FF000000FD
:020300000000FB
:020301000000FA
:020302000000F9
:020303000000F8
:020304000000F7
:020305000000F6
:020306000000F5
:020307000000F4
:020308000000F3
:020309000000F2
:02030A000000F1
:02030B000000F0
:02030C000000EF
:02030D000000EE
:02030E000000ED
:02030F000000EC
:020310000000EB
:020311000000EA
:020312000000E9
:020313000000E8
:020314000000E7
:020315000000E6
:020316000000E5
:020317000000E4
:020318000000E3
:020319000000E2
:02031A000000E1
:02031B000000E0
:02031C000000DF
:02031D000000DE
:02031E000000DD
:02031F000000DC
:020320000000DB
:020321000000DA
:020322000000D9
:020323000000D8
:020324000000D7
:020325000000D6
:020326000000D5
:020327000000D4
:020328000000D3
:020329000000D2
:02032A000000D1
:02032B000000D0
:02032C000000CF
:02032D000000CE
:02032E000000CD
:02032F000000CC
:020330000000CB
:020331000000CA
:020332000000C9
:020333000000C8
:020334000000C7
:020335000000C6
:020336000000C5
:020337000000C4
:020338000000C3
:020339000000C2
:02033A000000C1
:02033B000000C0
:02033C000000BF
:02033D000000BE
:02033E000000BD
:02033F000000BC
:020340000000BB
:020341000000BA
:020342000000B9
:020343000000B8
:020344000000B7
:020345000000B6
:020346000000B5
:020347000000B4
:020348000000B3
:020349000000B2
:02034A000000B1
:02034B000000B0
:02034C000000AF
:02034D000000AE
:02034E000000AD
:02034F000000AC
:020350000000AB
:020351000000AA
:020352000000A9
:020353000000A8
:020354000000A7
:020355000000A6
:020356000000A5
:020357000000A4
:020358000000A3
:020359000000A2
:02035A000000A1
:02035B000000A0
:02035C0000009F
:02035D0000009E
:02035E0000009D
:02035F0000009C
:0203600000009B
:0203610000009A
:02036200000099
:02036300000098
:02036400000097
:02036500000096
:02036600000095
:02036700000094
:02036800000093
:02036900000092
:02036A00000091
:02036B00000090
:02036C0000008F
:02036D0000008E
:02036E0000008D
:02036F0000008C
:0203700000008B
:0203710000008A
:02037200000089
:02037300000088
:02037400000087
:02037500000086
:02037600000085
:02037700000084
:02037800000083
:02037900000082
:02037A00000081
:02037B00000080
:02037C0000007F
:02037D0000007E
:02037E0000007D
:02037F0000007C
:0203800000007B
:0203810000007A
:02038200000079
:02038300000078
:02038400000077
:02038500000076
:02038600000075
:02038700000074
:02038800000073
:02038900000072
:02038A00000071
:02038B00000070
:02038C0000006F
:02038D0000006E
:02038E0000006D
:02038F0000006C
:0203900000006B
:0203910000006A
:02039200000069
:02039300000068
:02039400000067
:02039500000066
:02039600000065
:02039700000064
:02039800000063
:02039900000062
:02039A00000061
:02039B00000060
:02039C0000005F
:02039D0000005E
:02039E0000005D
:02039F0000005C
:0203A00000005B
:0203A10000005A
:0203A200000059
:0203A300000058
:0203A400000057
:0203A500000056
:0203A600000055
:0203A700000054
:0203A800000053
:0203A900000052
:0203AA00000051
:0203AB00000050
:0203AC0000004F
:0203AD0000004E
:0203AE0000004D
:0203AF0000004C
:0203B00000004B
:0203B10000004A
:0203B200000049
:0203B300000048
:0203B400000047
:0203B500000046
:0203B600000045
:0203B700000044
:0203B800000043
:0203B900000042
:0203BA00000041
:0203BB00000040
:0203BC0000003F
:0203BD0000003E
:0203BE0000003D
:0203BF0000003C
:0203C00000003B
:0203C10000003A
:0203C200000039
:0203C300000038
:0203C400000037
:0203C500000036
:0203C600000035
:0203C700000034
:0203C800000033
:0203C900000032
:0203CA00000031
:0203CB00000030
:0203CC0000002F
:0203CD0000002E
:0203CE0000002D
:0203CF0000002C
:0203D00000002B
:0203D10000002A
:0203D200000029
:0203D300000028
:0203D400000027
:0203D500000026
:0203D600000025
:0203D700000024
:0203D800000023
:0203D900000022
:0203DA00000021
:0203DB00000020
:0203DC0000001F
:0203DD0000001E
:0203DE0000001D
:0203DF0000001C
:0203E00000001B
:0203E10000001A
:0203E200000019
:0203E300000018
:0203E400000017
:0203E500000016
:0203E600000015
:0203E700000014
:0203E800000013
:0203E900000012
:0203EA00000011
:0203EB00000010
:0203EC0000000F
:0203ED0000000E
:0203EE0000000D
:0203EF0000000C
:0203F00000000B
:0203F10000000A
:0203F200000009
:0203F300000008
:0203F400000007
:0203F500000006
:0203F600000005
:0203F700000004
:0203F800000003
:0203F900000002
:0203FA00000001
:0203FB00000000
:0203FC000000FF
:0203FD000000FE
:0203FE000000FD
:0203FF000000FC
:020400000000FA
:020401000000F9
:020402000000F8
:020403000000F7
:020404000000F6
:020405000000F5
:020406000000F4
:020407000000F3
:020408000000F2
:020409000000F1
:02040A000000F0
:02040B000000EF
:02040C000000EE
:02040D000000ED
:02040E000000EC
:02040F000000EB
:020410000000EA
:020411000000E9
:020412000000E8
:020413000000E7
:020414000000E6
:020415000000E5
:020416000000E4
:020417000000E3
:020418000000E2
:020419000000E1
:02041A000000E0
:02041B000000DF
:02041C000000DE
:02041D000000DD
:02041E000000DC
:02041F000000DB
:020420000000DA
:020421000000D9
:020422000000D8
:020423000000D7
:020424000000D6
:020425000000D5
:020426000000D4
:020427000000D3
:020428000000D2
:020429000000D1
:02042A000000D0
:02042B000000CF
:02042C000000CE
:02042D000000CD
:02042E000000CC
:02042F000000CB
:020430000000CA
:020431000000C9
:020432000000C8
:020433000000C7
:020434000000C6
:020435000000C5
:020436000000C4
:020437000000C3
:020438000000C2
:020439000000C1
:02043A000000C0
:02043B000000BF
:02043C000000BE
:02043D000000BD
:02043E000000BC
:02043F000000BB
:020440000000BA
:020441000000B9
:020442000000B8
:020443000000B7
:020444000000B6
:020445000000B5
:020446000000B4
:020447000000B3
:020448000000B2
:020449000000B1
:02044A000000B0
:02044B000000AF
:02044C000000AE
:02044D000000AD
:02044E000000AC
:02044F000000AB
:020450000000AA
:020451000000A9
:020452000000A8
:020453000000A7
:020454000000A6
:020455000000A5
:020456000000A4
:020457000000A3
:020458000000A2
:020459000000A1
:02045A000000A0
:02045B0000009F
:02045C0000009E
:02045D0000009D
:02045E0000009C
:02045F0000009B
:0204600000009A
:02046100000099
:02046200000098
:02046300000097
:02046400000096
:02046500000095
:02046600000094
:02046700000093
:02046800000092
:02046900000091
:02046A00000090
:02046B0000008F
:02046C0000008E
:02046D0000008D
:02046E0000008C
:02046F0000008B
:0204700000008A
:02047100000089
:02047200000088
:02047300000087
:02047400000086
:02047500000085
:02047600000084
:02047700000083
:02047800000082
:02047900000081
:02047A00000080
:02047B0000007F
:02047C0000007E
:02047D0000007D
:02047E0000007C
:02047F0000007B
:0204800000007A
:02048100000079
:02048200000078
:02048300000077
:02048400000076
:02048500000075
:02048600000074
:02048700000073
:02048800000072
:02048900000071
:02048A00000070
:02048B0000006F
:02048C0000006E
:02048D0000006D
:02048E0000006C
:02048F0000006B
:0204900000006A
:02049100000069
:02049200000068
:02049300000067
:02049400000066
:02049500000065
:02049600000064
:02049700000063
:02049800000062
:02049900000061
:02049A00000060
:02049B0000005F
:02049C0000005E
:02049D0000005D
:02049E0000005C
:02049F0000005B
:0204A00000005A
:0204A100000059
:0204A200000058
:0204A300000057
:0204A400000056
:0204A500000055
:0204A600000054
:0204A700000053
:0204A800000052
:0204A900000051
:0204AA00000050
:0204AB0000004F
:0204AC0000004E
:0204AD0000004D
:0204AE0000004C
:0204AF0000004B
:0204B00000004A
:0204B100000049
:0204B200000048
:0204B300000047
:0204B400000046
:0204B500000045
:0204B600000044
:0204B700000043
:0204B800000042
:0204B900000041
:0204BA00000040
:0204BB0000003F
:0204BC0000003E
:0204BD0000003D
:0204BE0000003C
:0204BF0000003B
:0204C00000003A
:0204C100000039
:0204C200000038
:0204C300000037
:0204C400000036
:0204C500000035
:0204C600000034
:0204C700000033
:0204C800000032
:0204C900000031
:0204CA00000030
:0204CB0000002F
:0204CC0000002E
:0204CD0000002D
:0204CE0000002C
:0204CF0000002B
:0204D00000002A
:0204D100000029
:0204D200000028
:0204D300000027
:0204D400000026
:0204D500000025
:0204D600000024
:0204D700000023
:0204D800000022
:0204D900000021
:0204DA00000020
:0204DB0000001F
:0204DC0000001E
:0204DD0000001D
:0204DE0000001C
:0204DF0000001B
:0204E00000001A
:0204E100000019
:0204E200000018
:0204E300000017
:0204E400000016
:0204E500000015
:0204E600000014
:0204E700000013
:0204E800000012
:0204E900000011
:0204EA00000010
:0204EB0000000F
:0204EC0000000E
:0204ED0000000D
:0204EE0000000C
:0204EF0000000B
:0204F00000000A
:0204F100000009
:0204F200000008
:0204F300000007
:0204F400000006
:0204F500000005
:0204F600000004
:0204F700000003
:0204F800000002
:0204F900000001
:0204FA00000000
:0204FB000000FF
:0204FC000000FE
:0204FD000000FD
:0204FE000000FC
:0204FF000000FB
:020500000000F9
:020501000000F8
:020502000000F7
:020503000000F6
:020504000000F5
:020505000000F4
:020506000000F3
:020507000000F2
:020508000000F1
:020509000000F0
:02050A000000EF
:02050B000000EE
:02050C000000ED
:02050D000000EC
:02050E000000EB
:02050F000000EA
:020510000000E9
:020511000000E8
:020512000000E7
:020513000000E6
:020514000000E5
:020515000000E4
:020516000000E3
:020517000000E2
:020518000000E1
:020519000000E0
:02051A000000DF
:02051B000000DE
:02051C000000DD
:02051D000000DC
:02051E000000DB
:02051F000000DA
:020520000000D9
:020521000000D8
:020522000000D7
:020523000000D6
:020524000000D5
:020525000000D4
:020526000000D3
:020527000000D2
:020528000000D1
:020529000000D0
:02052A000000CF
:02052B000000CE
:02052C000000CD
:02052D000000CC
:02052E000000CB
:02052F000000CA
:020530000000C9
:020531000000C8
:020532000000C7
:020533000000C6
:020534000000C5
:020535000000C4
:020536000000C3
:020537000000C2
:020538000000C1
:020539000000C0
:02053A000000BF
:02053B000000BE
:02053C000000BD
:02053D000000BC
:02053E000000BB
:02053F000000BA
:020540000000B9
:020541000000B8
:020542000000B7
:020543000000B6
:020544000000B5
:020545000000B4
:020546000000B3
:020547000000B2
:020548000000B1
:020549000000B0
:02054A000000AF
:02054B000000AE
:02054C000000AD
:02054D000000AC
:02054E000000AB
:02054F000000AA
:020550000000A9
:020551000000A8
:020552000000A7
:020553000000A6
:020554000000A5
:020555000000A4
:020556000000A3
:020557000000A2
:020558000000A1
:020559000000A0
:02055A0000009F
:02055B0000009E
:02055C0000009D
:02055D0000009C
:02055E0000009B
:02055F0000009A
:02056000000099
:02056100000098
:02056200000097
:02056300000096
:02056400000095
:02056500000094
:02056600000093
:02056700000092
:02056800000091
:02056900000090
:02056A0000008F
:02056B0000008E
:02056C0000008D
:02056D0000008C
:02056E0000008B
:02056F0000008A
:02057000000089
:02057100000088
:02057200000087
:02057300000086
:02057400000085
:02057500000084
:02057600000083
:02057700000082
:02057800000081
:02057900000080
:02057A0000007F
:02057B0000007E
:02057C0000007D
:02057D0000007C
:02057E0000007B
:02057F0000007A
:02058000000079
:02058100000078
:02058200000077
:02058300000076
:02058400000075
:02058500000074
:02058600000073
:02058700000072
:02058800000071
:02058900000070
:02058A0000006F
:02058B0000006E
:02058C0000006D
:02058D0000006C
:02058E0000006B
:02058F0000006A
:02059000000069
:02059100000068
:02059200000067
:02059300000066
:02059400000065
:02059500000064
:02059600000063
:02059700000062
:02059800000061
:02059900000060
:02059A0000005F
:02059B0000005E
:02059C0000005D
:02059D0000005C
:02059E0000005B
:02059F0000005A
:0205A000000059
:0205A100000058
:0205A200000057
:0205A300000056
:0205A400000055
:0205A500000054
:0205A600000053
:0205A700000052
:0205A800000051
:0205A900000050
:0205AA0000004F
:0205AB0000004E
:0205AC0000004D
:0205AD0000004C
:0205AE0000004B
:0205AF0000004A
:0205B000000049
:0205B100000048
:0205B200000047
:0205B300000046
:0205B400000045
:0205B500000044
:0205B600000043
:0205B700000042
:0205B800000041
:0205B900000040
:0205BA0000003F
:0205BB0000003E
:0205BC0000003D
:0205BD0000003C
:0205BE0000003B
:0205BF0000003A
:0205C000000039
:0205C100000038
:0205C200000037
:0205C300000036
:0205C400000035
:0205C500000034
:0205C600000033
:0205C700000032
:0205C800000031
:0205C900000030
:0205CA0000002F
:0205CB0000002E
:0205CC0000002D
:0205CD0000002C
:0205CE0000002B
:0205CF0000002A
:0205D000000029
:0205D100000028
:0205D200000027
:0205D300000026
:0205D400000025
:0205D500000024
:0205D600000023
:0205D700000022
:0205D800000021
:0205D900000020
:0205DA0000001F
:0205DB0000001E
:0205DC0000001D
:0205DD0000001C
:0205DE0000001B
:0205DF0000001A
:0205E000000019
:0205E100000018
:0205E200000017
:0205E300000016
:0205E400000015
:0205E500000014
:0205E600000013
:0205E700000012
:0205E800000011
:0205E900000010
:0205EA0000000F
:0205EB0000000E
:0205EC0000000D
:0205ED0000000C
:0205EE0000000B
:0205EF0000000A
:0205F000000009
:0205F100000008
:0205F200000007
:0205F300000006
:0205F400000005
:0205F500000004
:0205F600000003
:0205F700000002
:0205F800000001
:0205F900000000
:0205FA000000FF
:0205FB000000FE
:0205FC000000FD
:0205FD000000FC
:0205FE000000FB
:0205FF000000FA
:020600000000F8
:020601000000F7
:020602000000F6
:020603000000F5
:020604000000F4
:020605000000F3
:020606000000F2
:020607000000F1
:020608000000F0
:020609000000EF
:02060A000000EE
:02060B000000ED
:02060C000000EC
:02060D000000EB
:02060E000000EA
:02060F000000E9
:020610000000E8
:020611000000E7
:020612000000E6
:020613000000E5
:020614000000E4
:020615000000E3
:020616000000E2
:020617000000E1
:020618000000E0
:020619000000DF
:02061A000000DE
:02061B000000DD
:02061C000000DC
:02061D000000DB
:02061E000000DA
:02061F000000D9
:020620000000D8
:020621000000D7
:020622000000D6
:020623000000D5
:020624000000D4
:020625000000D3
:020626000000D2
:020627000000D1
:020628000000D0
:020629000000CF
:02062A000000CE
:02062B000000CD
:02062C000000CC
:02062D000000CB
:02062E000000CA
:02062F000000C9
:020630000000C8
:020631000000C7
:020632000000C6
:020633000000C5
:020634000000C4
:020635000000C3
:020636000000C2
:020637000000C1
:020638000000C0
:020639000000BF
:02063A000000BE
:02063B000000BD
:02063C000000BC
:02063D000000BB
:02063E000000BA
:02063F000000B9
:020640000000B8
:020641000000B7
:020642000000B6
:020643000000B5
:020644000000B4
:020645000000B3
:020646000000B2
:020647000000B1
:020648000000B0
:020649000000AF
:02064A000000AE
:02064B000000AD
:02064C000000AC
:02064D000000AB
:02064E000000AA
:02064F000000A9
:020650000000A8
:020651000000A7
:020652000000A6
:020653000000A5
:020654000000A4
:020655000000A3
:020656000000A2
:020657000000A1
:020658000000A0
:0206590000009F
:02065A0000009E
:02065B0000009D
:02065C0000009C
:02065D0000009B
:02065E0000009A
:02065F00000099
:02066000000098
:02066100000097
:02066200000096
:02066300000095
:02066400000094
:02066500000093
:02066600000092
:02066700000091
:02066800000090
:0206690000008F
:02066A0000008E
:02066B0000008D
:02066C0000008C
:02066D0000008B
:02066E0000008A
:02066F00000089
:02067000000088
:02067100000087
:02067200000086
:02067300000085
:02067400000084
:02067500000083
:02067600000082
:02067700000081
:02067800000080
:0206790000007F
:02067A0000007E
:02067B0000007D
:02067C0000007C
:02067D0000007B
:02067E0000007A
:02067F00000079
:02068000000078
:02068100000077
:02068200000076
:02068300000075
:02068400000074
:02068500000073
:02068600000072
:02068700000071
:02068800000070
:0206890000006F
:02068A0000006E
:02068B0000006D
:02068C0000006C
:02068D0000006B
:02068E0000006A
:02068F00000069
:02069000000068
:02069100000067
:02069200000066
:02069300000065
:02069400000064
:02069500000063
:02069600000062
:02069700000061
:02069800000060
:0206990000005F
:02069A0000005E
:02069B0000005D
:02069C0000005C
:02069D0000005B
:02069E0000005A
:02069F00000059
:0206A000000058
:0206A100000057
:0206A200000056
:0206A300000055
:0206A400000054
:0206A500000053
:0206A600000052
:0206A700000051
:0206A800000050
:0206A90000004F
:0206AA0000004E
:0206AB0000004D
:0206AC0000004C
:0206AD0000004B
:0206AE0000004A
:0206AF00000049
:0206B000000048
:0206B100000047
:0206B200000046
:0206B300000045
:0206B400000044
:0206B500000043
:0206B600000042
:0206B700000041
:0206B800000040
:0206B90000003F
:0206BA0000003E
:0206BB0000003D
:0206BC0000003C
:0206BD0000003B
:0206BE0000003A
:0206BF00000039
:0206C000000038
:0206C100000037
:0206C200000036
:0206C300000035
:0206C400000034
:0206C500000033
:0206C600000032
:0206C700000031
:0206C800000030
:0206C90000002F
:0206CA0000002E
:0206CB0000002D
:0206CC0000002C
:0206CD0000002B
:0206CE0000002A
:0206CF00000029
:0206D000000028
:0206D100000027
:0206D200000026
:0206D300000025
:0206D400000024
:0206D500000023
:0206D600000022
:0206D700000021
:0206D800000020
:0206D90000001F
:0206DA0000001E
:0206DB0000001D
:0206DC0000001C
:0206DD0000001B
:0206DE0000001A
:0206DF00000019
:0206E000000018
:0206E100000017
:0206E200000016
:0206E300000015
:0206E400000014
:0206E500000013
:0206E600000012
:0206E700000011
:0206E800000010
:0206E90000000F
:0206EA0000000E
:0206EB0000000D
:0206EC0000000C
:0206ED0000000B
:0206EE0000000A
:0206EF00000009
:0206F000000008
:0206F100000007
:0206F200000006
:0206F300000005
:0206F400000004
:0206F500000003
:0206F600000002
:0206F700000001
:0206F800000000
:0206F9000000FF
:0206FA000000FE
:0206FB000000FD
:0206FC000000FC
:0206FD000000FB
:0206FE000000FA
:0206FF000000F9
:020700000000F7
:020701000000F6
:020702000000F5
:020703000000F4
:020704000000F3
:020705000000F2
:020706000000F1
:020707000000F0
:020708000000EF
:020709000000EE
:02070A000000ED
:02070B000000EC
:02070C000000EB
:02070D000000EA
:02070E000000E9
:02070F000000E8
:020710000000E7
:020711000000E6
:020712000000E5
:020713000000E4
:020714000000E3
:020715000000E2
:020716000000E1
:020717000000E0
:020718000000DF
:020719000000DE
:02071A000000DD
:02071B000000DC
:02071C000000DB
:02071D000000DA
:02071E000000D9
:02071F000000D8
:020720000000D7
:020721000000D6
:020722000000D5
:020723000000D4
:020724000000D3
:020725000000D2
:020726000000D1
:020727000000D0
:020728000000CF
:020729000000CE
:02072A000000CD
:02072B000000CC
:02072C000000CB
:02072D000000CA
:02072E000000C9
:02072F000000C8
:020730000000C7
:020731000000C6
:020732000000C5
:020733000000C4
:020734000000C3
:020735000000C2
:020736000000C1
:020737000000C0
:020738000000BF
:020739000000BE
:02073A000000BD
:02073B000000BC
:02073C000000BB
:02073D000000BA
:02073E000000B9
:02073F000000B8
:020740000000B7
:020741000000B6
:020742000000B5
:020743000000B4
:020744000000B3
:020745000000B2
:020746000000B1
:020747000000B0
:020748000000AF
:020749000000AE
:02074A000000AD
:02074B000000AC
:02074C000000AB
:02074D000000AA
:02074E000000A9
:02074F000000A8
:020750000000A7
:020751000000A6
:020752000000A5
:020753000000A4
:020754000000A3
:020755000000A2
:020756000000A1
:020757000000A0
:0207580000009F
:0207590000009E
:02075A0000009D
:02075B0000009C
:02075C0000009B
:02075D0000009A
:02075E00000099
:02075F00000098
:02076000000097
:02076100000096
:02076200000095
:02076300000094
:02076400000093
:02076500000092
:02076600000091
:02076700000090
:0207680000008F
:0207690000008E
:02076A0000008D
:02076B0000008C
:02076C0000008B
:02076D0000008A
:02076E00000089
:02076F00000088
:02077000000087
:02077100000086
:02077200000085
:02077300000084
:02077400000083
:02077500000082
:02077600000081
:02077700000080
:0207780000007F
:0207790000007E
:02077A0000007D
:02077B0000007C
:02077C0000007B
:02077D0000007A
:02077E00000079
:02077F00000078
:02078000000077
:02078100000076
:02078200000075
:02078300000074
:02078400000073
:02078500000072
:02078600000071
:02078700000070
:0207880000006F
:0207890000006E
:02078A0000006D
:02078B0000006C
:02078C0000006B
:02078D0000006A
:02078E00000069
:02078F00000068
:02079000000067
:02079100000066
:02079200000065
:02079300000064
:02079400000063
:02079500000062
:02079600000061
:02079700000060
:0207980000005F
:0207990000005E
:02079A0000005D
:02079B0000005C
:02079C0000005B
:02079D0000005A
:02079E00000059
:02079F00000058
:0207A000000057
:0207A100000056
:0207A200000055
:0207A300000054
:0207A400000053
:0207A500000052
:0207A600000051
:0207A700000050
:0207A80000004F
:0207A90000004E
:0207AA0000004D
:0207AB0000004C
:0207AC0000004B
:0207AD0000004A
:0207AE00000049
:0207AF00000048
:0207B000000047
:0207B100000046
:0207B200000045
:0207B300000044
:0207B400000043
:0207B500000042
:0207B600000041
:0207B700000040
:0207B80000003F
:0207B90000003E
:0207BA0000003D
:0207BB0000003C
:0207BC0000003B
:0207BD0000003A
:0207BE00000039
:0207BF00000038
:0207C000000037
:0207C100000036
:0207C200000035
:0207C300000034
:0207C400000033
:0207C500000032
:0207C600000031
:0207C700000030
:0207C80000002F
:0207C90000002E
:0207CA0000002D
:0207CB0000002C
:0207CC0000002B
:0207CD0000002A
:0207CE00000029
:0207CF00000028
:0207D000000027
:0207D100000026
:0207D200000025
:0207D300000024
:0207D400000023
:0207D500000022
:0207D600000021
:0207D700000020
:0207D80000001F
:0207D90000001E
:0207DA0000001D
:0207DB0000001C
:0207DC0000001B
:0207DD0000001A
:0207DE00000019
:0207DF00000018
:0207E000000017
:0207E100000016
:0207E200000015
:0207E300000014
:0207E400000013
:0207E500000012
:0207E600000011
:0207E700000010
:0207E80000000F
:0207E90000000E
:0207EA0000000D
:0207EB0000000C
:0207EC0000000B
:0207ED0000000A
:0207EE00000009
:0207EF00000008
:0207F000000007
:0207F100000006
:0207F200000005
:0207F300000004
:0207F400000003
:0207F500000002
:0207F600000001
:0207F700000000
:0207F8000000FF
:0207F9000000FE
:0207FA000000FD
:0207FB000000FC
:0207FC000000FB
:0207FD000000FA
:0207FE000000F9
:0207FF000000F8
:020800000000F6
:020801000000F5
:020802000000F4
:020803000000F3
:020804000000F2
:020805000000F1
:020806000000F0
:020807000000EF
:020808000000EE
:020809000000ED
:02080A000000EC
:02080B000000EB
:02080C000000EA
:02080D000000E9
:02080E000000E8
:02080F000000E7
:020810000000E6
:020811000000E5
:020812000000E4
:020813000000E3
:020814000000E2
:020815000000E1
:020816000000E0
:020817000000DF
:020818000000DE
:020819000000DD
:02081A000000DC
:02081B000000DB
:02081C000000DA
:02081D000000D9
:02081E000000D8
:02081F000000D7
:020820000000D6
:020821000000D5
:020822000000D4
:020823000000D3
:020824000000D2
:020825000000D1
:020826000000D0
:020827000000CF
:020828000000CE
:020829000000CD
:02082A000000CC
:02082B000000CB
:02082C000000CA
:02082D000000C9
:02082E000000C8
:02082F000000C7
:020830000000C6
:020831000000C5
:020832000000C4
:020833000000C3
:020834000000C2
:020835000000C1
:020836000000C0
:020837000000BF
:020838000000BE
:020839000000BD
:02083A000000BC
:02083B000000BB
:02083C000000BA
:02083D000000B9
:02083E000000B8
:02083F000000B7
:020840000000B6
:020841000000B5
:020842000000B4
:020843000000B3
:020844000000B2
:020845000000B1
:020846000000B0
:020847000000AF
:020848000000AE
:020849000000AD
:02084A000000AC
:02084B000000AB
:02084C000000AA
:02084D000000A9
:02084E000000A8
:02084F000000A7
:020850000000A6
:020851000000A5
:020852000000A4
:020853000000A3
:020854000000A2
:020855000000A1
:020856000000A0
:0208570000009F
:0208580000009E
:0208590000009D
:02085A0000009C
:02085B0000009B
:02085C0000009A
:02085D00000099
:02085E00000098
:02085F00000097
:02086000000096
:02086100000095
:02086200000094
:02086300000093
:02086400000092
:02086500000091
:02086600000090
:0208670000008F
:0208680000008E
:0208690000008D
:02086A0000008C
:02086B0000008B
:02086C0000008A
:02086D00000089
:02086E00000088
:02086F00000087
:02087000000086
:02087100000085
:02087200000084
:02087300000083
:02087400000082
:02087500000081
:02087600000080
:0208770000007F
:0208780000007E
:0208790000007D
:02087A0000007C
:02087B0000007B
:02087C0000007A
:02087D00000079
:02087E00000078
:02087F00000077
:02088000000076
:02088100000075
:02088200000074
:02088300000073
:02088400000072
:02088500000071
:02088600000070
:0208870000006F
:0208880000006E
:0208890000006D
:02088A0000006C
:02088B0000006B
:02088C0000006A
:02088D00000069
:02088E00000068
:02088F00000067
:02089000000066
:02089100000065
:02089200000064
:02089300000063
:02089400000062
:02089500000061
:02089600000060
:0208970000005F
:0208980000005E
:0208990000005D
:02089A0000005C
:02089B0000005B
:02089C0000005A
:02089D00000059
:02089E00000058
:02089F00000057
:0208A000000056
:0208A100000055
:0208A200000054
:0208A300000053
:0208A400000052
:0208A500000051
:0208A600000050
:0208A70000004F
:0208A80000004E
:0208A90000004D
:0208AA0000004C
:0208AB0000004B
:0208AC0000004A
:0208AD00000049
:0208AE00000048
:0208AF00000047
:0208B000000046
:0208B100000045
:0208B200000044
:0208B300000043
:0208B400000042
:0208B500000041
:0208B600000040
:0208B70000003F
:0208B80000003E
:0208B90000003D
:0208BA0000003C
:0208BB0000003B
:0208BC0000003A
:0208BD00000039
:0208BE00000038
:0208BF00000037
:0208C000000036
:0208C100000035
:0208C200000034
:0208C300000033
:0208C400000032
:0208C500000031
:0208C600000030
:0208C70000002F
:0208C80000002E
:0208C90000002D
:0208CA0000002C
:0208CB0000002B
:0208CC0000002A
:0208CD00000029
:0208CE00000028
:0208CF00000027
:0208D000000026
:0208D100000025
:0208D200000024
:0208D300000023
:0208D400000022
:0208D500000021
:0208D600000020
:0208D70000001F
:0208D80000001E
:0208D90000001D
:0208DA0000001C
:0208DB0000001B
:0208DC0000001A
:0208DD00000019
:0208DE00000018
:0208DF00000017
:0208E000000016
:0208E100000015
:0208E200000014
:0208E300000013
:0208E400000012
:0208E500000011
:0208E600000010
:0208E70000000F
:0208E80000000E
:0208E90000000D
:0208EA0000000C
:0208EB0000000B
:0208EC0000000A
:0208ED00000009
:0208EE00000008
:0208EF00000007
:0208F000000006
:0208F100000005
:0208F200000004
:0208F300000003
:0208F400000002
:0208F500000001
:0208F600000000
:0208F7000000FF
:0208F8000000FE
:0208F9000000FD
:0208FA000000FC
:0208FB000000FB
:0208FC000000FA
:0208FD000000F9
:0208FE000000F8
:0208FF000000F7
:020900000000F5
:020901000000F4
:020902000000F3
:020903000000F2
:020904000000F1
:020905000000F0
:020906000000EF
:020907000000EE
:020908000000ED
:020909000000EC
:02090A000000EB
:02090B000000EA
:02090C000000E9
:02090D000000E8
:02090E000000E7
:02090F000000E6
:020910000000E5
:020911000000E4
:020912000000E3
:020913000000E2
:020914000000E1
:020915000000E0
:020916000000DF
:020917000000DE
:020918000000DD
:020919000000DC
:02091A000000DB
:02091B000000DA
:02091C000000D9
:02091D000000D8
:02091E000000D7
:02091F000000D6
:020920000000D5
:020921000000D4
:020922000000D3
:020923000000D2
:020924000000D1
:020925000000D0
:020926000000CF
:020927000000CE
:020928000000CD
:020929000000CC
:02092A000000CB
:02092B000000CA
:02092C000000C9
:02092D000000C8
:02092E000000C7
:02092F000000C6
:020930000000C5
:020931000000C4
:020932000000C3
:020933000000C2
:020934000000C1
:020935000000C0
:020936000000BF
:020937000000BE
:020938000000BD
:020939000000BC
:02093A000000BB
:02093B000000BA
:02093C000000B9
:02093D000000B8
:02093E000000B7
:02093F000000B6
:020940000000B5
:020941000000B4
:020942000000B3
:020943000000B2
:020944000000B1
:020945000000B0
:020946000000AF
:020947000000AE
:020948000000AD
:020949000000AC
:02094A000000AB
:02094B000000AA
:02094C000000A9
:02094D000000A8
:02094E000000A7
:02094F000000A6
:020950000000A5
:020951000000A4
:020952000000A3
:020953000000A2
:020954000000A1
:020955000000A0
:0209560000009F
:0209570000009E
:0209580000009D
:0209590000009C
:02095A0000009B
:02095B0000009A
:02095C00000099
:02095D00000098
:02095E00000097
:02095F00000096
:02096000000095
:02096100000094
:02096200000093
:02096300000092
:02096400000091
:02096500000090
:0209660000008F
:0209670000008E
:0209680000008D
:0209690000008C
:02096A0000008B
:02096B0000008A
:02096C00000089
:02096D00000088
:02096E00000087
:02096F00000086
:02097000000085
:02097100000084
:02097200000083
:02097300000082
:02097400000081
:02097500000080
:0209760000007F
:0209770000007E
:0209780000007D
:0209790000007C
:02097A0000007B
:02097B0000007A
:02097C00000079
:02097D00000078
:02097E00000077
:02097F00000076
:02098000000075
:02098100000074
:02098200000073
:02098300000072
:02098400000071
:02098500000070
:0209860000006F
:0209870000006E
:0209880000006D
:0209890000006C
:02098A0000006B
:02098B0000006A
:02098C00000069
:02098D00000068
:02098E00000067
:02098F00000066
:02099000000065
:02099100000064
:02099200000063
:02099300000062
:02099400000061
:02099500000060
:0209960000005F
:0209970000005E
:0209980000005D
:0209990000005C
:02099A0000005B
:02099B0000005A
:02099C00000059
:02099D00000058
:02099E00000057
:02099F00000056
:0209A000000055
:0209A100000054
:0209A200000053
:0209A300000052
:0209A400000051
:0209A500000050
:0209A60000004F
:0209A70000004E
:0209A80000004D
:0209A90000004C
:0209AA0000004B
:0209AB0000004A
:0209AC00000049
:0209AD00000048
:0209AE00000047
:0209AF00000046
:0209B000000045
:0209B100000044
:0209B200000043
:0209B300000042
:0209B400000041
:0209B500000040
:0209B60000003F
:0209B70000003E
:0209B80000003D
:0209B90000003C
:0209BA0000003B
:0209BB0000003A
:0209BC00000039
:0209BD00000038
:0209BE00000037
:0209BF00000036
:0209C000000035
:0209C100000034
:0209C200000033
:0209C300000032
:0209C400000031
:0209C500000030
:0209C60000002F
:0209C70000002E
:0209C80000002D
:0209C90000002C
:0209CA0000002B
:0209CB0000002A
:0209CC00000029
:0209CD00000028
:0209CE00000027
:0209CF00000026
:0209D000000025
:0209D100000024
:0209D200000023
:0209D300000022
:0209D400000021
:0209D500000020
:0209D60000001F
:0209D70000001E
:0209D80000001D
:0209D90000001C
:0209DA0000001B
:0209DB0000001A
:0209DC00000019
:0209DD00000018
:0209DE00000017
:0209DF00000016
:0209E000000015
:0209E100000014
:0209E200000013
:0209E300000012
:0209E400000011
:0209E500000010
:0209E60000000F
:0209E70000000E
:0209E80000000D
:0209E90000000C
:0209EA0000000B
:0209EB0000000A
:0209EC00000009
:0209ED00000008
:0209EE00000007
:0209EF00000006
:0209F000000005
:0209F100000004
:0209F200000003
:0209F300000002
:0209F400000001
:0209F500000000
:0209F6000000FF
:0209F7000000FE
:0209F8000000FD
:0209F9000000FC
:0209FA000000FB
:0209FB000000FA
:0209FC000000F9
:0209FD000000F8
:0209FE000000F7
:0209FF000000F6
:020A00000000F4
:020A01000000F3
:020A02000000F2
:020A03000000F1
:020A04000000F0
:020A05000000EF
:020A06000000EE
:020A07000000ED
:020A08000000EC
:020A09000000EB
:020A0A000000EA
:020A0B000000E9
:020A0C000000E8
:020A0D000000E7
:020A0E000000E6
:020A0F000000E5
:020A10000000E4
:020A11000000E3
:020A12000000E2
:020A13000000E1
:020A14000000E0
:020A15000000DF
:020A16000000DE
:020A17000000DD
:020A18000000DC
:020A19000000DB
:020A1A000000DA
:020A1B000000D9
:020A1C000000D8
:020A1D000000D7
:020A1E000000D6
:020A1F000000D5
:020A20000000D4
:020A21000000D3
:020A22000000D2
:020A23000000D1
:020A24000000D0
:020A25000000CF
:020A26000000CE
:020A27000000CD
:020A28000000CC
:020A29000000CB
:020A2A000000CA
:020A2B000000C9
:020A2C000000C8
:020A2D000000C7
:020A2E000000C6
:020A2F000000C5
:020A30000000C4
:020A31000000C3
:020A32000000C2
:020A33000000C1
:020A34000000C0
:020A35000000BF
:020A36000000BE
:020A37000000BD
:020A38000000BC
:020A39000000BB
:020A3A000000BA
:020A3B000000B9
:020A3C000000B8
:020A3D000000B7
:020A3E000000B6
:020A3F000000B5
:020A40000000B4
:020A41000000B3
:020A42000000B2
:020A43000000B1
:020A44000000B0
:020A45000000AF
:020A46000000AE
:020A47000000AD
:020A48000000AC
:020A49000000AB
:020A4A000000AA
:020A4B000000A9
:020A4C000000A8
:020A4D000000A7
:020A4E000000A6
:020A4F000000A5
:020A50000000A4
:020A51000000A3
:020A52000000A2
:020A53000000A1
:020A54000000A0
:020A550000009F
:020A560000009E
:020A570000009D
:020A580000009C
:020A590000009B
:020A5A0000009A
:020A5B00000099
:020A5C00000098
:020A5D00000097
:020A5E00000096
:020A5F00000095
:020A6000000094
:020A6100000093
:020A6200000092
:020A6300000091
:020A6400000090
:020A650000008F
:020A660000008E
:020A670000008D
:020A680000008C
:020A690000008B
:020A6A0000008A
:020A6B00000089
:020A6C00000088
:020A6D00000087
:020A6E00000086
:020A6F00000085
:020A7000000084
:020A7100000083
:020A7200000082
:020A7300000081
:020A7400000080
:020A750000007F
:020A760000007E
:020A770000007D
:020A780000007C
:020A790000007B
:020A7A0000007A
:020A7B00000079
:020A7C00000078
:020A7D00000077
:020A7E00000076
:020A7F00000075
:020A8000000074
:020A8100000073
:020A8200000072
:020A8300000071
:020A8400000070
:020A850000006F
:020A860000006E
:020A870000006D
:020A880000006C
:020A890000006B
:020A8A0000006A
:020A8B00000069
:020A8C00000068
:020A8D00000067
:020A8E00000066
:020A8F00000065
:020A9000000064
:020A9100000063
:020A9200000062
:020A9300000061
:020A9400000060
:020A950000005F
:020A960000005E
:020A970000005D
:020A980000005C
:020A990000005B
:020A9A0000005A
:020A9B00000059
:020A9C00000058
:020A9D00000057
:020A9E00000056
:020A9F00000055
:020AA000000054
:020AA100000053
:020AA200000052
:020AA300000051
:020AA400000050
:020AA50000004F
:020AA60000004E
:020AA70000004D
:020AA80000004C
:020AA90000004B
:020AAA0000004A
:020AAB00000049
:020AAC00000048
:020AAD00000047
:020AAE00000046
:020AAF00000045
:020AB000000044
:020AB100000043
:020AB200000042
:020AB300000041
:020AB400000040
:020AB50000003F
:020AB60000003E
:020AB70000003D
:020AB80000003C
:020AB90000003B
:020ABA0000003A
:020ABB00000039
:020ABC00000038
:020ABD00000037
:020ABE00000036
:020ABF00000035
:020AC000000034
:020AC100000033
:020AC200000032
:020AC300000031
:020AC400000030
:020AC50000002F
:020AC60000002E
:020AC70000002D
:020AC80000002C
:020AC90000002B
:020ACA0000002A
:020ACB00000029
:020ACC00000028
:020ACD00000027
:020ACE00000026
:020ACF00000025
:020AD000000024
:020AD100000023
:020AD200000022
:020AD300000021
:020AD400000020
:020AD50000001F
:020AD60000001E
:020AD70000001D
:020AD80000001C
:020AD90000001B
:020ADA0000001A
:020ADB00000019
:020ADC00000018
:020ADD00000017
:020ADE00000016
:020ADF00000015
:020AE000000014
:020AE100000013
:020AE200000012
:020AE300000011
:020AE400000010
:020AE50000000F
:020AE60000000E
:020AE70000000D
:020AE80000000C
:020AE90000000B
:020AEA0000000A
:020AEB00000009
:020AEC00000008
:020AED00000007
:020AEE00000006
:020AEF00000005
:020AF000000004
:020AF100000003
:020AF200000002
:020AF300000001
:020AF400000000
:020AF5000000FF
:020AF6000000FE
:020AF7000000FD
:020AF8000000FC
:020AF9000000FB
:020AFA000000FA
:020AFB000000F9
:020AFC000000F8
:020AFD000000F7
:020AFE000000F6
:020AFF000000F5
:020B00000000F3
:020B01000000F2
:020B02000000F1
:020B03000000F0
:020B04000000EF
:020B05000000EE
:020B06000000ED
:020B07000000EC
:020B08000000EB
:020B09000000EA
:020B0A000000E9
:020B0B000000E8
:020B0C000000E7
:020B0D000000E6
:020B0E000000E5
:020B0F000000E4
:020B10000000E3
:020B11000000E2
:020B12000000E1
:020B13000000E0
:020B14000000DF
:020B15000000DE
:020B16000000DD
:020B17000000DC
:020B18000000DB
:020B19000000DA
:020B1A000000D9
:020B1B000000D8
:020B1C000000D7
:020B1D000000D6
:020B1E000000D5
:020B1F000000D4
:020B20000000D3
:020B21000000D2
:020B22000000D1
:020B23000000D0
:020B24000000CF
:020B25000000CE
:020B26000000CD
:020B27000000CC
:020B28000000CB
:020B29000000CA
:020B2A000000C9
:020B2B000000C8
:020B2C000000C7
:020B2D000000C6
:020B2E000000C5
:020B2F000000C4
:020B30000000C3
:020B31000000C2
:020B32000000C1
:020B33000000C0
:020B34000000BF
:020B35000000BE
:020B36000000BD
:020B37000000BC
:020B38000000BB
:020B39000000BA
:020B3A000000B9
:020B3B000000B8
:020B3C000000B7
:020B3D000000B6
:020B3E000000B5
:020B3F000000B4
:020B40000000B3
:020B41000000B2
:020B42000000B1
:020B43000000B0
:020B44000000AF
:020B45000000AE
:020B46000000AD
:020B47000000AC
:020B48000000AB
:020B49000000AA
:020B4A000000A9
:020B4B000000A8
:020B4C000000A7
:020B4D000000A6
:020B4E000000A5
:020B4F000000A4
:020B50000000A3
:020B51000000A2
:020B52000000A1
:020B53000000A0
:020B540000009F
:020B550000009E
:020B560000009D
:020B570000009C
:020B580000009B
:020B590000009A
:020B5A00000099
:020B5B00000098
:020B5C00000097
:020B5D00000096
:020B5E00000095
:020B5F00000094
:020B6000000093
:020B6100000092
:020B6200000091
:020B6300000090
:020B640000008F
:020B650000008E
:020B660000008D
:020B670000008C
:020B680000008B
:020B690000008A
:020B6A00000089
:020B6B00000088
:020B6C00000087
:020B6D00000086
:020B6E00000085
:020B6F00000084
:020B7000000083
:020B7100000082
:020B7200000081
:020B7300000080
:020B740000007F
:020B750000007E
:020B760000007D
:020B770000007C
:020B780000007B
:020B790000007A
:020B7A00000079
:020B7B00000078
:020B7C00000077
:020B7D00000076
:020B7E00000075
:020B7F00000074
:020B8000000073
:020B8100000072
:020B8200000071
:020B8300000070
:020B840000006F
:020B850000006E
:020B860000006D
:020B870000006C
:020B880000006B
:020B890000006A
:020B8A00000069
:020B8B00000068
:020B8C00000067
:020B8D00000066
:020B8E00000065
:020B8F00000064
:020B9000000063
:020B9100000062
:020B9200000061
:020B9300000060
:020B940000005F
:020B950000005E
:020B960000005D
:020B970000005C
:020B980000005B
:020B990000005A
:020B9A00000059
:020B9B00000058
:020B9C00000057
:020B9D00000056
:020B9E00000055
:020B9F00000054
:020BA000000053
:020BA100000052
:020BA200000051
:020BA300000050
:020BA40000004F
:020BA50000004E
:020BA60000004D
:020BA70000004C
:020BA80000004B
:020BA90000004A
:020BAA00000049
:020BAB00000048
:020BAC00000047
:020BAD00000046
:020BAE00000045
:020BAF00000044
:020BB000000043
:020BB100000042
:020BB200000041
:020BB300000040
:020BB40000003F
:020BB50000003E
:020BB60000003D
:020BB70000003C
:020BB80000003B
:020BB90000003A
:020BBA00000039
:020BBB00000038
:020BBC00000037
:020BBD00000036
:020BBE00000035
:020BBF00000034
:020BC000000033
:020BC100000032
:020BC200000031
:020BC300000030
:020BC40000002F
:020BC50000002E
:020BC60000002D
:020BC70000002C
:020BC80000002B
:020BC90000002A
:020BCA00000029
:020BCB00000028
:020BCC00000027
:020BCD00000026
:020BCE00000025
:020BCF00000024
:020BD000000023
:020BD100000022
:020BD200000021
:020BD300000020
:020BD40000001F
:020BD50000001E
:020BD60000001D
:020BD70000001C
:020BD80000001B
:020BD90000001A
:020BDA00000019
:020BDB00000018
:020BDC00000017
:020BDD00000016
:020BDE00000015
:020BDF00000014
:020BE000000013
:020BE100000012
:020BE200000011
:020BE300000010
:020BE40000000F
:020BE50000000E
:020BE60000000D
:020BE70000000C
:020BE80000000B
:020BE90000000A
:020BEA00000009
:020BEB00000008
:020BEC00000007
:020BED00000006
:020BEE00000005
:020BEF00000004
:020BF000000003
:020BF100000002
:020BF200000001
:020BF300000000
:020BF4000000FF
:020BF5000000FE
:020BF6000000FD
:020BF7000000FC
:020BF8000000FB
:020BF9000000FA
:020BFA000000F9
:020BFB000000F8
:020BFC000000F7
:020BFD000000F6
:020BFE000000F5
:020BFF000000F4
:020C00000000F2
:020C01000000F1
:020C02000000F0
:020C03000000EF
:020C04000000EE
:020C05000000ED
:020C06000000EC
:020C07000000EB
:020C08000000EA
:020C09000000E9
:020C0A000000E8
:020C0B000000E7
:020C0C000000E6
:020C0D000000E5
:020C0E000000E4
:020C0F000000E3
:020C10000000E2
:020C11000000E1
:020C12000000E0
:020C13000000DF
:020C14000000DE
:020C15000000DD
:020C16000000DC
:020C17000000DB
:020C18000000DA
:020C19000000D9
:020C1A000000D8
:020C1B000000D7
:020C1C000000D6
:020C1D000000D5
:020C1E000000D4
:020C1F000000D3
:020C20000000D2
:020C21000000D1
:020C22000000D0
:020C23000000CF
:020C24000000CE
:020C25000000CD
:020C26000000CC
:020C27000000CB
:020C28000000CA
:020C29000000C9
:020C2A000000C8
:020C2B000000C7
:020C2C000000C6
:020C2D000000C5
:020C2E000000C4
:020C2F000000C3
:020C30000000C2
:020C31000000C1
:020C32000000C0
:020C33000000BF
:020C34000000BE
:020C35000000BD
:020C36000000BC
:020C37000000BB
:020C38000000BA
:020C39000000B9
:020C3A000000B8
:020C3B000000B7
:020C3C000000B6
:020C3D000000B5
:020C3E000000B4
:020C3F000000B3
:020C40000000B2
:020C41000000B1
:020C42000000B0
:020C43000000AF
:020C44000000AE
:020C45000000AD
:020C46000000AC
:020C47000000AB
:020C48000000AA
:020C49000000A9
:020C4A000000A8
:020C4B000000A7
:020C4C000000A6
:020C4D000000A5
:020C4E000000A4
:020C4F000000A3
:020C50000000A2
:020C51000000A1
:020C52000000A0
:020C530000009F
:020C540000009E
:020C550000009D
:020C560000009C
:020C570000009B
:020C580000009A
:020C5900000099
:020C5A00000098
:020C5B00000097
:020C5C00000096
:020C5D00000095
:020C5E00000094
:020C5F00000093
:020C6000000092
:020C6100000091
:020C6200000090
:020C630000008F
:020C640000008E
:020C650000008D
:020C660000008C
:020C670000008B
:020C680000008A
:020C6900000089
:020C6A00000088
:020C6B00000087
:020C6C00000086
:020C6D00000085
:020C6E00000084
:020C6F00000083
:020C7000000082
:020C7100000081
:020C7200000080
:020C730000007F
:020C740000007E
:020C750000007D
:020C760000007C
:020C770000007B
:020C780000007A
:020C7900000079
:020C7A00000078
:020C7B00000077
:020C7C00000076
:020C7D00000075
:020C7E00000074
:020C7F00000073
:020C8000000072
:020C8100000071
:020C8200000070
:020C830000006F
:020C840000006E
:020C850000006D
:020C860000006C
:020C870000006B
:020C880000006A
:020C8900000069
:020C8A00000068
:020C8B00000067
:020C8C00000066
:020C8D00000065
:020C8E00000064
:020C8F00000063
:020C9000000062
:020C9100000061
:020C9200000060
:020C930000005F
:020C940000005E
:020C950000005D
:020C960000005C
:020C970000005B
:020C980000005A
:020C9900000059
:020C9A00000058
:020C9B00000057
:020C9C00000056
:020C9D00000055
:020C9E00000054
:020C9F00000053
:020CA000000052
:020CA100000051
:020CA200000050
:020CA30000004F
:020CA40000004E
:020CA50000004D
:020CA60000004C
:020CA70000004B
:020CA80000004A
:020CA900000049
:020CAA00000048
:020CAB00000047
:020CAC00000046
:020CAD00000045
:020CAE00000044
:020CAF00000043
:020CB000000042
:020CB100000041
:020CB200000040
:020CB30000003F
:020CB40000003E
:020CB50000003D
:020CB60000003C
:020CB70000003B
:020CB80000003A
:020CB900000039
:020CBA00000038
:020CBB00000037
:020CBC00000036
:020CBD00000035
:020CBE00000034
:020CBF00000033
:020CC000000032
:020CC100000031
:020CC200000030
:020CC30000002F
:020CC40000002E
:020CC50000002D
:020CC60000002C
:020CC70000002B
:020CC80000002A
:020CC900000029
:020CCA00000028
:020CCB00000027
:020CCC00000026
:020CCD00000025
:020CCE00000024
:020CCF00000023
:020CD000000022
:020CD100000021
:020CD200000020
:020CD30000001F
:020CD40000001E
:020CD50000001D
:020CD60000001C
:020CD70000001B
:020CD80000001A
:020CD900000019
:020CDA00000018
:020CDB00000017
:020CDC00000016
:020CDD00000015
:020CDE00000014
:020CDF00000013
:020CE000000012
:020CE100000011
:020CE200000010
:020CE30000000F
:020CE40000000E
:020CE50000000D
:020CE60000000C
:020CE70000000B
:020CE80000000A
:020CE900000009
:020CEA00000008
:020CEB00000007
:020CEC00000006
:020CED00000005
:020CEE00000004
:020CEF00000003
:020CF000000002
:020CF100000001
:020CF200000000
:020CF3000000FF
:020CF4000000FE
:020CF5000000FD
:020CF6000000FC
:020CF7000000FB
:020CF8000000FA
:020CF9000000F9
:020CFA000000F8
:020CFB000000F7
:020CFC000000F6
:020CFD000000F5
:020CFE000000F4
:020CFF000000F3
:020D00000000F1
:020D01000000F0
:020D02000000EF
:020D03000000EE
:020D04000000ED
:020D05000000EC
:020D06000000EB
:020D07000000EA
:020D08000000E9
:020D09000000E8
:020D0A000000E7
:020D0B000000E6
:020D0C000000E5
:020D0D000000E4
:020D0E000000E3
:020D0F000000E2
:020D10000000E1
:020D11000000E0
:020D12000000DF
:020D13000000DE
:020D14000000DD
:020D15000000DC
:020D16000000DB
:020D17000000DA
:020D18000000D9
:020D19000000D8
:020D1A000000D7
:020D1B000000D6
:020D1C000000D5
:020D1D000000D4
:020D1E000000D3
:020D1F000000D2
:020D20000000D1
:020D21000000D0
:020D22000000CF
:020D23000000CE
:020D24000000CD
:020D25000000CC
:020D26000000CB
:020D27000000CA
:020D28000000C9
:020D29000000C8
:020D2A000000C7
:020D2B000000C6
:020D2C000000C5
:020D2D000000C4
:020D2E000000C3
:020D2F000000C2
:020D30000000C1
:020D31000000C0
:020D32000000BF
:020D33000000BE
:020D34000000BD
:020D35000000BC
:020D36000000BB
:020D37000000BA
:020D38000000B9
:020D39000000B8
:020D3A000000B7
:020D3B000000B6
:020D3C000000B5
:020D3D000000B4
:020D3E000000B3
:020D3F000000B2
:020D40000000B1
:020D41000000B0
:020D42000000AF
:020D43000000AE
:020D44000000AD
:020D45000000AC
:020D46000000AB
:020D47000000AA
:020D48000000A9
:020D49000000A8
:020D4A000000A7
:020D4B000000A6
:020D4C000000A5
:020D4D000000A4
:020D4E000000A3
:020D4F000000A2
:020D50000000A1
:020D51000000A0
:020D520000009F
:020D530000009E
:020D540000009D
:020D550000009C
:020D560000009B
:020D570000009A
:020D5800000099
:020D5900000098
:020D5A00000097
:020D5B00000096
:020D5C00000095
:020D5D00000094
:020D5E00000093
:020D5F00000092
:020D6000000091
:020D6100000090
:020D620000008F
:020D630000008E
:020D640000008D
:020D650000008C
:020D660000008B
:020D670000008A
:020D6800000089
:020D6900000088
:020D6A00000087
:020D6B00000086
:020D6C00000085
:020D6D00000084
:020D6E00000083
:020D6F00000082
:020D7000000081
:020D7100000080
:020D720000007F
:020D730000007E
:020D740000007D
:020D750000007C
:020D760000007B
:020D770000007A
:020D7800000079
:020D7900000078
:020D7A00000077
:020D7B00000076
:020D7C00000075
:020D7D00000074
:020D7E00000073
:020D7F00000072
:020D8000000071
:020D8100000070
:020D820000006F
:020D830000006E
:020D840000006D
:020D850000006C
:020D860000006B
:020D870000006A
:020D8800000069
:020D8900000068
:020D8A00000067
:020D8B00000066
:020D8C00000065
:020D8D00000064
:020D8E00000063
:020D8F00000062
:020D9000000061
:020D9100000060
:020D920000005F
:020D930000005E
:020D940000005D
:020D950000005C
:020D960000005B
:020D970000005A
:020D9800000059
:020D9900000058
:020D9A00000057
:020D9B00000056
:020D9C00000055
:020D9D00000054
:020D9E00000053
:020D9F00000052
:020DA000000051
:020DA100000050
:020DA20000004F
:020DA30000004E
:020DA40000004D
:020DA50000004C
:020DA60000004B
:020DA70000004A
:020DA800000049
:020DA900000048
:020DAA00000047
:020DAB00000046
:020DAC00000045
:020DAD00000044
:020DAE00000043
:020DAF00000042
:020DB000000041
:020DB100000040
:020DB20000003F
:020DB30000003E
:020DB40000003D
:020DB50000003C
:020DB60000003B
:020DB70000003A
:020DB800000039
:020DB900000038
:020DBA00000037
:020DBB00000036
:020DBC00000035
:020DBD00000034
:020DBE00000033
:020DBF00000032
:020DC000000031
:020DC100000030
:020DC20000002F
:020DC30000002E
:020DC40000002D
:020DC50000002C
:020DC60000002B
:020DC70000002A
:020DC800000029
:020DC900000028
:020DCA00000027
:020DCB00000026
:020DCC00000025
:020DCD00000024
:020DCE00000023
:020DCF00000022
:020DD000000021
:020DD100000020
:020DD20000001F
:020DD30000001E
:020DD40000001D
:020DD50000001C
:020DD60000001B
:020DD70000001A
:020DD800000019
:020DD900000018
:020DDA00000017
:020DDB00000016
:020DDC00000015
:020DDD00000014
:020DDE00000013
:020DDF00000012
:020DE000000011
:020DE100000010
:020DE20000000F
:020DE30000000E
:020DE40000000D
:020DE50000000C
:020DE60000000B
:020DE70000000A
:020DE800000009
:020DE900000008
:020DEA00000007
:020DEB00000006
:020DEC00000005
:020DED00000004
:020DEE00000003
:020DEF00000002
:020DF000000001
:020DF100000000
:020DF2000000FF
:020DF3000000FE
:020DF4000000FD
:020DF5000000FC
:020DF6000000FB
:020DF7000000FA
:020DF8000000F9
:020DF9000000F8
:020DFA000000F7
:020DFB000000F6
:020DFC000000F5
:020DFD000000F4
:020DFE000000F3
:020DFF000000F2
:020E00000000F0
:020E01000000EF
:020E02000000EE
:020E03000000ED
:020E04000000EC
:020E05000000EB
:020E06000000EA
:020E07000000E9
:020E08000000E8
:020E09000000E7
:020E0A000000E6
:020E0B000000E5
:020E0C000000E4
:020E0D000000E3
:020E0E000000E2
:020E0F000000E1
:020E10000000E0
:020E11000000DF
:020E12000000DE
:020E13000000DD
:020E14000000DC
:020E15000000DB
:020E16000000DA
:020E17000000D9
:020E18000000D8
:020E19000000D7
:020E1A000000D6
:020E1B000000D5
:020E1C000000D4
:020E1D000000D3
:020E1E000000D2
:020E1F000000D1
:020E20000000D0
:020E21000000CF
:020E22000000CE
:020E23000000CD
:020E24000000CC
:020E25000000CB
:020E26000000CA
:020E27000000C9
:020E28000000C8
:020E29000000C7
:020E2A000000C6
:020E2B000000C5
:020E2C000000C4
:020E2D000000C3
:020E2E000000C2
:020E2F000000C1
:020E30000000C0
:020E31000000BF
:020E32000000BE
:020E33000000BD
:020E34000000BC
:020E35000000BB
:020E36000000BA
:020E37000000B9
:020E38000000B8
:020E39000000B7
:020E3A000000B6
:020E3B000000B5
:020E3C000000B4
:020E3D000000B3
:020E3E000000B2
:020E3F000000B1
:020E40000000B0
:020E41000000AF
:020E42000000AE
:020E43000000AD
:020E44000000AC
:020E45000000AB
:020E46000000AA
:020E47000000A9
:020E48000000A8
:020E49000000A7
:020E4A000000A6
:020E4B000000A5
:020E4C000000A4
:020E4D000000A3
:020E4E000000A2
:020E4F000000A1
:020E50000000A0
:020E510000009F
:020E520000009E
:020E530000009D
:020E540000009C
:020E550000009B
:020E560000009A
:020E5700000099
:020E5800000098
:020E5900000097
:020E5A00000096
:020E5B00000095
:020E5C00000094
:020E5D00000093
:020E5E00000092
:020E5F00000091
:020E6000000090
:020E610000008F
:020E620000008E
:020E630000008D
:020E640000008C
:020E650000008B
:020E660000008A
:020E6700000089
:020E6800000088
:020E6900000087
:020E6A00000086
:020E6B00000085
:020E6C00000084
:020E6D00000083
:020E6E00000082
:020E6F00000081
:020E7000000080
:020E710000007F
:020E720000007E
:020E730000007D
:020E740000007C
:020E750000007B
:020E760000007A
:020E7700000079
:020E7800000078
:020E7900000077
:020E7A00000076
:020E7B00000075
:020E7C00000074
:020E7D00000073
:020E7E00000072
:020E7F00000071
:020E8000000070
:020E810000006F
:020E820000006E
:020E830000006D
:020E840000006C
:020E850000006B
:020E860000006A
:020E8700000069
:020E8800000068
:020E8900000067
:020E8A00000066
:020E8B00000065
:020E8C00000064
:020E8D00000063
:020E8E00000062
:020E8F00000061
:020E9000000060
:020E910000005F
:020E920000005E
:020E930000005D
:020E940000005C
:020E950000005B
:020E960000005A
:020E9700000059
:020E9800000058
:020E9900000057
:020E9A00000056
:020E9B00000055
:020E9C00000054
:020E9D00000053
:020E9E00000052
:020E9F00000051
:020EA000000050
:020EA10000004F
:020EA20000004E
:020EA30000004D
:020EA40000004C
:020EA50000004B
:020EA60000004A
:020EA700000049
:020EA800000048
:020EA900000047
:020EAA00000046
:020EAB00000045
:020EAC00000044
:020EAD00000043
:020EAE00000042
:020EAF00000041
:020EB000000040
:020EB10000003F
:020EB20000003E
:020EB30000003D
:020EB40000003C
:020EB50000003B
:020EB60000003A
:020EB700000039
:020EB800000038
:020EB900000037
:020EBA00000036
:020EBB00000035
:020EBC00000034
:020EBD00000033
:020EBE00000032
:020EBF00000031
:020EC000000030
:020EC10000002F
:020EC20000002E
:020EC30000002D
:020EC40000002C
:020EC50000002B
:020EC60000002A
:020EC700000029
:020EC800000028
:020EC900000027
:020ECA00000026
:020ECB00000025
:020ECC00000024
:020ECD00000023
:020ECE00000022
:020ECF00000021
:020ED000000020
:020ED10000001F
:020ED20000001E
:020ED30000001D
:020ED40000001C
:020ED50000001B
:020ED60000001A
:020ED700000019
:020ED800000018
:020ED900000017
:020EDA00000016
:020EDB00000015
:020EDC00000014
:020EDD00000013
:020EDE00000012
:020EDF00000011
:020EE000000010
:020EE10000000F
:020EE20000000E
:020EE30000000D
:020EE40000000C
:020EE50000000B
:020EE60000000A
:020EE700000009
:020EE800000008
:020EE900000007
:020EEA00000006
:020EEB00000005
:020EEC00000004
:020EED00000003
:020EEE00000002
:020EEF00000001
:020EF000000000
:020EF1000000FF
:020EF2000000FE
:020EF3000000FD
:020EF4000000FC
:020EF5000000FB
:020EF6000000FA
:020EF7000000F9
:020EF8000000F8
:020EF9000000F7
:020EFA000000F6
:020EFB000000F5
:020EFC000000F4
:020EFD000000F3
:020EFE000000F2
:020EFF000000F1
:020F00000000EF
:020F01000000EE
:020F02000000ED
:020F03000000EC
:020F04000000EB
:020F05000000EA
:020F06000000E9
:020F07000000E8
:020F08000000E7
:020F09000000E6
:020F0A000000E5
:020F0B000000E4
:020F0C000000E3
:020F0D000000E2
:020F0E000000E1
:020F0F000000E0
:020F10000000DF
:020F11000000DE
:020F12000000DD
:020F13000000DC
:020F14000000DB
:020F15000000DA
:020F16000000D9
:020F17000000D8
:020F18000000D7
:020F19000000D6
:020F1A000000D5
:020F1B000000D4
:020F1C000000D3
:020F1D000000D2
:020F1E000000D1
:020F1F000000D0
:020F20000000CF
:020F21000000CE
:020F22000000CD
:020F23000000CC
:020F24000000CB
:020F25000000CA
:020F26000000C9
:020F27000000C8
:020F28000000C7
:020F29000000C6
:020F2A000000C5
:020F2B000000C4
:020F2C000000C3
:020F2D000000C2
:020F2E000000C1
:020F2F000000C0
:020F30000000BF
:020F31000000BE
:020F32000000BD
:020F33000000BC
:020F34000000BB
:020F35000000BA
:020F36000000B9
:020F37000000B8
:020F38000000B7
:020F39000000B6
:020F3A000000B5
:020F3B000000B4
:020F3C000000B3
:020F3D000000B2
:020F3E000000B1
:020F3F000000B0
:020F40000000AF
:020F41000000AE
:020F42000000AD
:020F43000000AC
:020F44000000AB
:020F45000000AA
:020F46000000A9
:020F47000000A8
:020F48000000A7
:020F49000000A6
:020F4A000000A5
:020F4B000000A4
:020F4C000000A3
:020F4D000000A2
:020F4E000000A1
:020F4F000000A0
:020F500000009F
:020F510000009E
:020F520000009D
:020F530000009C
:020F540000009B
:020F550000009A
:020F5600000099
:020F5700000098
:020F5800000097
:020F5900000096
:020F5A00000095
:020F5B00000094
:020F5C00000093
:020F5D00000092
:020F5E00000091
:020F5F00000090
:020F600000008F
:020F610000008E
:020F620000008D
:020F630000008C
:020F640000008B
:020F650000008A
:020F6600000089
:020F6700000088
:020F6800000087
:020F6900000086
:020F6A00000085
:020F6B00000084
:020F6C00000083
:020F6D00000082
:020F6E00000081
:020F6F00000080
:020F700000007F
:020F710000007E
:020F720000007D
:020F730000007C
:020F740000007B
:020F750000007A
:020F7600000079
:020F7700000078
:020F7800000077
:020F7900000076
:020F7A00000075
:020F7B00000074
:020F7C00000073
:020F7D00000072
:020F7E00000071
:020F7F00000070
:020F800000006F
:020F810000006E
:020F820000006D
:020F830000006C
:020F840000006B
:020F850000006A
:020F8600000069
:020F8700000068
:020F8800000067
:020F8900000066
:020F8A00000065
:020F8B00000064
:020F8C00000063
:020F8D00000062
:020F8E00000061
:020F8F00000060
:020F900000005F
:020F910000005E
:020F920000005D
:020F930000005C
:020F940000005B
:020F950000005A
:020F9600000059
:020F9700000058
:020F9800000057
:020F9900000056
:020F9A00000055
:020F9B00000054
:020F9C00000053
:020F9D00000052
:020F9E00000051
:020F9F00000050
:020FA00000004F
:020FA10000004E
:020FA20000004D
:020FA30000004C
:020FA40000004B
:020FA50000004A
:020FA600000049
:020FA700000048
:020FA800000047
:020FA900000046
:020FAA00000045
:020FAB00000044
:020FAC00000043
:020FAD00000042
:020FAE00000041
:020FAF00000040
:020FB00000003F
:020FB10000003E
:020FB20000003D
:020FB30000003C
:020FB40000003B
:020FB50000003A
:020FB600000039
:020FB700000038
:020FB800000037
:020FB900000036
:020FBA00000035
:020FBB00000034
:020FBC00000033
:020FBD00000032
:020FBE00000031
:020FBF00000030
:020FC00000002F
:020FC10000002E
:020FC20000002D
:020FC30000002C
:020FC40000002B
:020FC50000002A
:020FC600000029
:020FC700000028
:020FC800000027
:020FC900000026
:020FCA00000025
:020FCB00000024
:020FCC00000023
:020FCD00000022
:020FCE00000021
:020FCF00000020
:020FD00000001F
:020FD10000001E
:020FD20000001D
:020FD30000001C
:020FD40000001B
:020FD50000001A
:020FD600000019
:020FD700000018
:020FD800000017
:020FD900000016
:020FDA00000015
:020FDB00000014
:020FDC00000013
:020FDD00000012
:020FDE00000011
:020FDF00000010
:020FE00000000F
:020FE10000000E
:020FE20000000D
:020FE30000000C
:020FE40000000B
:020FE50000000A
:020FE600000009
:020FE700000008
:020FE800000007
:020FE900000006
:020FEA00000005
:020FEB00000004
:020FEC00000003
:020FED00000002
:020FEE00000001
:020FEF00000000
:020FF0000000FF
:020FF1000000FE
:020FF2000000FD
:020FF3000000FC
:020FF4000000FB
:020FF5000000FA
:020FF6000000F9
:020FF7000000F8
:020FF8000000F7
:020FF9000000F6
:020FFA000000F5
:020FFB000000F4
:020FFC000000F3
:020FFD000000F2
:020FFE000000F1
:020FFF000000F0
:021000000000EE
:021001000000ED
:021002000000EC
:021003000000EB
:021004000000EA
:021005000000E9
:021006000000E8
:021007000000E7
:021008000000E6
:021009000000E5
:02100A000000E4
:02100B000000E3
:02100C000000E2
:02100D000000E1
:02100E000000E0
:02100F000000DF
:021010000000DE
:021011000000DD
:021012000000DC
:021013000000DB
:021014000000DA
:021015000000D9
:021016000000D8
:021017000000D7
:021018000000D6
:021019000000D5
:02101A000000D4
:02101B000000D3
:02101C000000D2
:02101D000000D1
:02101E000000D0
:02101F000000CF
:021020000000CE
:021021000000CD
:021022000000CC
:021023000000CB
:021024000000CA
:021025000000C9
:021026000000C8
:021027000000C7
:021028000000C6
:021029000000C5
:02102A000000C4
:02102B000000C3
:02102C000000C2
:02102D000000C1
:02102E000000C0
:02102F000000BF
:021030000000BE
:021031000000BD
:021032000000BC
:021033000000BB
:021034000000BA
:021035000000B9
:021036000000B8
:021037000000B7
:021038000000B6
:021039000000B5
:02103A000000B4
:02103B000000B3
:02103C000000B2
:02103D000000B1
:02103E000000B0
:02103F000000AF
:021040000000AE
:021041000000AD
:021042000000AC
:021043000000AB
:021044000000AA
:021045000000A9
:021046000000A8
:021047000000A7
:021048000000A6
:021049000000A5
:02104A000000A4
:02104B000000A3
:02104C000000A2
:02104D000000A1
:02104E000000A0
:02104F0000009F
:0210500000009E
:0210510000009D
:0210520000009C
:0210530000009B
:0210540000009A
:02105500000099
:02105600000098
:02105700000097
:02105800000096
:02105900000095
:02105A00000094
:02105B00000093
:02105C00000092
:02105D00000091
:02105E00000090
:02105F0000008F
:0210600000008E
:0210610000008D
:0210620000008C
:0210630000008B
:0210640000008A
:02106500000089
:02106600000088
:02106700000087
:02106800000086
:02106900000085
:02106A00000084
:02106B00000083
:02106C00000082
:02106D00000081
:02106E00000080
:02106F0000007F
:0210700000007E
:0210710000007D
:0210720000007C
:0210730000007B
:0210740000007A
:02107500000079
:02107600000078
:02107700000077
:02107800000076
:02107900000075
:02107A00000074
:02107B00000073
:02107C00000072
:02107D00000071
:02107E00000070
:02107F0000006F
:0210800000006E
:0210810000006D
:0210820000006C
:0210830000006B
:0210840000006A
:02108500000069
:02108600000068
:02108700000067
:02108800000066
:02108900000065
:02108A00000064
:02108B00000063
:02108C00000062
:02108D00000061
:02108E00000060
:02108F0000005F
:0210900000005E
:0210910000005D
:0210920000005C
:0210930000005B
:0210940000005A
:02109500000059
:02109600000058
:02109700000057
:02109800000056
:02109900000055
:02109A00000054
:02109B00000053
:02109C00000052
:02109D00000051
:02109E00000050
:02109F0000004F
:0210A00000004E
:0210A10000004D
:0210A20000004C
:0210A30000004B
:0210A40000004A
:0210A500000049
:0210A600000048
:0210A700000047
:0210A800000046
:0210A900000045
:0210AA00000044
:0210AB00000043
:0210AC00000042
:0210AD00000041
:0210AE00000040
:0210AF0000003F
:0210B00000003E
:0210B10000003D
:0210B20000003C
:0210B30000003B
:0210B40000003A
:0210B500000039
:0210B600000038
:0210B700000037
:0210B800000036
:0210B900000035
:0210BA00000034
:0210BB00000033
:0210BC00000032
:0210BD00000031
:0210BE00000030
:0210BF0000002F
:0210C00000002E
:0210C10000002D
:0210C20000002C
:0210C30000002B
:0210C40000002A
:0210C500000029
:0210C600000028
:0210C700000027
:0210C800000026
:0210C900000025
:0210CA00000024
:0210CB00000023
:0210CC00000022
:0210CD00000021
:0210CE00000020
:0210CF0000001F
:0210D00000001E
:0210D10000001D
:0210D20000001C
:0210D30000001B
:0210D40000001A
:0210D500000019
:0210D600000018
:0210D700000017
:0210D800000016
:0210D900000015
:0210DA00000014
:0210DB00000013
:0210DC00000012
:0210DD00000011
:0210DE00000010
:0210DF0000000F
:0210E00000000E
:0210E10000000D
:0210E20000000C
:0210E30000000B
:0210E40000000A
:0210E500000009
:0210E600000008
:0210E700000007
:0210E800000006
:0210E900000005
:0210EA00000004
:0210EB00000003
:0210EC00000002
:0210ED00000001
:0210EE00000000
:0210EF000000FF
:0210F0000000FE
:0210F1000000FD
:0210F2000000FC
:0210F3000000FB
:0210F4000000FA
:0210F5000000F9
:0210F6000000F8
:0210F7000000F7
:0210F8000000F6
:0210F9000000F5
:0210FA000000F4
:0210FB000000F3
:0210FC000000F2
:0210FD000000F1
:0210FE000000F0
:0210FF000000EF
:021100000000ED
:021101000000EC
:021102000000EB
:021103000000EA
:021104000000E9
:021105000000E8
:021106000000E7
:021107000000E6
:021108000000E5
:021109000000E4
:02110A000000E3
:02110B000000E2
:02110C000000E1
:02110D000000E0
:02110E000000DF
:02110F000000DE
:021110000000DD
:021111000000DC
:021112000000DB
:021113000000DA
:021114000000D9
:021115000000D8
:021116000000D7
:021117000000D6
:021118000000D5
:021119000000D4
:02111A000000D3
:02111B000000D2
:02111C000000D1
:02111D000000D0
:02111E000000CF
:02111F000000CE
:021120000000CD
:021121000000CC
:021122000000CB
:021123000000CA
:021124000000C9
:021125000000C8
:021126000000C7
:021127000000C6
:021128000000C5
:021129000000C4
:02112A000000C3
:02112B000000C2
:02112C000000C1
:02112D000000C0
:02112E000000BF
:02112F000000BE
:021130000000BD
:021131000000BC
:021132000000BB
:021133000000BA
:021134000000B9
:021135000000B8
:021136000000B7
:021137000000B6
:021138000000B5
:021139000000B4
:02113A000000B3
:02113B000000B2
:02113C000000B1
:02113D000000B0
:02113E000000AF
:02113F000000AE
:021140000000AD
:021141000000AC
:021142000000AB
:021143000000AA
:021144000000A9
:021145000000A8
:021146000000A7
:021147000000A6
:021148000000A5
:021149000000A4
:02114A000000A3
:02114B000000A2
:02114C000000A1
:02114D000000A0
:02114E0000009F
:02114F0000009E
:0211500000009D
:0211510000009C
:0211520000009B
:0211530000009A
:02115400000099
:02115500000098
:02115600000097
:02115700000096
:02115800000095
:02115900000094
:02115A00000093
:02115B00000092
:02115C00000091
:02115D00000090
:02115E0000008F
:02115F0000008E
:0211600000008D
:0211610000008C
:0211620000008B
:0211630000008A
:02116400000089
:02116500000088
:02116600000087
:02116700000086
:02116800000085
:02116900000084
:02116A00000083
:02116B00000082
:02116C00000081
:02116D00000080
:02116E0000007F
:02116F0000007E
:0211700000007D
:0211710000007C
:0211720000007B
:0211730000007A
:02117400000079
:02117500000078
:02117600000077
:02117700000076
:02117800000075
:02117900000074
:02117A00000073
:02117B00000072
:02117C00000071
:02117D00000070
:02117E0000006F
:02117F0000006E
:0211800000006D
:0211810000006C
:0211820000006B
:0211830000006A
:02118400000069
:02118500000068
:02118600000067
:02118700000066
:02118800000065
:02118900000064
:02118A00000063
:02118B00000062
:02118C00000061
:02118D00000060
:02118E0000005F
:02118F0000005E
:0211900000005D
:0211910000005C
:0211920000005B
:0211930000005A
:02119400000059
:02119500000058
:02119600000057
:02119700000056
:02119800000055
:02119900000054
:02119A00000053
:02119B00000052
:02119C00000051
:02119D00000050
:02119E0000004F
:02119F0000004E
:0211A00000004D
:0211A10000004C
:0211A20000004B
:0211A30000004A
:0211A400000049
:0211A500000048
:0211A600000047
:0211A700000046
:0211A800000045
:0211A900000044
:0211AA00000043
:0211AB00000042
:0211AC00000041
:0211AD00000040
:0211AE0000003F
:0211AF0000003E
:0211B00000003D
:0211B10000003C
:0211B20000003B
:0211B30000003A
:0211B400000039
:0211B500000038
:0211B600000037
:0211B700000036
:0211B800000035
:0211B900000034
:0211BA00000033
:0211BB00000032
:0211BC00000031
:0211BD00000030
:0211BE0000002F
:0211BF0000002E
:0211C00000002D
:0211C10000002C
:0211C20000002B
:0211C30000002A
:0211C400000029
:0211C500000028
:0211C600000027
:0211C700000026
:0211C800000025
:0211C900000024
:0211CA00000023
:0211CB00000022
:0211CC00000021
:0211CD00000020
:0211CE0000001F
:0211CF0000001E
:0211D00000001D
:0211D10000001C
:0211D20000001B
:0211D30000001A
:0211D400000019
:0211D500000018
:0211D600000017
:0211D700000016
:0211D800000015
:0211D900000014
:0211DA00000013
:0211DB00000012
:0211DC00000011
:0211DD00000010
:0211DE0000000F
:0211DF0000000E
:0211E00000000D
:0211E10000000C
:0211E20000000B
:0211E30000000A
:0211E400000009
:0211E500000008
:0211E600000007
:0211E700000006
:0211E800000005
:0211E900000004
:0211EA00000003
:0211EB00000002
:0211EC00000001
:0211ED00000000
:0211EE000000FF
:0211EF000000FE
:0211F0000000FD
:0211F1000000FC
:0211F2000000FB
:0211F3000000FA
:0211F4000000F9
:0211F5000000F8
:0211F6000000F7
:0211F7000000F6
:0211F8000000F5
:0211F9000000F4
:0211FA000000F3
:0211FB000000F2
:0211FC000000F1
:0211FD000000F0
:0211FE000000EF
:0211FF000000EE
:021200000000EC
:021201000000EB
:021202000000EA
:021203000000E9
:021204000000E8
:021205000000E7
:021206000000E6
:021207000000E5
:021208000000E4
:021209000000E3
:02120A000000E2
:02120B000000E1
:02120C000000E0
:02120D000000DF
:02120E000000DE
:02120F000000DD
:021210000000DC
:021211000000DB
:021212000000DA
:021213000000D9
:021214000000D8
:021215000000D7
:021216000000D6
:021217000000D5
:021218000000D4
:021219000000D3
:02121A000000D2
:02121B000000D1
:02121C000000D0
:02121D000000CF
:02121E000000CE
:02121F000000CD
:021220000000CC
:021221000000CB
:021222000000CA
:021223000000C9
:021224000000C8
:021225000000C7
:021226000000C6
:021227000000C5
:021228000000C4
:021229000000C3
:02122A000000C2
:02122B000000C1
:02122C000000C0
:02122D000000BF
:02122E000000BE
:02122F000000BD
:021230000000BC
:021231000000BB
:021232000000BA
:021233000000B9
:021234000000B8
:021235000000B7
:021236000000B6
:021237000000B5
:021238000000B4
:021239000000B3
:02123A000000B2
:02123B000000B1
:02123C000000B0
:02123D000000AF
:02123E000000AE
:02123F000000AD
:021240000000AC
:021241000000AB
:021242000000AA
:021243000000A9
:021244000000A8
:021245000000A7
:021246000000A6
:021247000000A5
:021248000000A4
:021249000000A3
:02124A000000A2
:02124B000000A1
:02124C000000A0
:02124D0000009F
:02124E0000009E
:02124F0000009D
:0212500000009C
:0212510000009B
:0212520000009A
:02125300000099
:02125400000098
:02125500000097
:02125600000096
:02125700000095
:02125800000094
:02125900000093
:02125A00000092
:02125B00000091
:02125C00000090
:02125D0000008F
:02125E0000008E
:02125F0000008D
:0212600000008C
:0212610000008B
:0212620000008A
:02126300000089
:02126400000088
:02126500000087
:02126600000086
:02126700000085
:02126800000084
:02126900000083
:02126A00000082
:02126B00000081
:02126C00000080
:02126D0000007F
:02126E0000007E
:02126F0000007D
:0212700000007C
:0212710000007B
:0212720000007A
:02127300000079
:02127400000078
:02127500000077
:02127600000076
:02127700000075
:02127800000074
:02127900000073
:02127A00000072
:02127B00000071
:02127C00000070
:02127D0000006F
:02127E0000006E
:02127F0000006D
:0212800000006C
:0212810000006B
:0212820000006A
:02128300000069
:02128400000068
:02128500000067
:02128600000066
:02128700000065
:02128800000064
:02128900000063
:02128A00000062
:02128B00000061
:02128C00000060
:02128D0000005F
:02128E0000005E
:02128F0000005D
:0212900000005C
:0212910000005B
:0212920000005A
:02129300000059
:02129400000058
:02129500000057
:02129600000056
:02129700000055
:02129800000054
:02129900000053
:02129A00000052
:02129B00000051
:02129C00000050
:02129D0000004F
:02129E0000004E
:02129F0000004D
:0212A00000004C
:0212A10000004B
:0212A20000004A
:0212A300000049
:0212A400000048
:0212A500000047
:0212A600000046
:0212A700000045
:0212A800000044
:0212A900000043
:0212AA00000042
:0212AB00000041
:0212AC00000040
:0212AD0000003F
:0212AE0000003E
:0212AF0000003D
:0212B00000003C
:0212B10000003B
:0212B20000003A
:0212B300000039
:0212B400000038
:0212B500000037
:0212B600000036
:0212B700000035
:0212B800000034
:0212B900000033
:0212BA00000032
:0212BB00000031
:0212BC00000030
:0212BD0000002F
:0212BE0000002E
:0212BF0000002D
:0212C00000002C
:0212C10000002B
:0212C20000002A
:0212C300000029
:0212C400000028
:0212C500000027
:0212C600000026
:0212C700000025
:0212C800000024
:0212C900000023
:0212CA00000022
:0212CB00000021
:0212CC00000020
:0212CD0000001F
:0212CE0000001E
:0212CF0000001D
:0212D00000001C
:0212D10000001B
:0212D20000001A
:0212D300000019
:0212D400000018
:0212D500000017
:0212D600000016
:0212D700000015
:0212D800000014
:0212D900000013
:0212DA00000012
:0212DB00000011
:0212DC00000010
:0212DD0000000F
:0212DE0000000E
:0212DF0000000D
:0212E00000000C
:0212E10000000B
:0212E20000000A
:0212E300000009
:0212E400000008
:0212E500000007
:0212E600000006
:0212E700000005
:0212E800000004
:0212E900000003
:0212EA00000002
:0212EB00000001
:0212EC00000000
:0212ED000000FF
:0212EE000000FE
:0212EF000000FD
:0212F0000000FC
:0212F1000000FB
:0212F2000000FA
:0212F3000000F9
:0212F4000000F8
:0212F5000000F7
:0212F6000000F6
:0212F7000000F5
:0212F8000000F4
:0212F9000000F3
:0212FA000000F2
:0212FB000000F1
:0212FC000000F0
:0212FD000000EF
:0212FE000000EE
:0212FF000000ED
:021300000000EB
:021301000000EA
:021302000000E9
:021303000000E8
:021304000000E7
:021305000000E6
:021306000000E5
:021307000000E4
:021308000000E3
:021309000000E2
:02130A000000E1
:02130B000000E0
:02130C000000DF
:02130D000000DE
:02130E000000DD
:02130F000000DC
:021310000000DB
:021311000000DA
:021312000000D9
:021313000000D8
:021314000000D7
:021315000000D6
:021316000000D5
:021317000000D4
:021318000000D3
:021319000000D2
:02131A000000D1
:02131B000000D0
:02131C000000CF
:02131D000000CE
:02131E000000CD
:02131F000000CC
:021320000000CB
:021321000000CA
:021322000000C9
:021323000000C8
:021324000000C7
:021325000000C6
:021326000000C5
:021327000000C4
:021328000000C3
:021329000000C2
:02132A000000C1
:02132B000000C0
:02132C000000BF
:02132D000000BE
:02132E000000BD
:02132F000000BC
:021330000000BB
:021331000000BA
:021332000000B9
:021333000000B8
:021334000000B7
:021335000000B6
:021336000000B5
:021337000000B4
:021338000000B3
:021339000000B2
:02133A000000B1
:02133B000000B0
:02133C000000AF
:02133D000000AE
:02133E000000AD
:02133F000000AC
:021340000000AB
:021341000000AA
:021342000000A9
:021343000000A8
:021344000000A7
:021345000000A6
:021346000000A5
:021347000000A4
:021348000000A3
:021349000000A2
:02134A000000A1
:02134B000000A0
:02134C0000009F
:02134D0000009E
:02134E0000009D
:02134F0000009C
:0213500000009B
:0213510000009A
:02135200000099
:02135300000098
:02135400000097
:02135500000096
:02135600000095
:02135700000094
:02135800000093
:02135900000092
:02135A00000091
:02135B00000090
:02135C0000008F
:02135D0000008E
:02135E0000008D
:02135F0000008C
:0213600000008B
:0213610000008A
:02136200000089
:02136300000088
:02136400000087
:02136500000086
:02136600000085
:02136700000084
:02136800000083
:02136900000082
:02136A00000081
:02136B00000080
:02136C0000007F
:02136D0000007E
:02136E0000007D
:02136F0000007C
:0213700000007B
:0213710000007A
:02137200000079
:02137300000078
:02137400000077
:02137500000076
:02137600000075
:02137700000074
:02137800000073
:02137900000072
:02137A00000071
:02137B00000070
:02137C0000006F
:02137D0000006E
:02137E0000006D
:02137F0000006C
:0213800000006B
:0213810000006A
:02138200000069
:02138300000068
:02138400000067
:02138500000066
:02138600000065
:02138700000064
:02138800000063
:02138900000062
:02138A00000061
:02138B00000060
:02138C0000005F
:02138D0000005E
:02138E0000005D
:02138F0000005C
:0213900000005B
:0213910000005A
:02139200000059
:02139300000058
:02139400000057
:02139500000056
:02139600000055
:02139700000054
:02139800000053
:02139900000052
:02139A00000051
:02139B00000050
:02139C0000004F
:02139D0000004E
:02139E0000004D
:02139F0000004C
:0213A00000004B
:0213A10000004A
:0213A200000049
:0213A300000048
:0213A400000047
:0213A500000046
:0213A600000045
:0213A700000044
:0213A800000043
:0213A900000042
:0213AA00000041
:0213AB00000040
:0213AC0000003F
:0213AD0000003E
:0213AE0000003D
:0213AF0000003C
:0213B00000003B
:0213B10000003A
:0213B200000039
:0213B300000038
:0213B400000037
:0213B500000036
:0213B600000035
:0213B700000034
:0213B800000033
:0213B900000032
:0213BA00000031
:0213BB00000030
:0213BC0000002F
:0213BD0000002E
:0213BE0000002D
:0213BF0000002C
:0213C00000002B
:0213C10000002A
:0213C200000029
:0213C300000028
:0213C400000027
:0213C500000026
:0213C600000025
:0213C700000024
:0213C800000023
:0213C900000022
:0213CA00000021
:0213CB00000020
:0213CC0000001F
:0213CD0000001E
:0213CE0000001D
:0213CF0000001C
:0213D00000001B
:0213D10000001A
:0213D200000019
:0213D300000018
:0213D400000017
:0213D500000016
:0213D600000015
:0213D700000014
:0213D800000013
:0213D900000012
:0213DA00000011
:0213DB00000010
:0213DC0000000F
:0213DD0000000E
:0213DE0000000D
:0213DF0000000C
:0213E00000000B
:0213E10000000A
:0213E200000009
:0213E300000008
:0213E400000007
:0213E500000006
:0213E600000005
:0213E700000004
:0213E800000003
:0213E900000002
:0213EA00000001
:0213EB00000000
:0213EC000000FF
:0213ED000000FE
:0213EE000000FD
:0213EF000000FC
:0213F0000000FB
:0213F1000000FA
:0213F2000000F9
:0213F3000000F8
:0213F4000000F7
:0213F5000000F6
:0213F6000000F5
:0213F7000000F4
:0213F8000000F3
:0213F9000000F2
:0213FA000000F1
:0213FB000000F0
:0213FC000000EF
:0213FD000000EE
:0213FE000000ED
:0213FF000000EC
:021400000000EA
:021401000000E9
:021402000000E8
:021403000000E7
:021404000000E6
:021405000000E5
:021406000000E4
:021407000000E3
:021408000000E2
:021409000000E1
:02140A000000E0
:02140B000000DF
:02140C000000DE
:02140D000000DD
:02140E000000DC
:02140F000000DB
:021410000000DA
:021411000000D9
:021412000000D8
:021413000000D7
:021414000000D6
:021415000000D5
:021416000000D4
:021417000000D3
:021418000000D2
:021419000000D1
:02141A000000D0
:02141B000000CF
:02141C000000CE
:02141D000000CD
:02141E000000CC
:02141F000000CB
:021420000000CA
:021421000000C9
:021422000000C8
:021423000000C7
:021424000000C6
:021425000000C5
:021426000000C4
:021427000000C3
:021428000000C2
:021429000000C1
:02142A000000C0
:02142B000000BF
:02142C000000BE
:02142D000000BD
:02142E000000BC
:02142F000000BB
:021430000000BA
:021431000000B9
:021432000000B8
:021433000000B7
:021434000000B6
:021435000000B5
:021436000000B4
:021437000000B3
:021438000000B2
:021439000000B1
:02143A000000B0
:02143B000000AF
:02143C000000AE
:02143D000000AD
:02143E000000AC
:02143F000000AB
:021440000000AA
:021441000000A9
:021442000000A8
:021443000000A7
:021444000000A6
:021445000000A5
:021446000000A4
:021447000000A3
:021448000000A2
:021449000000A1
:02144A000000A0
:02144B0000009F
:02144C0000009E
:02144D0000009D
:02144E0000009C
:02144F0000009B
:0214500000009A
:02145100000099
:02145200000098
:02145300000097
:02145400000096
:02145500000095
:02145600000094
:02145700000093
:02145800000092
:02145900000091
:02145A00000090
:02145B0000008F
:02145C0000008E
:02145D0000008D
:02145E0000008C
:02145F0000008B
:0214600000008A
:02146100000089
:02146200000088
:02146300000087
:02146400000086
:02146500000085
:02146600000084
:02146700000083
:02146800000082
:02146900000081
:02146A00000080
:02146B0000007F
:02146C0000007E
:02146D0000007D
:02146E0000007C
:02146F0000007B
:0214700000007A
:02147100000079
:02147200000078
:02147300000077
:02147400000076
:02147500000075
:02147600000074
:02147700000073
:02147800000072
:02147900000071
:02147A00000070
:02147B0000006F
:02147C0000006E
:02147D0000006D
:02147E0000006C
:02147F0000006B
:0214800000006A
:02148100000069
:02148200000068
:02148300000067
:02148400000066
:02148500000065
:02148600000064
:02148700000063
:02148800000062
:02148900000061
:02148A00000060
:02148B0000005F
:02148C0000005E
:02148D0000005D
:02148E0000005C
:02148F0000005B
:0214900000005A
:02149100000059
:02149200000058
:02149300000057
:02149400000056
:02149500000055
:02149600000054
:02149700000053
:02149800000052
:02149900000051
:02149A00000050
:02149B0000004F
:02149C0000004E
:02149D0000004D
:02149E0000004C
:02149F0000004B
:0214A00000004A
:0214A100000049
:0214A200000048
:0214A300000047
:0214A400000046
:0214A500000045
:0214A600000044
:0214A700000043
:0214A800000042
:0214A900000041
:0214AA00000040
:0214AB0000003F
:0214AC0000003E
:0214AD0000003D
:0214AE0000003C
:0214AF0000003B
:0214B00000003A
:0214B100000039
:0214B200000038
:0214B300000037
:0214B400000036
:0214B500000035
:0214B600000034
:0214B700000033
:0214B800000032
:0214B900000031
:0214BA00000030
:0214BB0000002F
:0214BC0000002E
:0214BD0000002D
:0214BE0000002C
:0214BF0000002B
:0214C00000002A
:0214C100000029
:0214C200000028
:0214C300000027
:0214C400000026
:0214C500000025
:0214C600000024
:0214C700000023
:0214C800000022
:0214C900000021
:0214CA00000020
:0214CB0000001F
:0214CC0000001E
:0214CD0000001D
:0214CE0000001C
:0214CF0000001B
:0214D00000001A
:0214D100000019
:0214D200000018
:0214D300000017
:0214D400000016
:0214D500000015
:0214D600000014
:0214D700000013
:0214D800000012
:0214D900000011
:0214DA00000010
:0214DB0000000F
:0214DC0000000E
:0214DD0000000D
:0214DE0000000C
:0214DF0000000B
:0214E00000000A
:0214E100000009
:0214E200000008
:0214E300000007
:0214E400000006
:0214E500000005
:0214E600000004
:0214E700000003
:0214E800000002
:0214E900000001
:0214EA00000000
:0214EB000000FF
:0214EC000000FE
:0214ED000000FD
:0214EE000000FC
:0214EF000000FB
:0214F0000000FA
:0214F1000000F9
:0214F2000000F8
:0214F3000000F7
:0214F4000000F6
:0214F5000000F5
:0214F6000000F4
:0214F7000000F3
:0214F8000000F2
:0214F9000000F1
:0214FA000000F0
:0214FB000000EF
:0214FC000000EE
:0214FD000000ED
:0214FE000000EC
:0214FF000000EB
:021500000000E9
:021501000000E8
:021502000000E7
:021503000000E6
:021504000000E5
:021505000000E4
:021506000000E3
:021507000000E2
:021508000000E1
:021509000000E0
:02150A000000DF
:02150B000000DE
:02150C000000DD
:02150D000000DC
:02150E000000DB
:02150F000000DA
:021510000000D9
:021511000000D8
:021512000000D7
:021513000000D6
:021514000000D5
:021515000000D4
:021516000000D3
:021517000000D2
:021518000000D1
:021519000000D0
:02151A000000CF
:02151B000000CE
:02151C000000CD
:02151D000000CC
:02151E000000CB
:02151F000000CA
:021520000000C9
:021521000000C8
:021522000000C7
:021523000000C6
:021524000000C5
:021525000000C4
:021526000000C3
:021527000000C2
:021528000000C1
:021529000000C0
:02152A000000BF
:02152B000000BE
:02152C000000BD
:02152D000000BC
:02152E000000BB
:02152F000000BA
:021530000000B9
:021531000000B8
:021532000000B7
:021533000000B6
:021534000000B5
:021535000000B4
:021536000000B3
:021537000000B2
:021538000000B1
:021539000000B0
:02153A000000AF
:02153B000000AE
:02153C000000AD
:02153D000000AC
:02153E000000AB
:02153F000000AA
:021540000000A9
:021541000000A8
:021542000000A7
:021543000000A6
:021544000000A5
:021545000000A4
:021546000000A3
:021547000000A2
:021548000000A1
:021549000000A0
:02154A0000009F
:02154B0000009E
:02154C0000009D
:02154D0000009C
:02154E0000009B
:02154F0000009A
:02155000000099
:02155100000098
:02155200000097
:02155300000096
:02155400000095
:02155500000094
:02155600000093
:02155700000092
:02155800000091
:02155900000090
:02155A0000008F
:02155B0000008E
:02155C0000008D
:02155D0000008C
:02155E0000008B
:02155F0000008A
:02156000000089
:02156100000088
:02156200000087
:02156300000086
:02156400000085
:02156500000084
:02156600000083
:02156700000082
:02156800000081
:02156900000080
:02156A0000007F
:02156B0000007E
:02156C0000007D
:02156D0000007C
:02156E0000007B
:02156F0000007A
:02157000000079
:02157100000078
:02157200000077
:02157300000076
:02157400000075
:02157500000074
:02157600000073
:02157700000072
:02157800000071
:02157900000070
:02157A0000006F
:02157B0000006E
:02157C0000006D
:02157D0000006C
:02157E0000006B
:02157F0000006A
:02158000000069
:02158100000068
:02158200000067
:02158300000066
:02158400000065
:02158500000064
:02158600000063
:02158700000062
:02158800000061
:02158900000060
:02158A0000005F
:02158B0000005E
:02158C0000005D
:02158D0000005C
:02158E0000005B
:02158F0000005A
:02159000000059
:02159100000058
:02159200000057
:02159300000056
:02159400000055
:02159500000054
:02159600000053
:02159700000052
:02159800000051
:02159900000050
:02159A0000004F
:02159B0000004E
:02159C0000004D
:02159D0000004C
:02159E0000004B
:02159F0000004A
:0215A000000049
:0215A100000048
:0215A200000047
:0215A300000046
:0215A400000045
:0215A500000044
:0215A600000043
:0215A700000042
:0215A800000041
:0215A900000040
:0215AA0000003F
:0215AB0000003E
:0215AC0000003D
:0215AD0000003C
:0215AE0000003B
:0215AF0000003A
:0215B000000039
:0215B100000038
:0215B200000037
:0215B300000036
:0215B400000035
:0215B500000034
:0215B600000033
:0215B700000032
:0215B800000031
:0215B900000030
:0215BA0000002F
:0215BB0000002E
:0215BC0000002D
:0215BD0000002C
:0215BE0000002B
:0215BF0000002A
:0215C000000029
:0215C100000028
:0215C200000027
:0215C300000026
:0215C400000025
:0215C500000024
:0215C600000023
:0215C700000022
:0215C800000021
:0215C900000020
:0215CA0000001F
:0215CB0000001E
:0215CC0000001D
:0215CD0000001C
:0215CE0000001B
:0215CF0000001A
:0215D000000019
:0215D100000018
:0215D200000017
:0215D300000016
:0215D400000015
:0215D500000014
:0215D600000013
:0215D700000012
:0215D800000011
:0215D900000010
:0215DA0000000F
:0215DB0000000E
:0215DC0000000D
:0215DD0000000C
:0215DE0000000B
:0215DF0000000A
:0215E000000009
:0215E100000008
:0215E200000007
:0215E300000006
:0215E400000005
:0215E500000004
:0215E600000003
:0215E700000002
:0215E800000001
:0215E900000000
:0215EA000000FF
:0215EB000000FE
:0215EC000000FD
:0215ED000000FC
:0215EE000000FB
:0215EF000000FA
:0215F0000000F9
:0215F1000000F8
:0215F2000000F7
:0215F3000000F6
:0215F4000000F5
:0215F5000000F4
:0215F6000000F3
:0215F7000000F2
:0215F8000000F1
:0215F9000000F0
:0215FA000000EF
:0215FB000000EE
:0215FC000000ED
:0215FD000000EC
:0215FE000000EB
:0215FF000000EA
:021600000000E8
:021601000000E7
:021602000000E6
:021603000000E5
:021604000000E4
:021605000000E3
:021606000000E2
:021607000000E1
:021608000000E0
:021609000000DF
:02160A000000DE
:02160B000000DD
:02160C000000DC
:02160D000000DB
:02160E000000DA
:02160F000000D9
:021610000000D8
:021611000000D7
:021612000000D6
:021613000000D5
:021614000000D4
:021615000000D3
:021616000000D2
:021617000000D1
:021618000000D0
:021619000000CF
:02161A000000CE
:02161B000000CD
:02161C000000CC
:02161D000000CB
:02161E000000CA
:02161F000000C9
:021620000000C8
:021621000000C7
:021622000000C6
:021623000000C5
:021624000000C4
:021625000000C3
:021626000000C2
:021627000000C1
:021628000000C0
:021629000000BF
:02162A000000BE
:02162B000000BD
:02162C000000BC
:02162D000000BB
:02162E000000BA
:02162F000000B9
:021630000000B8
:021631000000B7
:021632000000B6
:021633000000B5
:021634000000B4
:021635000000B3
:021636000000B2
:021637000000B1
:021638000000B0
:021639000000AF
:02163A000000AE
:02163B000000AD
:02163C000000AC
:02163D000000AB
:02163E000000AA
:02163F000000A9
:021640000000A8
:021641000000A7
:021642000000A6
:021643000000A5
:021644000000A4
:021645000000A3
:021646000000A2
:021647000000A1
:021648000000A0
:0216490000009F
:02164A0000009E
:02164B0000009D
:02164C0000009C
:02164D0000009B
:02164E0000009A
:02164F00000099
:02165000000098
:02165100000097
:02165200000096
:02165300000095
:02165400000094
:02165500000093
:02165600000092
:02165700000091
:02165800000090
:0216590000008F
:02165A0000008E
:02165B0000008D
:02165C0000008C
:02165D0000008B
:02165E0000008A
:02165F00000089
:02166000000088
:02166100000087
:02166200000086
:02166300000085
:02166400000084
:02166500000083
:02166600000082
:02166700000081
:02166800000080
:0216690000007F
:02166A0000007E
:02166B0000007D
:02166C0000007C
:02166D0000007B
:02166E0000007A
:02166F00000079
:02167000000078
:02167100000077
:02167200000076
:02167300000075
:02167400000074
:02167500000073
:02167600000072
:02167700000071
:02167800000070
:0216790000006F
:02167A0000006E
:02167B0000006D
:02167C0000006C
:02167D0000006B
:02167E0000006A
:02167F00000069
:02168000000068
:02168100000067
:02168200000066
:02168300000065
:02168400000064
:02168500000063
:02168600000062
:02168700000061
:02168800000060
:0216890000005F
:02168A0000005E
:02168B0000005D
:02168C0000005C
:02168D0000005B
:02168E0000005A
:02168F00000059
:02169000000058
:02169100000057
:02169200000056
:02169300000055
:02169400000054
:02169500000053
:02169600000052
:02169700000051
:02169800000050
:0216990000004F
:02169A0000004E
:02169B0000004D
:02169C0000004C
:02169D0000004B
:02169E0000004A
:02169F00000049
:0216A000000048
:0216A100000047
:0216A200000046
:0216A300000045
:0216A400000044
:0216A500000043
:0216A600000042
:0216A700000041
:0216A800000040
:0216A90000003F
:0216AA0000003E
:0216AB0000003D
:0216AC0000003C
:0216AD0000003B
:0216AE0000003A
:0216AF00000039
:0216B000000038
:0216B100000037
:0216B200000036
:0216B300000035
:0216B400000034
:0216B500000033
:0216B600000032
:0216B700000031
:0216B800000030
:0216B90000002F
:0216BA0000002E
:0216BB0000002D
:0216BC0000002C
:0216BD0000002B
:0216BE0000002A
:0216BF00000029
:0216C000000028
:0216C100000027
:0216C200000026
:0216C300000025
:0216C400000024
:0216C500000023
:0216C600000022
:0216C700000021
:0216C800000020
:0216C90000001F
:0216CA0000001E
:0216CB0000001D
:0216CC0000001C
:0216CD0000001B
:0216CE0000001A
:0216CF00000019
:0216D000000018
:0216D100000017
:0216D200000016
:0216D300000015
:0216D400000014
:0216D500000013
:0216D600000012
:0216D700000011
:0216D800000010
:0216D90000000F
:0216DA0000000E
:0216DB0000000D
:0216DC0000000C
:0216DD0000000B
:0216DE0000000A
:0216DF00000009
:0216E000000008
:0216E100000007
:0216E200000006
:0216E300000005
:0216E400000004
:0216E500000003
:0216E600000002
:0216E700000001
:0216E800000000
:0216E9000000FF
:0216EA000000FE
:0216EB000000FD
:0216EC000000FC
:0216ED000000FB
:0216EE000000FA
:0216EF000000F9
:0216F0000000F8
:0216F1000000F7
:0216F2000000F6
:0216F3000000F5
:0216F4000000F4
:0216F5000000F3
:0216F6000000F2
:0216F7000000F1
:0216F8000000F0
:0216F9000000EF
:0216FA000000EE
:0216FB000000ED
:0216FC000000EC
:0216FD000000EB
:0216FE000000EA
:0216FF000000E9
:021700000000E7
:021701000000E6
:021702000000E5
:021703000000E4
:021704000000E3
:021705000000E2
:021706000000E1
:021707000000E0
:021708000000DF
:021709000000DE
:02170A000000DD
:02170B000000DC
:02170C000000DB
:02170D000000DA
:02170E000000D9
:02170F000000D8
:021710000000D7
:021711000000D6
:021712000000D5
:021713000000D4
:021714000000D3
:021715000000D2
:021716000000D1
:021717000000D0
:021718000000CF
:021719000000CE
:02171A000000CD
:02171B000000CC
:02171C000000CB
:02171D000000CA
:02171E000000C9
:02171F000000C8
:021720000000C7
:021721000000C6
:021722000000C5
:021723000000C4
:021724000000C3
:021725000000C2
:021726000000C1
:021727000000C0
:021728000000BF
:021729000000BE
:02172A000000BD
:02172B000000BC
:02172C000000BB
:02172D000000BA
:02172E000000B9
:02172F000000B8
:021730000000B7
:021731000000B6
:021732000000B5
:021733000000B4
:021734000000B3
:021735000000B2
:021736000000B1
:021737000000B0
:021738000000AF
:021739000000AE
:02173A000000AD
:02173B000000AC
:02173C000000AB
:02173D000000AA
:02173E000000A9
:02173F000000A8
:021740000000A7
:021741000000A6
:021742000000A5
:021743000000A4
:021744000000A3
:021745000000A2
:021746000000A1
:021747000000A0
:0217480000009F
:0217490000009E
:02174A0000009D
:02174B0000009C
:02174C0000009B
:02174D0000009A
:02174E00000099
:02174F00000098
:02175000000097
:02175100000096
:02175200000095
:02175300000094
:02175400000093
:02175500000092
:02175600000091
:02175700000090
:0217580000008F
:0217590000008E
:02175A0000008D
:02175B0000008C
:02175C0000008B
:02175D0000008A
:02175E00000089
:02175F00000088
:02176000000087
:02176100000086
:02176200000085
:02176300000084
:02176400000083
:02176500000082
:02176600000081
:02176700000080
:0217680000007F
:0217690000007E
:02176A0000007D
:02176B0000007C
:02176C0000007B
:02176D0000007A
:02176E00000079
:02176F00000078
:02177000000077
:02177100000076
:02177200000075
:02177300000074
:02177400000073
:02177500000072
:02177600000071
:02177700000070
:0217780000006F
:0217790000006E
:02177A0000006D
:02177B0000006C
:02177C0000006B
:02177D0000006A
:02177E00000069
:02177F00000068
:02178000000067
:02178100000066
:02178200000065
:02178300000064
:02178400000063
:02178500000062
:02178600000061
:02178700000060
:0217880000005F
:0217890000005E
:02178A0000005D
:02178B0000005C
:02178C0000005B
:02178D0000005A
:02178E00000059
:02178F00000058
:02179000000057
:02179100000056
:02179200000055
:02179300000054
:02179400000053
:02179500000052
:02179600000051
:02179700000050
:0217980000004F
:0217990000004E
:02179A0000004D
:02179B0000004C
:02179C0000004B
:02179D0000004A
:02179E00000049
:02179F00000048
:0217A000000047
:0217A100000046
:0217A200000045
:0217A300000044
:0217A400000043
:0217A500000042
:0217A600000041
:0217A700000040
:0217A80000003F
:0217A90000003E
:0217AA0000003D
:0217AB0000003C
:0217AC0000003B
:0217AD0000003A
:0217AE00000039
:0217AF00000038
:0217B000000037
:0217B100000036
:0217B200000035
:0217B300000034
:0217B400000033
:0217B500000032
:0217B600000031
:0217B700000030
:0217B80000002F
:0217B90000002E
:0217BA0000002D
:0217BB0000002C
:0217BC0000002B
:0217BD0000002A
:0217BE00000029
:0217BF00000028
:0217C000000027
:0217C100000026
:0217C200000025
:0217C300000024
:0217C400000023
:0217C500000022
:0217C600000021
:0217C700000020
:0217C80000001F
:0217C90000001E
:0217CA0000001D
:0217CB0000001C
:0217CC0000001B
:0217CD0000001A
:0217CE00000019
:0217CF00000018
:0217D000000017
:0217D100000016
:0217D200000015
:0217D300000014
:0217D400000013
:0217D500000012
:0217D600000011
:0217D700000010
:0217D80000000F
:0217D90000000E
:0217DA0000000D
:0217DB0000000C
:0217DC0000000B
:0217DD0000000A
:0217DE00000009
:0217DF00000008
:0217E000000007
:0217E100000006
:0217E200000005
:0217E300000004
:0217E400000003
:0217E500000002
:0217E600000001
:0217E700000000
:0217E8000000FF
:0217E9000000FE
:0217EA000000FD
:0217EB000000FC
:0217EC000000FB
:0217ED000000FA
:0217EE000000F9
:0217EF000000F8
:0217F0000000F7
:0217F1000000F6
:0217F2000000F5
:0217F3000000F4
:0217F4000000F3
:0217F5000000F2
:0217F6000000F1
:0217F7000000F0
:0217F8000000EF
:0217F9000000EE
:0217FA000000ED
:0217FB000000EC
:0217FC000000EB
:0217FD000000EA
:0217FE000000E9
:0217FF000000E8
:021800000000E6
:021801000000E5
:021802000000E4
:021803000000E3
:021804000000E2
:021805000000E1
:021806000000E0
:021807000000DF
:021808000000DE
:021809000000DD
:02180A000000DC
:02180B000000DB
:02180C000000DA
:02180D000000D9
:02180E000000D8
:02180F000000D7
:021810000000D6
:021811000000D5
:021812000000D4
:021813000000D3
:021814000000D2
:021815000000D1
:021816000000D0
:021817000000CF
:021818000000CE
:021819000000CD
:02181A000000CC
:02181B000000CB
:02181C000000CA
:02181D000000C9
:02181E000000C8
:02181F000000C7
:021820000000C6
:021821000000C5
:021822000000C4
:021823000000C3
:021824000000C2
:021825000000C1
:021826000000C0
:021827000000BF
:021828000000BE
:021829000000BD
:02182A000000BC
:02182B000000BB
:02182C000000BA
:02182D000000B9
:02182E000000B8
:02182F000000B7
:021830000000B6
:021831000000B5
:021832000000B4
:021833000000B3
:021834000000B2
:021835000000B1
:021836000000B0
:021837000000AF
:021838000000AE
:021839000000AD
:02183A000000AC
:02183B000000AB
:02183C000000AA
:02183D000000A9
:02183E000000A8
:02183F000000A7
:021840000000A6
:021841000000A5
:021842000000A4
:021843000000A3
:021844000000A2
:021845000000A1
:021846000000A0
:0218470000009F
:0218480000009E
:0218490000009D
:02184A0000009C
:02184B0000009B
:02184C0000009A
:02184D00000099
:02184E00000098
:02184F00000097
:02185000000096
:02185100000095
:02185200000094
:02185300000093
:02185400000092
:02185500000091
:02185600000090
:0218570000008F
:0218580000008E
:0218590000008D
:02185A0000008C
:02185B0000008B
:02185C0000008A
:02185D00000089
:02185E00000088
:02185F00000087
:02186000000086
:02186100000085
:02186200000084
:02186300000083
:02186400000082
:02186500000081
:02186600000080
:0218670000007F
:0218680000007E
:0218690000007D
:02186A0000007C
:02186B0000007B
:02186C0000007A
:02186D00000079
:02186E00000078
:02186F00000077
:02187000000076
:02187100000075
:02187200000074
:02187300000073
:02187400000072
:02187500000071
:02187600000070
:0218770000006F
:0218780000006E
:0218790000006D
:02187A0000006C
:02187B0000006B
:02187C0000006A
:02187D00000069
:02187E00000068
:02187F00000067
:02188000000066
:02188100000065
:02188200000064
:02188300000063
:02188400000062
:02188500000061
:02188600000060
:0218870000005F
:0218880000005E
:0218890000005D
:02188A0000005C
:02188B0000005B
:02188C0000005A
:02188D00000059
:02188E00000058
:02188F00000057
:02189000000056
:02189100000055
:02189200000054
:02189300000053
:02189400000052
:02189500000051
:02189600000050
:0218970000004F
:0218980000004E
:0218990000004D
:02189A0000004C
:02189B0000004B
:02189C0000004A
:02189D00000049
:02189E00000048
:02189F00000047
:0218A000000046
:0218A100000045
:0218A200000044
:0218A300000043
:0218A400000042
:0218A500000041
:0218A600000040
:0218A70000003F
:0218A80000003E
:0218A90000003D
:0218AA0000003C
:0218AB0000003B
:0218AC0000003A
:0218AD00000039
:0218AE00000038
:0218AF00000037
:0218B000000036
:0218B100000035
:0218B200000034
:0218B300000033
:0218B400000032
:0218B500000031
:0218B600000030
:0218B70000002F
:0218B80000002E
:0218B90000002D
:0218BA0000002C
:0218BB0000002B
:0218BC0000002A
:0218BD00000029
:0218BE00000028
:0218BF00000027
:0218C000000026
:0218C100000025
:0218C200000024
:0218C300000023
:0218C400000022
:0218C500000021
:0218C600000020
:0218C70000001F
:0218C80000001E
:0218C90000001D
:0218CA0000001C
:0218CB0000001B
:0218CC0000001A
:0218CD00000019
:0218CE00000018
:0218CF00000017
:0218D000000016
:0218D100000015
:0218D200000014
:0218D300000013
:0218D400000012
:0218D500000011
:0218D600000010
:0218D70000000F
:0218D80000000E
:0218D90000000D
:0218DA0000000C
:0218DB0000000B
:0218DC0000000A
:0218DD00000009
:0218DE00000008
:0218DF00000007
:0218E000000006
:0218E100000005
:0218E200000004
:0218E300000003
:0218E400000002
:0218E500000001
:0218E600000000
:0218E7000000FF
:0218E8000000FE
:0218E9000000FD
:0218EA000000FC
:0218EB000000FB
:0218EC000000FA
:0218ED000000F9
:0218EE000000F8
:0218EF000000F7
:0218F0000000F6
:0218F1000000F5
:0218F2000000F4
:0218F3000000F3
:0218F4000000F2
:0218F5000000F1
:0218F6000000F0
:0218F7000000EF
:0218F8000000EE
:0218F9000000ED
:0218FA000000EC
:0218FB000000EB
:0218FC000000EA
:0218FD000000E9
:0218FE000000E8
:0218FF000000E7
:021900000000E5
:021901000000E4
:021902000000E3
:021903000000E2
:021904000000E1
:021905000000E0
:021906000000DF
:021907000000DE
:021908000000DD
:021909000000DC
:02190A000000DB
:02190B000000DA
:02190C000000D9
:02190D000000D8
:02190E000000D7
:02190F000000D6
:021910000000D5
:021911000000D4
:021912000000D3
:021913000000D2
:021914000000D1
:021915000000D0
:021916000000CF
:021917000000CE
:021918000000CD
:021919000000CC
:02191A000000CB
:02191B000000CA
:02191C000000C9
:02191D000000C8
:02191E000000C7
:02191F000000C6
:021920000000C5
:021921000000C4
:021922000000C3
:021923000000C2
:021924000000C1
:021925000000C0
:021926000000BF
:021927000000BE
:021928000000BD
:021929000000BC
:02192A000000BB
:02192B000000BA
:02192C000000B9
:02192D000000B8
:02192E000000B7
:02192F000000B6
:021930000000B5
:021931000000B4
:021932000000B3
:021933000000B2
:021934000000B1
:021935000000B0
:021936000000AF
:021937000000AE
:021938000000AD
:021939000000AC
:02193A000000AB
:02193B000000AA
:02193C000000A9
:02193D000000A8
:02193E000000A7
:02193F000000A6
:021940000000A5
:021941000000A4
:021942000000A3
:021943000000A2
:021944000000A1
:021945000000A0
:0219460000009F
:0219470000009E
:0219480000009D
:0219490000009C
:02194A0000009B
:02194B0000009A
:02194C00000099
:02194D00000098
:02194E00000097
:02194F00000096
:02195000000095
:02195100000094
:02195200000093
:02195300000092
:02195400000091
:02195500000090
:0219560000008F
:0219570000008E
:0219580000008D
:0219590000008C
:02195A0000008B
:02195B0000008A
:02195C00000089
:02195D00000088
:02195E00000087
:02195F00000086
:02196000000085
:02196100000084
:02196200000083
:02196300000082
:02196400000081
:02196500000080
:0219660000007F
:0219670000007E
:0219680000007D
:0219690000007C
:02196A0000007B
:02196B0000007A
:02196C00000079
:02196D00000078
:02196E00000077
:02196F00000076
:02197000000075
:02197100000074
:02197200000073
:02197300000072
:02197400000071
:02197500000070
:0219760000006F
:0219770000006E
:0219780000006D
:0219790000006C
:02197A0000006B
:02197B0000006A
:02197C00000069
:02197D00000068
:02197E00000067
:02197F00000066
:02198000000065
:02198100000064
:02198200000063
:02198300000062
:02198400000061
:02198500000060
:0219860000005F
:0219870000005E
:0219880000005D
:0219890000005C
:02198A0000005B
:02198B0000005A
:02198C00000059
:02198D00000058
:02198E00000057
:02198F00000056
:02199000000055
:02199100000054
:02199200000053
:02199300000052
:02199400000051
:02199500000050
:0219960000004F
:0219970000004E
:0219980000004D
:0219990000004C
:02199A0000004B
:02199B0000004A
:02199C00000049
:02199D00000048
:02199E00000047
:02199F00000046
:0219A000000045
:0219A100000044
:0219A200000043
:0219A300000042
:0219A400000041
:0219A500000040
:0219A60000003F
:0219A70000003E
:0219A80000003D
:0219A90000003C
:0219AA0000003B
:0219AB0000003A
:0219AC00000039
:0219AD00000038
:0219AE00000037
:0219AF00000036
:0219B000000035
:0219B100000034
:0219B200000033
:0219B300000032
:0219B400000031
:0219B500000030
:0219B60000002F
:0219B70000002E
:0219B80000002D
:0219B90000002C
:0219BA0000002B
:0219BB0000002A
:0219BC00000029
:0219BD00000028
:0219BE00000027
:0219BF00000026
:0219C000000025
:0219C100000024
:0219C200000023
:0219C300000022
:0219C400000021
:0219C500000020
:0219C60000001F
:0219C70000001E
:0219C80000001D
:0219C90000001C
:0219CA0000001B
:0219CB0000001A
:0219CC00000019
:0219CD00000018
:0219CE00000017
:0219CF00000016
:0219D000000015
:0219D100000014
:0219D200000013
:0219D300000012
:0219D400000011
:0219D500000010
:0219D60000000F
:0219D70000000E
:0219D80000000D
:0219D90000000C
:0219DA0000000B
:0219DB0000000A
:0219DC00000009
:0219DD00000008
:0219DE00000007
:0219DF00000006
:0219E000000005
:0219E100000004
:0219E200000003
:0219E300000002
:0219E400000001
:0219E500000000
:0219E6000000FF
:0219E7000000FE
:0219E8000000FD
:0219E9000000FC
:0219EA000000FB
:0219EB000000FA
:0219EC000000F9
:0219ED000000F8
:0219EE000000F7
:0219EF000000F6
:0219F0000000F5
:0219F1000000F4
:0219F2000000F3
:0219F3000000F2
:0219F4000000F1
:0219F5000000F0
:0219F6000000EF
:0219F7000000EE
:0219F8000000ED
:0219F9000000EC
:0219FA000000EB
:0219FB000000EA
:0219FC000000E9
:0219FD000000E8
:0219FE000000E7
:0219FF000000E6
:021A00000000E4
:021A01000000E3
:021A02000000E2
:021A03000000E1
:021A04000000E0
:021A05000000DF
:021A06000000DE
:021A07000000DD
:021A08000000DC
:021A09000000DB
:021A0A000000DA
:021A0B000000D9
:021A0C000000D8
:021A0D000000D7
:021A0E000000D6
:021A0F000000D5
:021A10000000D4
:021A11000000D3
:021A12000000D2
:021A13000000D1
:021A14000000D0
:021A15000000CF
:021A16000000CE
:021A17000000CD
:021A18000000CC
:021A19000000CB
:021A1A000000CA
:021A1B000000C9
:021A1C000000C8
:021A1D000000C7
:021A1E000000C6
:021A1F000000C5
:021A20000000C4
:021A21000000C3
:021A22000000C2
:021A23000000C1
:021A24000000C0
:021A25000000BF
:021A26000000BE
:021A27000000BD
:021A28000000BC
:021A29000000BB
:021A2A000000BA
:021A2B000000B9
:021A2C000000B8
:021A2D000000B7
:021A2E000000B6
:021A2F000000B5
:021A30000000B4
:021A31000000B3
:021A32000000B2
:021A33000000B1
:021A34000000B0
:021A35000000AF
:021A36000000AE
:021A37000000AD
:021A38000000AC
:021A39000000AB
:021A3A000000AA
:021A3B000000A9
:021A3C000000A8
:021A3D000000A7
:021A3E000000A6
:021A3F000000A5
:021A40000000A4
:021A41000000A3
:021A42000000A2
:021A43000000A1
:021A44000000A0
:021A450000009F
:021A460000009E
:021A470000009D
:021A480000009C
:021A490000009B
:021A4A0000009A
:021A4B00000099
:021A4C00000098
:021A4D00000097
:021A4E00000096
:021A4F00000095
:021A5000000094
:021A5100000093
:021A5200000092
:021A5300000091
:021A5400000090
:021A550000008F
:021A560000008E
:021A570000008D
:021A580000008C
:021A590000008B
:021A5A0000008A
:021A5B00000089
:021A5C00000088
:021A5D00000087
:021A5E00000086
:021A5F00000085
:021A6000000084
:021A6100000083
:021A6200000082
:021A6300000081
:021A6400000080
:021A650000007F
:021A660000007E
:021A670000007D
:021A680000007C
:021A690000007B
:021A6A0000007A
:021A6B00000079
:021A6C00000078
:021A6D00000077
:021A6E00000076
:021A6F00000075
:021A7000000074
:021A7100000073
:021A7200000072
:021A7300000071
:021A7400000070
:021A750000006F
:021A760000006E
:021A770000006D
:021A780000006C
:021A790000006B
:021A7A0000006A
:021A7B00000069
:021A7C00000068
:021A7D00000067
:021A7E00000066
:021A7F00000065
:021A8000000064
:021A8100000063
:021A8200000062
:021A8300000061
:021A8400000060
:021A850000005F
:021A860000005E
:021A870000005D
:021A880000005C
:021A890000005B
:021A8A0000005A
:021A8B00000059
:021A8C00000058
:021A8D00000057
:021A8E00000056
:021A8F00000055
:021A9000000054
:021A9100000053
:021A9200000052
:021A9300000051
:021A9400000050
:021A950000004F
:021A960000004E
:021A970000004D
:021A980000004C
:021A990000004B
:021A9A0000004A
:021A9B00000049
:021A9C00000048
:021A9D00000047
:021A9E00000046
:021A9F00000045
:021AA000000044
:021AA100000043
:021AA200000042
:021AA300000041
:021AA400000040
:021AA50000003F
:021AA60000003E
:021AA70000003D
:021AA80000003C
:021AA90000003B
:021AAA0000003A
:021AAB00000039
:021AAC00000038
:021AAD00000037
:021AAE00000036
:021AAF00000035
:021AB000000034
:021AB100000033
:021AB200000032
:021AB300000031
:021AB400000030
:021AB50000002F
:021AB60000002E
:021AB70000002D
:021AB80000002C
:021AB90000002B
:021ABA0000002A
:021ABB00000029
:021ABC00000028
:021ABD00000027
:021ABE00000026
:021ABF00000025
:021AC000000024
:021AC100000023
:021AC200000022
:021AC300000021
:021AC400000020
:021AC50000001F
:021AC60000001E
:021AC70000001D
:021AC80000001C
:021AC90000001B
:021ACA0000001A
:021ACB00000019
:021ACC00000018
:021ACD00000017
:021ACE00000016
:021ACF00000015
:021AD000000014
:021AD100000013
:021AD200000012
:021AD300000011
:021AD400000010
:021AD50000000F
:021AD60000000E
:021AD70000000D
:021AD80000000C
:021AD90000000B
:021ADA0000000A
:021ADB00000009
:021ADC00000008
:021ADD00000007
:021ADE00000006
:021ADF00000005
:021AE000000004
:021AE100000003
:021AE200000002
:021AE300000001
:021AE400000000
:021AE5000000FF
:021AE6000000FE
:021AE7000000FD
:021AE8000000FC
:021AE9000000FB
:021AEA000000FA
:021AEB000000F9
:021AEC000000F8
:021AED000000F7
:021AEE000000F6
:021AEF000000F5
:021AF0000000F4
:021AF1000000F3
:021AF2000000F2
:021AF3000000F1
:021AF4000000F0
:021AF5000000EF
:021AF6000000EE
:021AF7000000ED
:021AF8000000EC
:021AF9000000EB
:021AFA000000EA
:021AFB000000E9
:021AFC000000E8
:021AFD000000E7
:021AFE000000E6
:021AFF000000E5
:021B00000000E3
:021B01000000E2
:021B02000000E1
:021B03000000E0
:021B04000000DF
:021B05000000DE
:021B06000000DD
:021B07000000DC
:021B08000000DB
:021B09000000DA
:021B0A000000D9
:021B0B000000D8
:021B0C000000D7
:021B0D000000D6
:021B0E000000D5
:021B0F000000D4
:021B10000000D3
:021B11000000D2
:021B12000000D1
:021B13000000D0
:021B14000000CF
:021B15000000CE
:021B16000000CD
:021B17000000CC
:021B18000000CB
:021B19000000CA
:021B1A000000C9
:021B1B000000C8
:021B1C000000C7
:021B1D000000C6
:021B1E000000C5
:021B1F000000C4
:021B20000000C3
:021B21000000C2
:021B22000000C1
:021B23000000C0
:021B24000000BF
:021B25000000BE
:021B26000000BD
:021B27000000BC
:021B28000000BB
:021B29000000BA
:021B2A000000B9
:021B2B000000B8
:021B2C000000B7
:021B2D000000B6
:021B2E000000B5
:021B2F000000B4
:021B30000000B3
:021B31000000B2
:021B32000000B1
:021B33000000B0
:021B34000000AF
:021B35000000AE
:021B36000000AD
:021B37000000AC
:021B38000000AB
:021B39000000AA
:021B3A000000A9
:021B3B000000A8
:021B3C000000A7
:021B3D000000A6
:021B3E000000A5
:021B3F000000A4
:021B40000000A3
:021B41000000A2
:021B42000000A1
:021B43000000A0
:021B440000009F
:021B450000009E
:021B460000009D
:021B470000009C
:021B480000009B
:021B490000009A
:021B4A00000099
:021B4B00000098
:021B4C00000097
:021B4D00000096
:021B4E00000095
:021B4F00000094
:021B5000000093
:021B5100000092
:021B5200000091
:021B5300000090
:021B540000008F
:021B550000008E
:021B560000008D
:021B570000008C
:021B580000008B
:021B590000008A
:021B5A00000089
:021B5B00000088
:021B5C00000087
:021B5D00000086
:021B5E00000085
:021B5F00000084
:021B6000000083
:021B6100000082
:021B6200000081
:021B6300000080
:021B640000007F
:021B650000007E
:021B660000007D
:021B670000007C
:021B680000007B
:021B690000007A
:021B6A00000079
:021B6B00000078
:021B6C00000077
:021B6D00000076
:021B6E00000075
:021B6F00000074
:021B7000000073
:021B7100000072
:021B7200000071
:021B7300000070
:021B740000006F
:021B750000006E
:021B760000006D
:021B770000006C
:021B780000006B
:021B790000006A
:021B7A00000069
:021B7B00000068
:021B7C00000067
:021B7D00000066
:021B7E00000065
:021B7F00000064
:021B8000000063
:021B8100000062
:021B8200000061
:021B8300000060
:021B840000005F
:021B850000005E
:021B860000005D
:021B870000005C
:021B880000005B
:021B890000005A
:021B8A00000059
:021B8B00000058
:021B8C00000057
:021B8D00000056
:021B8E00000055
:021B8F00000054
:021B9000000053
:021B9100000052
:021B9200000051
:021B9300000050
:021B940000004F
:021B950000004E
:021B960000004D
:021B970000004C
:021B980000004B
:021B990000004A
:021B9A00000049
:021B9B00000048
:021B9C00000047
:021B9D00000046
:021B9E00000045
:021B9F00000044
:021BA000000043
:021BA100000042
:021BA200000041
:021BA300000040
:021BA40000003F
:021BA50000003E
:021BA60000003D
:021BA70000003C
:021BA80000003B
:021BA90000003A
:021BAA00000039
:021BAB00000038
:021BAC00000037
:021BAD00000036
:021BAE00000035
:021BAF00000034
:021BB000000033
:021BB100000032
:021BB200000031
:021BB300000030
:021BB40000002F
:021BB50000002E
:021BB60000002D
:021BB70000002C
:021BB80000002B
:021BB90000002A
:021BBA00000029
:021BBB00000028
:021BBC00000027
:021BBD00000026
:021BBE00000025
:021BBF00000024
:021BC000000023
:021BC100000022
:021BC200000021
:021BC300000020
:021BC40000001F
:021BC50000001E
:021BC60000001D
:021BC70000001C
:021BC80000001B
:021BC90000001A
:021BCA00000019
:021BCB00000018
:021BCC00000017
:021BCD00000016
:021BCE00000015
:021BCF00000014
:021BD000000013
:021BD100000012
:021BD200000011
:021BD300000010
:021BD40000000F
:021BD50000000E
:021BD60000000D
:021BD70000000C
:021BD80000000B
:021BD90000000A
:021BDA00000009
:021BDB00000008
:021BDC00000007
:021BDD00000006
:021BDE00000005
:021BDF00000004
:021BE000000003
:021BE100000002
:021BE200000001
:021BE300000000
:021BE4000000FF
:021BE5000000FE
:021BE6000000FD
:021BE7000000FC
:021BE8000000FB
:021BE9000000FA
:021BEA000000F9
:021BEB000000F8
:021BEC000000F7
:021BED000000F6
:021BEE000000F5
:021BEF000000F4
:021BF0000000F3
:021BF1000000F2
:021BF2000000F1
:021BF3000000F0
:021BF4000000EF
:021BF5000000EE
:021BF6000000ED
:021BF7000000EC
:021BF8000000EB
:021BF9000000EA
:021BFA000000E9
:021BFB000000E8
:021BFC000000E7
:021BFD000000E6
:021BFE000000E5
:021BFF000000E4
:021C00000000E2
:021C01000000E1
:021C02000000E0
:021C03000000DF
:021C04000000DE
:021C05000000DD
:021C06000000DC
:021C07000000DB
:021C08000000DA
:021C09000000D9
:021C0A000000D8
:021C0B000000D7
:021C0C000000D6
:021C0D000000D5
:021C0E000000D4
:021C0F000000D3
:021C10000000D2
:021C11000000D1
:021C12000000D0
:021C13000000CF
:021C14000000CE
:021C15000000CD
:021C16000000CC
:021C17000000CB
:021C18000000CA
:021C19000000C9
:021C1A000000C8
:021C1B000000C7
:021C1C000000C6
:021C1D000000C5
:021C1E000000C4
:021C1F000000C3
:021C20000000C2
:021C21000000C1
:021C22000000C0
:021C23000000BF
:021C24000000BE
:021C25000000BD
:021C26000000BC
:021C27000000BB
:021C28000000BA
:021C29000000B9
:021C2A000000B8
:021C2B000000B7
:021C2C000000B6
:021C2D000000B5
:021C2E000000B4
:021C2F000000B3
:021C30000000B2
:021C31000000B1
:021C32000000B0
:021C33000000AF
:021C34000000AE
:021C35000000AD
:021C36000000AC
:021C37000000AB
:021C38000000AA
:021C39000000A9
:021C3A000000A8
:021C3B000000A7
:021C3C000000A6
:021C3D000000A5
:021C3E000000A4
:021C3F000000A3
:021C40000000A2
:021C41000000A1
:021C42000000A0
:021C430000009F
:021C440000009E
:021C450000009D
:021C460000009C
:021C470000009B
:021C480000009A
:021C4900000099
:021C4A00000098
:021C4B00000097
:021C4C00000096
:021C4D00000095
:021C4E00000094
:021C4F00000093
:021C5000000092
:021C5100000091
:021C5200000090
:021C530000008F
:021C540000008E
:021C550000008D
:021C560000008C
:021C570000008B
:021C580000008A
:021C5900000089
:021C5A00000088
:021C5B00000087
:021C5C00000086
:021C5D00000085
:021C5E00000084
:021C5F00000083
:021C6000000082
:021C6100000081
:021C6200000080
:021C630000007F
:021C640000007E
:021C650000007D
:021C660000007C
:021C670000007B
:021C680000007A
:021C6900000079
:021C6A00000078
:021C6B00000077
:021C6C00000076
:021C6D00000075
:021C6E00000074
:021C6F00000073
:021C7000000072
:021C7100000071
:021C7200000070
:021C730000006F
:021C740000006E
:021C750000006D
:021C760000006C
:021C770000006B
:021C780000006A
:021C7900000069
:021C7A00000068
:021C7B00000067
:021C7C00000066
:021C7D00000065
:021C7E00000064
:021C7F00000063
:021C8000000062
:021C8100000061
:021C8200000060
:021C830000005F
:021C840000005E
:021C850000005D
:021C860000005C
:021C870000005B
:021C880000005A
:021C8900000059
:021C8A00000058
:021C8B00000057
:021C8C00000056
:021C8D00000055
:021C8E00000054
:021C8F00000053
:021C9000000052
:021C9100000051
:021C9200000050
:021C930000004F
:021C940000004E
:021C950000004D
:021C960000004C
:021C970000004B
:021C980000004A
:021C9900000049
:021C9A00000048
:021C9B00000047
:021C9C00000046
:021C9D00000045
:021C9E00000044
:021C9F00000043
:021CA000000042
:021CA100000041
:021CA200000040
:021CA30000003F
:021CA40000003E
:021CA50000003D
:021CA60000003C
:021CA70000003B
:021CA80000003A
:021CA900000039
:021CAA00000038
:021CAB00000037
:021CAC00000036
:021CAD00000035
:021CAE00000034
:021CAF00000033
:021CB000000032
:021CB100000031
:021CB200000030
:021CB30000002F
:021CB40000002E
:021CB50000002D
:021CB60000002C
:021CB70000002B
:021CB80000002A
:021CB900000029
:021CBA00000028
:021CBB00000027
:021CBC00000026
:021CBD00000025
:021CBE00000024
:021CBF00000023
:021CC000000022
:021CC100000021
:021CC200000020
:021CC30000001F
:021CC40000001E
:021CC50000001D
:021CC60000001C
:021CC70000001B
:021CC80000001A
:021CC900000019
:021CCA00000018
:021CCB00000017
:021CCC00000016
:021CCD00000015
:021CCE00000014
:021CCF00000013
:021CD000000012
:021CD100000011
:021CD200000010
:021CD30000000F
:021CD40000000E
:021CD50000000D
:021CD60000000C
:021CD70000000B
:021CD80000000A
:021CD900000009
:021CDA00000008
:021CDB00000007
:021CDC00000006
:021CDD00000005
:021CDE00000004
:021CDF00000003
:021CE000000002
:021CE100000001
:021CE200000000
:021CE3000000FF
:021CE4000000FE
:021CE5000000FD
:021CE6000000FC
:021CE7000000FB
:021CE8000000FA
:021CE9000000F9
:021CEA000000F8
:021CEB000000F7
:021CEC000000F6
:021CED000000F5
:021CEE000000F4
:021CEF000000F3
:021CF0000000F2
:021CF1000000F1
:021CF2000000F0
:021CF3000000EF
:021CF4000000EE
:021CF5000000ED
:021CF6000000EC
:021CF7000000EB
:021CF8000000EA
:021CF9000000E9
:021CFA000000E8
:021CFB000000E7
:021CFC000000E6
:021CFD000000E5
:021CFE000000E4
:021CFF000000E3
:021D00000000E1
:021D01000000E0
:021D02000000DF
:021D03000000DE
:021D04000000DD
:021D05000000DC
:021D06000000DB
:021D07000000DA
:021D08000000D9
:021D09000000D8
:021D0A000000D7
:021D0B000000D6
:021D0C000000D5
:021D0D000000D4
:021D0E000000D3
:021D0F000000D2
:021D10000000D1
:021D11000000D0
:021D12000000CF
:021D13000000CE
:021D14000000CD
:021D15000000CC
:021D16000000CB
:021D17000000CA
:021D18000000C9
:021D19000000C8
:021D1A000000C7
:021D1B000000C6
:021D1C000000C5
:021D1D000000C4
:021D1E000000C3
:021D1F000000C2
:021D20000000C1
:021D21000000C0
:021D22000000BF
:021D23000000BE
:021D24000000BD
:021D25000000BC
:021D26000000BB
:021D27000000BA
:021D28000000B9
:021D29000000B8
:021D2A000000B7
:021D2B000000B6
:021D2C000000B5
:021D2D000000B4
:021D2E000000B3
:021D2F000000B2
:021D30000000B1
:021D31000000B0
:021D32000000AF
:021D33000000AE
:021D34000000AD
:021D35000000AC
:021D36000000AB
:021D37000000AA
:021D38000000A9
:021D39000000A8
:021D3A000000A7
:021D3B000000A6
:021D3C000000A5
:021D3D000000A4
:021D3E000000A3
:021D3F000000A2
:021D40000000A1
:021D41000000A0
:021D420000009F
:021D430000009E
:021D440000009D
:021D450000009C
:021D460000009B
:021D470000009A
:021D4800000099
:021D4900000098
:021D4A00000097
:021D4B00000096
:021D4C00000095
:021D4D00000094
:021D4E00000093
:021D4F00000092
:021D5000000091
:021D5100000090
:021D520000008F
:021D530000008E
:021D540000008D
:021D550000008C
:021D560000008B
:021D570000008A
:021D5800000089
:021D5900000088
:021D5A00000087
:021D5B00000086
:021D5C00000085
:021D5D00000084
:021D5E00000083
:021D5F00000082
:021D6000000081
:021D6100000080
:021D620000007F
:021D630000007E
:021D640000007D
:021D650000007C
:021D660000007B
:021D670000007A
:021D6800000079
:021D6900000078
:021D6A00000077
:021D6B00000076
:021D6C00000075
:021D6D00000074
:021D6E00000073
:021D6F00000072
:021D7000000071
:021D7100000070
:021D720000006F
:021D730000006E
:021D740000006D
:021D750000006C
:021D760000006B
:021D770000006A
:021D7800000069
:021D7900000068
:021D7A00000067
:021D7B00000066
:021D7C00000065
:021D7D00000064
:021D7E00000063
:021D7F00000062
:021D8000000061
:021D8100000060
:021D820000005F
:021D830000005E
:021D840000005D
:021D850000005C
:021D860000005B
:021D870000005A
:021D8800000059
:021D8900000058
:021D8A00000057
:021D8B00000056
:021D8C00000055
:021D8D00000054
:021D8E00000053
:021D8F00000052
:021D9000000051
:021D9100000050
:021D920000004F
:021D930000004E
:021D940000004D
:021D950000004C
:021D960000004B
:021D970000004A
:021D9800000049
:021D9900000048
:021D9A00000047
:021D9B00000046
:021D9C00000045
:021D9D00000044
:021D9E00000043
:021D9F00000042
:021DA000000041
:021DA100000040
:021DA20000003F
:021DA30000003E
:021DA40000003D
:021DA50000003C
:021DA60000003B
:021DA70000003A
:021DA800000039
:021DA900000038
:021DAA00000037
:021DAB00000036
:021DAC00000035
:021DAD00000034
:021DAE00000033
:021DAF00000032
:021DB000000031
:021DB100000030
:021DB20000002F
:021DB30000002E
:021DB40000002D
:021DB50000002C
:021DB60000002B
:021DB70000002A
:021DB800000029
:021DB900000028
:021DBA00000027
:021DBB00000026
:021DBC00000025
:021DBD00000024
:021DBE00000023
:021DBF00000022
:021DC000000021
:021DC100000020
:021DC20000001F
:021DC30000001E
:021DC40000001D
:021DC50000001C
:021DC60000001B
:021DC70000001A
:021DC800000019
:021DC900000018
:021DCA00000017
:021DCB00000016
:021DCC00000015
:021DCD00000014
:021DCE00000013
:021DCF00000012
:021DD000000011
:021DD100000010
:021DD20000000F
:021DD30000000E
:021DD40000000D
:021DD50000000C
:021DD60000000B
:021DD70000000A
:021DD800000009
:021DD900000008
:021DDA00000007
:021DDB00000006
:021DDC00000005
:021DDD00000004
:021DDE00000003
:021DDF00000002
:021DE000000001
:021DE100000000
:021DE2000000FF
:021DE3000000FE
:021DE4000000FD
:021DE5000000FC
:021DE6000000FB
:021DE7000000FA
:021DE8000000F9
:021DE9000000F8
:021DEA000000F7
:021DEB000000F6
:021DEC000000F5
:021DED000000F4
:021DEE000000F3
:021DEF000000F2
:021DF0000000F1
:021DF1000000F0
:021DF2000000EF
:021DF3000000EE
:021DF4000000ED
:021DF5000000EC
:021DF6000000EB
:021DF7000000EA
:021DF8000000E9
:021DF9000000E8
:021DFA000000E7
:021DFB000000E6
:021DFC000000E5
:021DFD000000E4
:021DFE000000E3
:021DFF000000E2
:021E00000000E0
:021E01000000DF
:021E02000000DE
:021E03000000DD
:021E04000000DC
:021E05000000DB
:021E06000000DA
:021E07000000D9
:021E08000000D8
:021E09000000D7
:021E0A000000D6
:021E0B000000D5
:021E0C000000D4
:021E0D000000D3
:021E0E000000D2
:021E0F000000D1
:021E10000000D0
:021E11000000CF
:021E12000000CE
:021E13000000CD
:021E14000000CC
:021E15000000CB
:021E16000000CA
:021E17000000C9
:021E18000000C8
:021E19000000C7
:021E1A000000C6
:021E1B000000C5
:021E1C000000C4
:021E1D000000C3
:021E1E000000C2
:021E1F000000C1
:021E20000000C0
:021E21000000BF
:021E22000000BE
:021E23000000BD
:021E24000000BC
:021E25000000BB
:021E26000000BA
:021E27000000B9
:021E28000000B8
:021E29000000B7
:021E2A000000B6
:021E2B000000B5
:021E2C000000B4
:021E2D000000B3
:021E2E000000B2
:021E2F000000B1
:021E30000000B0
:021E31000000AF
:021E32000000AE
:021E33000000AD
:021E34000000AC
:021E35000000AB
:021E36000000AA
:021E37000000A9
:021E38000000A8
:021E39000000A7
:021E3A000000A6
:021E3B000000A5
:021E3C000000A4
:021E3D000000A3
:021E3E000000A2
:021E3F000000A1
:021E40000000A0
:021E410000009F
:021E420000009E
:021E430000009D
:021E440000009C
:021E450000009B
:021E460000009A
:021E4700000099
:021E4800000098
:021E4900000097
:021E4A00000096
:021E4B00000095
:021E4C00000094
:021E4D00000093
:021E4E00000092
:021E4F00000091
:021E5000000090
:021E510000008F
:021E520000008E
:021E530000008D
:021E540000008C
:021E550000008B
:021E560000008A
:021E5700000089
:021E5800000088
:021E5900000087
:021E5A00000086
:021E5B00000085
:021E5C00000084
:021E5D00000083
:021E5E00000082
:021E5F00000081
:021E6000000080
:021E610000007F
:021E620000007E
:021E630000007D
:021E640000007C
:021E650000007B
:021E660000007A
:021E6700000079
:021E6800000078
:021E6900000077
:021E6A00000076
:021E6B00000075
:021E6C00000074
:021E6D00000073
:021E6E00000072
:021E6F00000071
:021E7000000070
:021E710000006F
:021E720000006E
:021E730000006D
:021E740000006C
:021E750000006B
:021E760000006A
:021E7700000069
:021E7800000068
:021E7900000067
:021E7A00000066
:021E7B00000065
:021E7C00000064
:021E7D00000063
:021E7E00000062
:021E7F00000061
:021E8000000060
:021E810000005F
:021E820000005E
:021E830000005D
:021E840000005C
:021E850000005B
:021E860000005A
:021E8700000059
:021E8800000058
:021E8900000057
:021E8A00000056
:021E8B00000055
:021E8C00000054
:021E8D00000053
:021E8E00000052
:021E8F00000051
:021E9000000050
:021E910000004F
:021E920000004E
:021E930000004D
:021E940000004C
:021E950000004B
:021E960000004A
:021E9700000049
:021E9800000048
:021E9900000047
:021E9A00000046
:021E9B00000045
:021E9C00000044
:021E9D00000043
:021E9E00000042
:021E9F00000041
:021EA000000040
:021EA10000003F
:021EA20000003E
:021EA30000003D
:021EA40000003C
:021EA50000003B
:021EA60000003A
:021EA700000039
:021EA800000038
:021EA900000037
:021EAA00000036
:021EAB00000035
:021EAC00000034
:021EAD00000033
:021EAE00000032
:021EAF00000031
:021EB000000030
:021EB10000002F
:021EB20000002E
:021EB30000002D
:021EB40000002C
:021EB50000002B
:021EB60000002A
:021EB700000029
:021EB800000028
:021EB900000027
:021EBA00000026
:021EBB00000025
:021EBC00000024
:021EBD00000023
:021EBE00000022
:021EBF00000021
:021EC000000020
:021EC10000001F
:021EC20000001E
:021EC30000001D
:021EC40000001C
:021EC50000001B
:021EC60000001A
:021EC700000019
:021EC800000018
:021EC900000017
:021ECA00000016
:021ECB00000015
:021ECC00000014
:021ECD00000013
:021ECE00000012
:021ECF00000011
:021ED000000010
:021ED10000000F
:021ED20000000E
:021ED30000000D
:021ED40000000C
:021ED50000000B
:021ED60000000A
:021ED700000009
:021ED800000008
:021ED900000007
:021EDA00000006
:021EDB00000005
:021EDC00000004
:021EDD00000003
:021EDE00000002
:021EDF00000001
:021EE000000000
:021EE1000000FF
:021EE2000000FE
:021EE3000000FD
:021EE4000000FC
:021EE5000000FB
:021EE6000000FA
:021EE7000000F9
:021EE8000000F8
:021EE9000000F7
:021EEA000000F6
:021EEB000000F5
:021EEC000000F4
:021EED000000F3
:021EEE000000F2
:021EEF000000F1
:021EF0000000F0
:021EF1000000EF
:021EF2000000EE
:021EF3000000ED
:021EF4000000EC
:021EF5000000EB
:021EF6000000EA
:021EF7000000E9
:021EF8000000E8
:021EF9000000E7
:021EFA000000E6
:021EFB000000E5
:021EFC000000E4
:021EFD000000E3
:021EFE000000E2
:021EFF000000E1
:021F00000000DF
:021F01000000DE
:021F02000000DD
:021F03000000DC
:021F04000000DB
:021F05000000DA
:021F06000000D9
:021F07000000D8
:021F08000000D7
:021F09000000D6
:021F0A000000D5
:021F0B000000D4
:021F0C000000D3
:021F0D000000D2
:021F0E000000D1
:021F0F000000D0
:021F10000000CF
:021F11000000CE
:021F12000000CD
:021F13000000CC
:021F14000000CB
:021F15000000CA
:021F16000000C9
:021F17000000C8
:021F18000000C7
:021F19000000C6
:021F1A000000C5
:021F1B000000C4
:021F1C000000C3
:021F1D000000C2
:021F1E000000C1
:021F1F000000C0
:021F20000000BF
:021F21000000BE
:021F22000000BD
:021F23000000BC
:021F24000000BB
:021F25000000BA
:021F26000000B9
:021F27000000B8
:021F28000000B7
:021F29000000B6
:021F2A000000B5
:021F2B000000B4
:021F2C000000B3
:021F2D000000B2
:021F2E000000B1
:021F2F000000B0
:021F30000000AF
:021F31000000AE
:021F32000000AD
:021F33000000AC
:021F34000000AB
:021F35000000AA
:021F36000000A9
:021F37000000A8
:021F38000000A7
:021F39000000A6
:021F3A000000A5
:021F3B000000A4
:021F3C000000A3
:021F3D000000A2
:021F3E000000A1
:021F3F000000A0
:021F400000009F
:021F410000009E
:021F420000009D
:021F430000009C
:021F440000009B
:021F450000009A
:021F4600000099
:021F4700000098
:021F4800000097
:021F4900000096
:021F4A00000095
:021F4B00000094
:021F4C00000093
:021F4D00000092
:021F4E00000091
:021F4F00000090
:021F500000008F
:021F510000008E
:021F520000008D
:021F530000008C
:021F540000008B
:021F550000008A
:021F5600000089
:021F5700000088
:021F5800000087
:021F5900000086
:021F5A00000085
:021F5B00000084
:021F5C00000083
:021F5D00000082
:021F5E00000081
:021F5F00000080
:021F600000007F
:021F610000007E
:021F620000007D
:021F630000007C
:021F640000007B
:021F650000007A
:021F6600000079
:021F6700000078
:021F6800000077
:021F6900000076
:021F6A00000075
:021F6B00000074
:021F6C00000073
:021F6D00000072
:021F6E00000071
:021F6F00000070
:021F700000006F
:021F710000006E
:021F720000006D
:021F730000006C
:021F740000006B
:021F750000006A
:021F7600000069
:021F7700000068
:021F7800000067
:021F7900000066
:021F7A00000065
:021F7B00000064
:021F7C00000063
:021F7D00000062
:021F7E00000061
:021F7F00000060
:021F800000005F
:021F810000005E
:021F820000005D
:021F830000005C
:021F840000005B
:021F850000005A
:021F8600000059
:021F8700000058
:021F8800000057
:021F8900000056
:021F8A00000055
:021F8B00000054
:021F8C00000053
:021F8D00000052
:021F8E00000051
:021F8F00000050
:021F900000004F
:021F910000004E
:021F920000004D
:021F930000004C
:021F940000004B
:021F950000004A
:021F9600000049
:021F9700000048
:021F9800000047
:021F9900000046
:021F9A00000045
:021F9B00000044
:021F9C00000043
:021F9D00000042
:021F9E00000041
:021F9F00000040
:021FA00000003F
:021FA10000003E
:021FA20000003D
:021FA30000003C
:021FA40000003B
:021FA50000003A
:021FA600000039
:021FA700000038
:021FA800000037
:021FA900000036
:021FAA00000035
:021FAB00000034
:021FAC00000033
:021FAD00000032
:021FAE00000031
:021FAF00000030
:021FB00000002F
:021FB10000002E
:021FB20000002D
:021FB30000002C
:021FB40000002B
:021FB50000002A
:021FB600000029
:021FB700000028
:021FB800000027
:021FB900000026
:021FBA00000025
:021FBB00000024
:021FBC00000023
:021FBD00000022
:021FBE00000021
:021FBF00000020
:021FC00000001F
:021FC10000001E
:021FC20000001D
:021FC30000001C
:021FC40000001B
:021FC50000001A
:021FC600000019
:021FC700000018
:021FC800000017
:021FC900000016
:021FCA00000015
:021FCB00000014
:021FCC00000013
:021FCD00000012
:021FCE00000011
:021FCF00000010
:021FD00000000F
:021FD10000000E
:021FD20000000D
:021FD30000000C
:021FD40000000B
:021FD50000000A
:021FD600000009
:021FD700000008
:021FD800000007
:021FD900000006
:021FDA00000005
:021FDB00000004
:021FDC00000003
:021FDD00000002
:021FDE00000001
:021FDF00000000
:021FE0000000FF
:021FE1000000FE
:021FE2000000FD
:021FE3000000FC
:021FE4000000FB
:021FE5000000FA
:021FE6000000F9
:021FE7000000F8
:021FE8000000F7
:021FE9000000F6
:021FEA000000F5
:021FEB000000F4
:021FEC000000F3
:021FED000000F2
:021FEE000000F1
:021FEF000000F0
:021FF0000000EF
:021FF1000000EE
:021FF2000000ED
:021FF3000000EC
:021FF4000000EB
:021FF5000000EA
:021FF6000000E9
:021FF7000000E8
:021FF8000000E7
:021FF9000000E6
:021FFA000000E5
:021FFB000000E4
:021FFC000000E3
:021FFD000000E2
:021FFE000000E1
:021FFF000000E0
:022000000000DE
:022001000000DD
:022002000000DC
:022003000000DB
:022004000000DA
:022005000000D9
:022006000000D8
:022007000000D7
:022008000000D6
:022009000000D5
:02200A000000D4
:02200B000000D3
:02200C000000D2
:02200D000000D1
:02200E000000D0
:02200F000000CF
:022010000000CE
:022011000000CD
:022012000000CC
:022013000000CB
:022014000000CA
:022015000000C9
:022016000000C8
:022017000000C7
:022018000000C6
:022019000000C5
:02201A000000C4
:02201B000000C3
:02201C000000C2
:02201D000000C1
:02201E000000C0
:02201F000000BF
:022020000000BE
:022021000000BD
:022022000000BC
:022023000000BB
:022024000000BA
:022025000000B9
:022026000000B8
:022027000000B7
:022028000000B6
:022029000000B5
:02202A000000B4
:02202B000000B3
:02202C000000B2
:02202D000000B1
:02202E000000B0
:02202F000000AF
:022030000000AE
:022031000000AD
:022032000000AC
:022033000000AB
:022034000000AA
:022035000000A9
:022036000000A8
:022037000000A7
:022038000000A6
:022039000000A5
:02203A000000A4
:02203B000000A3
:02203C000000A2
:02203D000000A1
:02203E000000A0
:02203F0000009F
:0220400000009E
:0220410000009D
:0220420000009C
:0220430000009B
:0220440000009A
:02204500000099
:02204600000098
:02204700000097
:02204800000096
:02204900000095
:02204A00000094
:02204B00000093
:02204C00000092
:02204D00000091
:02204E00000090
:02204F0000008F
:0220500000008E
:0220510000008D
:0220520000008C
:0220530000008B
:0220540000008A
:02205500000089
:02205600000088
:02205700000087
:02205800000086
:02205900000085
:02205A00000084
:02205B00000083
:02205C00000082
:02205D00000081
:02205E00000080
:02205F0000007F
:0220600000007E
:0220610000007D
:0220620000007C
:0220630000007B
:0220640000007A
:02206500000079
:02206600000078
:02206700000077
:02206800000076
:02206900000075
:02206A00000074
:02206B00000073
:02206C00000072
:02206D00000071
:02206E00000070
:02206F0000006F
:0220700000006E
:0220710000006D
:0220720000006C
:0220730000006B
:0220740000006A
:02207500000069
:02207600000068
:02207700000067
:02207800000066
:02207900000065
:02207A00000064
:02207B00000063
:02207C00000062
:02207D00000061
:02207E00000060
:02207F0000005F
:0220800000005E
:0220810000005D
:0220820000005C
:0220830000005B
:0220840000005A
:02208500000059
:02208600000058
:02208700000057
:02208800000056
:02208900000055
:02208A00000054
:02208B00000053
:02208C00000052
:02208D00000051
:02208E00000050
:02208F0000004F
:0220900000004E
:0220910000004D
:0220920000004C
:0220930000004B
:0220940000004A
:02209500000049
:02209600000048
:02209700000047
:02209800000046
:02209900000045
:02209A00000044
:02209B00000043
:02209C00000042
:02209D00000041
:02209E00000040
:02209F0000003F
:0220A00000003E
:0220A10000003D
:0220A20000003C
:0220A30000003B
:0220A40000003A
:0220A500000039
:0220A600000038
:0220A700000037
:0220A800000036
:0220A900000035
:0220AA00000034
:0220AB00000033
:0220AC00000032
:0220AD00000031
:0220AE00000030
:0220AF0000002F
:0220B00000002E
:0220B10000002D
:0220B20000002C
:0220B30000002B
:0220B40000002A
:0220B500000029
:0220B600000028
:0220B700000027
:0220B800000026
:0220B900000025
:0220BA00000024
:0220BB00000023
:0220BC00000022
:0220BD00000021
:0220BE00000020
:0220BF0000001F
:0220C00000001E
:0220C10000001D
:0220C20000001C
:0220C30000001B
:0220C40000001A
:0220C500000019
:0220C600000018
:0220C700000017
:0220C800000016
:0220C900000015
:0220CA00000014
:0220CB00000013
:0220CC00000012
:0220CD00000011
:0220CE00000010
:0220CF0000000F
:0220D00000000E
:0220D10000000D
:0220D20000000C
:0220D30000000B
:0220D40000000A
:0220D500000009
:0220D600000008
:0220D700000007
:0220D800000006
:0220D900000005
:0220DA00000004
:0220DB00000003
:0220DC00000002
:0220DD00000001
:0220DE00000000
:0220DF000000FF
:0220E0000000FE
:0220E1000000FD
:0220E2000000FC
:0220E3000000FB
:0220E4000000FA
:0220E5000000F9
:0220E6000000F8
:0220E7000000F7
:0220E8000000F6
:0220E9000000F5
:0220EA000000F4
:0220EB000000F3
:0220EC000000F2
:0220ED000000F1
:0220EE000000F0
:0220EF000000EF
:0220F0000000EE
:0220F1000000ED
:0220F2000000EC
:0220F3000000EB
:0220F4000000EA
:0220F5000000E9
:0220F6000000E8
:0220F7000000E7
:0220F8000000E6
:0220F9000000E5
:0220FA000000E4
:0220FB000000E3
:0220FC000000E2
:0220FD000000E1
:0220FE000000E0
:0220FF000000DF
:022100000000DD
:022101000000DC
:022102000000DB
:022103000000DA
:022104000000D9
:022105000000D8
:022106000000D7
:022107000000D6
:022108000000D5
:022109000000D4
:02210A000000D3
:02210B000000D2
:02210C000000D1
:02210D000000D0
:02210E000000CF
:02210F000000CE
:022110000000CD
:022111000000CC
:022112000000CB
:022113000000CA
:022114000000C9
:022115000000C8
:022116000000C7
:022117000000C6
:022118000000C5
:022119000000C4
:02211A000000C3
:02211B000000C2
:02211C000000C1
:02211D000000C0
:02211E000000BF
:02211F000000BE
:022120000000BD
:022121000000BC
:022122000000BB
:022123000000BA
:022124000000B9
:022125000000B8
:022126000000B7
:022127000000B6
:022128000000B5
:022129000000B4
:02212A000000B3
:02212B000000B2
:02212C000000B1
:02212D000000B0
:02212E000000AF
:02212F000000AE
:022130000000AD
:022131000000AC
:022132000000AB
:022133000000AA
:022134000000A9
:022135000000A8
:022136000000A7
:022137000000A6
:022138000000A5
:022139000000A4
:02213A000000A3
:02213B000000A2
:02213C000000A1
:02213D000000A0
:02213E0000009F
:02213F0000009E
:0221400000009D
:0221410000009C
:0221420000009B
:0221430000009A
:02214400000099
:02214500000098
:02214600000097
:02214700000096
:02214800000095
:02214900000094
:02214A00000093
:02214B00000092
:02214C00000091
:02214D00000090
:02214E0000008F
:02214F0000008E
:0221500000008D
:0221510000008C
:0221520000008B
:0221530000008A
:02215400000089
:02215500000088
:02215600000087
:02215700000086
:02215800000085
:02215900000084
:02215A00000083
:02215B00000082
:02215C00000081
:02215D00000080
:02215E0000007F
:02215F0000007E
:0221600000007D
:0221610000007C
:0221620000007B
:0221630000007A
:02216400000079
:02216500000078
:02216600000077
:02216700000076
:02216800000075
:02216900000074
:02216A00000073
:02216B00000072
:02216C00000071
:02216D00000070
:02216E0000006F
:02216F0000006E
:0221700000006D
:0221710000006C
:0221720000006B
:0221730000006A
:02217400000069
:02217500000068
:02217600000067
:02217700000066
:02217800000065
:02217900000064
:02217A00000063
:02217B00000062
:02217C00000061
:02217D00000060
:02217E0000005F
:02217F0000005E
:0221800000005D
:0221810000005C
:0221820000005B
:0221830000005A
:02218400000059
:02218500000058
:02218600000057
:02218700000056
:02218800000055
:02218900000054
:02218A00000053
:02218B00000052
:02218C00000051
:02218D00000050
:02218E0000004F
:02218F0000004E
:0221900000004D
:0221910000004C
:0221920000004B
:0221930000004A
:02219400000049
:02219500000048
:02219600000047
:02219700000046
:02219800000045
:02219900000044
:02219A00000043
:02219B00000042
:02219C00000041
:02219D00000040
:02219E0000003F
:02219F0000003E
:0221A00000003D
:0221A10000003C
:0221A20000003B
:0221A30000003A
:0221A400000039
:0221A500000038
:0221A600000037
:0221A700000036
:0221A800000035
:0221A900000034
:0221AA00000033
:0221AB00000032
:0221AC00000031
:0221AD00000030
:0221AE0000002F
:0221AF0000002E
:0221B00000002D
:0221B10000002C
:0221B20000002B
:0221B30000002A
:0221B400000029
:0221B500000028
:0221B600000027
:0221B700000026
:0221B800000025
:0221B900000024
:0221BA00000023
:0221BB00000022
:0221BC00000021
:0221BD00000020
:0221BE0000001F
:0221BF0000001E
:0221C00000001D
:0221C10000001C
:0221C20000001B
:0221C30000001A
:0221C400000019
:0221C500000018
:0221C600000017
:0221C700000016
:0221C800000015
:0221C900000014
:0221CA00000013
:0221CB00000012
:0221CC00000011
:0221CD00000010
:0221CE0000000F
:0221CF0000000E
:0221D00000000D
:0221D10000000C
:0221D20000000B
:0221D30000000A
:0221D400000009
:0221D500000008
:0221D600000007
:0221D700000006
:0221D800000005
:0221D900000004
:0221DA00000003
:0221DB00000002
:0221DC00000001
:0221DD00000000
:0221DE000000FF
:0221DF000000FE
:0221E0000000FD
:0221E1000000FC
:0221E2000000FB
:0221E3000000FA
:0221E4000000F9
:0221E5000000F8
:0221E6000000F7
:0221E7000000F6
:0221E8000000F5
:0221E9000000F4
:0221EA000000F3
:0221EB000000F2
:0221EC000000F1
:0221ED000000F0
:0221EE000000EF
:0221EF000000EE
:0221F0000000ED
:0221F1000000EC
:0221F2000000EB
:0221F3000000EA
:0221F4000000E9
:0221F5000000E8
:0221F6000000E7
:0221F7000000E6
:0221F8000000E5
:0221F9000000E4
:0221FA000000E3
:0221FB000000E2
:0221FC000000E1
:0221FD000000E0
:0221FE000000DF
:0221FF000000DE
:022200000000DC
:022201000000DB
:022202000000DA
:022203000000D9
:022204000000D8
:022205000000D7
:022206000000D6
:022207000000D5
:022208000000D4
:022209000000D3
:02220A000000D2
:02220B000000D1
:02220C000000D0
:02220D000000CF
:02220E000000CE
:02220F000000CD
:022210000000CC
:022211000000CB
:022212000000CA
:022213000000C9
:022214000000C8
:022215000000C7
:022216000000C6
:022217000000C5
:022218000000C4
:022219000000C3
:02221A000000C2
:02221B000000C1
:02221C000000C0
:02221D000000BF
:02221E000000BE
:02221F000000BD
:022220000000BC
:022221000000BB
:022222000000BA
:022223000000B9
:022224000000B8
:022225000000B7
:022226000000B6
:022227000000B5
:022228000000B4
:022229000000B3
:02222A000000B2
:02222B000000B1
:02222C000000B0
:02222D000000AF
:02222E000000AE
:02222F000000AD
:022230000000AC
:022231000000AB
:022232000000AA
:022233000000A9
:022234000000A8
:022235000000A7
:022236000000A6
:022237000000A5
:022238000000A4
:022239000000A3
:02223A000000A2
:02223B000000A1
:02223C000000A0
:02223D0000009F
:02223E0000009E
:02223F0000009D
:0222400000009C
:0222410000009B
:0222420000009A
:02224300000099
:02224400000098
:02224500000097
:02224600000096
:02224700000095
:02224800000094
:02224900000093
:02224A00000092
:02224B00000091
:02224C00000090
:02224D0000008F
:02224E0000008E
:02224F0000008D
:0222500000008C
:0222510000008B
:0222520000008A
:02225300000089
:02225400000088
:02225500000087
:02225600000086
:02225700000085
:02225800000084
:02225900000083
:02225A00000082
:02225B00000081
:02225C00000080
:02225D0000007F
:02225E0000007E
:02225F0000007D
:0222600000007C
:0222610000007B
:0222620000007A
:02226300000079
:02226400000078
:02226500000077
:02226600000076
:02226700000075
:02226800000074
:02226900000073
:02226A00000072
:02226B00000071
:02226C00000070
:02226D0000006F
:02226E0000006E
:02226F0000006D
:0222700000006C
:0222710000006B
:0222720000006A
:02227300000069
:02227400000068
:02227500000067
:02227600000066
:02227700000065
:02227800000064
:02227900000063
:02227A00000062
:02227B00000061
:02227C00000060
:02227D0000005F
:02227E0000005E
:02227F0000005D
:0222800000005C
:0222810000005B
:0222820000005A
:02228300000059
:02228400000058
:02228500000057
:02228600000056
:02228700000055
:02228800000054
:02228900000053
:02228A00000052
:02228B00000051
:02228C00000050
:02228D0000004F
:02228E0000004E
:02228F0000004D
:0222900000004C
:0222910000004B
:0222920000004A
:02229300000049
:02229400000048
:02229500000047
:02229600000046
:02229700000045
:02229800000044
:02229900000043
:02229A00000042
:02229B00000041
:02229C00000040
:02229D0000003F
:02229E0000003E
:02229F0000003D
:0222A00000003C
:0222A10000003B
:0222A20000003A
:0222A300000039
:0222A400000038
:0222A500000037
:0222A600000036
:0222A700000035
:0222A800000034
:0222A900000033
:0222AA00000032
:0222AB00000031
:0222AC00000030
:0222AD0000002F
:0222AE0000002E
:0222AF0000002D
:0222B00000002C
:0222B10000002B
:0222B20000002A
:0222B300000029
:0222B400000028
:0222B500000027
:0222B600000026
:0222B700000025
:0222B800000024
:0222B900000023
:0222BA00000022
:0222BB00000021
:0222BC00000020
:0222BD0000001F
:0222BE0000001E
:0222BF0000001D
:0222C00000001C
:0222C10000001B
:0222C20000001A
:0222C300000019
:0222C400000018
:0222C500000017
:0222C600000016
:0222C700000015
:0222C800000014
:0222C900000013
:0222CA00000012
:0222CB00000011
:0222CC00000010
:0222CD0000000F
:0222CE0000000E
:0222CF0000000D
:0222D00000000C
:0222D10000000B
:0222D20000000A
:0222D300000009
:0222D400000008
:0222D500000007
:0222D600000006
:0222D700000005
:0222D800000004
:0222D900000003
:0222DA00000002
:0222DB00000001
:0222DC00000000
:0222DD000000FF
:0222DE000000FE
:0222DF000000FD
:0222E0000000FC
:0222E1000000FB
:0222E2000000FA
:0222E3000000F9
:0222E4000000F8
:0222E5000000F7
:0222E6000000F6
:0222E7000000F5
:0222E8000000F4
:0222E9000000F3
:0222EA000000F2
:0222EB000000F1
:0222EC000000F0
:0222ED000000EF
:0222EE000000EE
:0222EF000000ED
:0222F0000000EC
:0222F1000000EB
:0222F2000000EA
:0222F3000000E9
:0222F4000000E8
:0222F5000000E7
:0222F6000000E6
:0222F7000000E5
:0222F8000000E4
:0222F9000000E3
:0222FA000000E2
:0222FB000000E1
:0222FC000000E0
:0222FD000000DF
:0222FE000000DE
:0222FF000000DD
:022300000000DB
:022301000000DA
:022302000000D9
:022303000000D8
:022304000000D7
:022305000000D6
:022306000000D5
:022307000000D4
:022308000000D3
:022309000000D2
:02230A000000D1
:02230B000000D0
:02230C000000CF
:02230D000000CE
:02230E000000CD
:02230F000000CC
:022310000000CB
:022311000000CA
:022312000000C9
:022313000000C8
:022314000000C7
:022315000000C6
:022316000000C5
:022317000000C4
:022318000000C3
:022319000000C2
:02231A000000C1
:02231B000000C0
:02231C000000BF
:02231D000000BE
:02231E000000BD
:02231F000000BC
:022320000000BB
:022321000000BA
:022322000000B9
:022323000000B8
:022324000000B7
:022325000000B6
:022326000000B5
:022327000000B4
:022328000000B3
:022329000000B2
:02232A000000B1
:02232B000000B0
:02232C000000AF
:02232D000000AE
:02232E000000AD
:02232F000000AC
:022330000000AB
:022331000000AA
:022332000000A9
:022333000000A8
:022334000000A7
:022335000000A6
:022336000000A5
:022337000000A4
:022338000000A3
:022339000000A2
:02233A000000A1
:02233B000000A0
:02233C0000009F
:02233D0000009E
:02233E0000009D
:02233F0000009C
:0223400000009B
:0223410000009A
:02234200000099
:02234300000098
:02234400000097
:02234500000096
:02234600000095
:02234700000094
:02234800000093
:02234900000092
:02234A00000091
:02234B00000090
:02234C0000008F
:02234D0000008E
:02234E0000008D
:02234F0000008C
:0223500000008B
:0223510000008A
:02235200000089
:02235300000088
:02235400000087
:02235500000086
:02235600000085
:02235700000084
:02235800000083
:02235900000082
:02235A00000081
:02235B00000080
:02235C0000007F
:02235D0000007E
:02235E0000007D
:02235F0000007C
:0223600000007B
:0223610000007A
:02236200000079
:02236300000078
:02236400000077
:02236500000076
:02236600000075
:02236700000074
:02236800000073
:02236900000072
:02236A00000071
:02236B00000070
:02236C0000006F
:02236D0000006E
:02236E0000006D
:02236F0000006C
:0223700000006B
:0223710000006A
:02237200000069
:02237300000068
:02237400000067
:02237500000066
:02237600000065
:02237700000064
:02237800000063
:02237900000062
:02237A00000061
:02237B00000060
:02237C0000005F
:02237D0000005E
:02237E0000005D
:02237F0000005C
:0223800000005B
:0223810000005A
:02238200000059
:02238300000058
:02238400000057
:02238500000056
:02238600000055
:02238700000054
:02238800000053
:02238900000052
:02238A00000051
:02238B00000050
:02238C0000004F
:02238D0000004E
:02238E0000004D
:02238F0000004C
:0223900000004B
:0223910000004A
:02239200000049
:02239300000048
:02239400000047
:02239500000046
:02239600000045
:02239700000044
:02239800000043
:02239900000042
:02239A00000041
:02239B00000040
:02239C0000003F
:02239D0000003E
:02239E0000003D
:02239F0000003C
:0223A00000003B
:0223A10000003A
:0223A200000039
:0223A300000038
:0223A400000037
:0223A500000036
:0223A600000035
:0223A700000034
:0223A800000033
:0223A900000032
:0223AA00000031
:0223AB00000030
:0223AC0000002F
:0223AD0000002E
:0223AE0000002D
:0223AF0000002C
:0223B00000002B
:0223B10000002A
:0223B200000029
:0223B300000028
:0223B400000027
:0223B500000026
:0223B600000025
:0223B700000024
:0223B800000023
:0223B900000022
:0223BA00000021
:0223BB00000020
:0223BC0000001F
:0223BD0000001E
:0223BE0000001D
:0223BF0000001C
:0223C00000001B
:0223C10000001A
:0223C200000019
:0223C300000018
:0223C400000017
:0223C500000016
:0223C600000015
:0223C700000014
:0223C800000013
:0223C900000012
:0223CA00000011
:0223CB00000010
:0223CC0000000F
:0223CD0000000E
:0223CE0000000D
:0223CF0000000C
:0223D00000000B
:0223D10000000A
:0223D200000009
:0223D300000008
:0223D400000007
:0223D500000006
:0223D600000005
:0223D700000004
:0223D800000003
:0223D900000002
:0223DA00000001
:0223DB00000000
:0223DC000000FF
:0223DD000000FE
:0223DE000000FD
:0223DF000000FC
:0223E0000000FB
:0223E1000000FA
:0223E2000000F9
:0223E3000000F8
:0223E4000000F7
:0223E5000000F6
:0223E6000000F5
:0223E7000000F4
:0223E8000000F3
:0223E9000000F2
:0223EA000000F1
:0223EB000000F0
:0223EC000000EF
:0223ED000000EE
:0223EE000000ED
:0223EF000000EC
:0223F0000000EB
:0223F1000000EA
:0223F2000000E9
:0223F3000000E8
:0223F4000000E7
:0223F5000000E6
:0223F6000000E5
:0223F7000000E4
:0223F8000000E3
:0223F9000000E2
:0223FA000000E1
:0223FB000000E0
:0223FC000000DF
:0223FD000000DE
:0223FE000000DD
:0223FF000000DC
:022400000000DA
:022401000000D9
:022402000000D8
:022403000000D7
:022404000000D6
:022405000000D5
:022406000000D4
:022407000000D3
:022408000000D2
:022409000000D1
:02240A000000D0
:02240B000000CF
:02240C000000CE
:02240D000000CD
:02240E000000CC
:02240F000000CB
:022410000000CA
:022411000000C9
:022412000000C8
:022413000000C7
:022414000000C6
:022415000000C5
:022416000000C4
:022417000000C3
:022418000000C2
:022419000000C1
:02241A000000C0
:02241B000000BF
:02241C000000BE
:02241D000000BD
:02241E000000BC
:02241F000000BB
:022420000000BA
:022421000000B9
:022422000000B8
:022423000000B7
:022424000000B6
:022425000000B5
:022426000000B4
:022427000000B3
:022428000000B2
:022429000000B1
:02242A000000B0
:02242B000000AF
:02242C000000AE
:02242D000000AD
:02242E000000AC
:02242F000000AB
:022430000000AA
:022431000000A9
:022432000000A8
:022433000000A7
:022434000000A6
:022435000000A5
:022436000000A4
:022437000000A3
:022438000000A2
:022439000000A1
:02243A000000A0
:02243B0000009F
:02243C0000009E
:02243D0000009D
:02243E0000009C
:02243F0000009B
:0224400000009A
:02244100000099
:02244200000098
:02244300000097
:02244400000096
:02244500000095
:02244600000094
:02244700000093
:02244800000092
:02244900000091
:02244A00000090
:02244B0000008F
:02244C0000008E
:02244D0000008D
:02244E0000008C
:02244F0000008B
:0224500000008A
:02245100000089
:02245200000088
:02245300000087
:02245400000086
:02245500000085
:02245600000084
:02245700000083
:02245800000082
:02245900000081
:02245A00000080
:02245B0000007F
:02245C0000007E
:02245D0000007D
:02245E0000007C
:02245F0000007B
:0224600000007A
:02246100000079
:02246200000078
:02246300000077
:02246400000076
:02246500000075
:02246600000074
:02246700000073
:02246800000072
:02246900000071
:02246A00000070
:02246B0000006F
:02246C0000006E
:02246D0000006D
:02246E0000006C
:02246F0000006B
:0224700000006A
:02247100000069
:02247200000068
:02247300000067
:02247400000066
:02247500000065
:02247600000064
:02247700000063
:02247800000062
:02247900000061
:02247A00000060
:02247B0000005F
:02247C0000005E
:02247D0000005D
:02247E0000005C
:02247F0000005B
:0224800000005A
:02248100000059
:02248200000058
:02248300000057
:02248400000056
:02248500000055
:02248600000054
:02248700000053
:02248800000052
:02248900000051
:02248A00000050
:02248B0000004F
:02248C0000004E
:02248D0000004D
:02248E0000004C
:02248F0000004B
:0224900000004A
:02249100000049
:02249200000048
:02249300000047
:02249400000046
:02249500000045
:02249600000044
:02249700000043
:02249800000042
:02249900000041
:02249A00000040
:02249B0000003F
:02249C0000003E
:02249D0000003D
:02249E0000003C
:02249F0000003B
:0224A00000003A
:0224A100000039
:0224A200000038
:0224A300000037
:0224A400000036
:0224A500000035
:0224A600000034
:0224A700000033
:0224A800000032
:0224A900000031
:0224AA00000030
:0224AB0000002F
:0224AC0000002E
:0224AD0000002D
:0224AE0000002C
:0224AF0000002B
:0224B00000002A
:0224B100000029
:0224B200000028
:0224B300000027
:0224B400000026
:0224B500000025
:0224B600000024
:0224B700000023
:0224B800000022
:0224B900000021
:0224BA00000020
:0224BB0000001F
:0224BC0000001E
:0224BD0000001D
:0224BE0000001C
:0224BF0000001B
:0224C00000001A
:0224C100000019
:0224C200000018
:0224C300000017
:0224C400000016
:0224C500000015
:0224C600000014
:0224C700000013
:0224C800000012
:0224C900000011
:0224CA00000010
:0224CB0000000F
:0224CC0000000E
:0224CD0000000D
:0224CE0000000C
:0224CF0000000B
:0224D00000000A
:0224D100000009
:0224D200000008
:0224D300000007
:0224D400000006
:0224D500000005
:0224D600000004
:0224D700000003
:0224D800000002
:0224D900000001
:0224DA00000000
:0224DB000000FF
:0224DC000000FE
:0224DD000000FD
:0224DE000000FC
:0224DF000000FB
:0224E0000000FA
:0224E1000000F9
:0224E2000000F8
:0224E3000000F7
:0224E4000000F6
:0224E5000000F5
:0224E6000000F4
:0224E7000000F3
:0224E8000000F2
:0224E9000000F1
:0224EA000000F0
:0224EB000000EF
:0224EC000000EE
:0224ED000000ED
:0224EE000000EC
:0224EF000000EB
:0224F0000000EA
:0224F1000000E9
:0224F2000000E8
:0224F3000000E7
:0224F4000000E6
:0224F5000000E5
:0224F6000000E4
:0224F7000000E3
:0224F8000000E2
:0224F9000000E1
:0224FA000000E0
:0224FB000000DF
:0224FC000000DE
:0224FD000000DD
:0224FE000000DC
:0224FF000000DB
:022500000000D9
:022501000000D8
:022502000000D7
:022503000000D6
:022504000000D5
:022505000000D4
:022506000000D3
:022507000000D2
:022508000000D1
:022509000000D0
:02250A000000CF
:02250B000000CE
:02250C000000CD
:02250D000000CC
:02250E000000CB
:02250F000000CA
:022510000000C9
:022511000000C8
:022512000000C7
:022513000000C6
:022514000000C5
:022515000000C4
:022516000000C3
:022517000000C2
:022518000000C1
:022519000000C0
:02251A000000BF
:02251B000000BE
:02251C000000BD
:02251D000000BC
:02251E000000BB
:02251F000000BA
:022520000000B9
:022521000000B8
:022522000000B7
:022523000000B6
:022524000000B5
:022525000000B4
:022526000000B3
:022527000000B2
:022528000000B1
:022529000000B0
:02252A000000AF
:02252B000000AE
:02252C000000AD
:02252D000000AC
:02252E000000AB
:02252F000000AA
:022530000000A9
:022531000000A8
:022532000000A7
:022533000000A6
:022534000000A5
:022535000000A4
:022536000000A3
:022537000000A2
:022538000000A1
:022539000000A0
:02253A0000009F
:02253B0000009E
:02253C0000009D
:02253D0000009C
:02253E0000009B
:02253F0000009A
:02254000000099
:02254100000098
:02254200000097
:02254300000096
:02254400000095
:02254500000094
:02254600000093
:02254700000092
:02254800000091
:02254900000090
:02254A0000008F
:02254B0000008E
:02254C0000008D
:02254D0000008C
:02254E0000008B
:02254F0000008A
:02255000000089
:02255100000088
:02255200000087
:02255300000086
:02255400000085
:02255500000084
:02255600000083
:02255700000082
:02255800000081
:02255900000080
:02255A0000007F
:02255B0000007E
:02255C0000007D
:02255D0000007C
:02255E0000007B
:02255F0000007A
:02256000000079
:02256100000078
:02256200000077
:02256300000076
:02256400000075
:02256500000074
:02256600000073
:02256700000072
:02256800000071
:02256900000070
:02256A0000006F
:02256B0000006E
:02256C0000006D
:02256D0000006C
:02256E0000006B
:02256F0000006A
:02257000000069
:02257100000068
:02257200000067
:02257300000066
:02257400000065
:02257500000064
:02257600000063
:02257700000062
:02257800000061
:02257900000060
:02257A0000005F
:02257B0000005E
:02257C0000005D
:02257D0000005C
:02257E0000005B
:02257F0000005A
:02258000000059
:02258100000058
:02258200000057
:02258300000056
:02258400000055
:02258500000054
:02258600000053
:02258700000052
:02258800000051
:02258900000050
:02258A0000004F
:02258B0000004E
:02258C0000004D
:02258D0000004C
:02258E0000004B
:02258F0000004A
:02259000000049
:02259100000048
:02259200000047
:02259300000046
:02259400000045
:02259500000044
:02259600000043
:02259700000042
:02259800000041
:02259900000040
:02259A0000003F
:02259B0000003E
:02259C0000003D
:02259D0000003C
:02259E0000003B
:02259F0000003A
:0225A000000039
:0225A100000038
:0225A200000037
:0225A300000036
:0225A400000035
:0225A500000034
:0225A600000033
:0225A700000032
:0225A800000031
:0225A900000030
:0225AA0000002F
:0225AB0000002E
:0225AC0000002D
:0225AD0000002C
:0225AE0000002B
:0225AF0000002A
:0225B000000029
:0225B100000028
:0225B200000027
:0225B300000026
:0225B400000025
:0225B500000024
:0225B600000023
:0225B700000022
:0225B800000021
:0225B900000020
:0225BA0000001F
:0225BB0000001E
:0225BC0000001D
:0225BD0000001C
:0225BE0000001B
:0225BF0000001A
:0225C000000019
:0225C100000018
:0225C200000017
:0225C300000016
:0225C400000015
:0225C500000014
:0225C600000013
:0225C700000012
:0225C800000011
:0225C900000010
:0225CA0000000F
:0225CB0000000E
:0225CC0000000D
:0225CD0000000C
:0225CE0000000B
:0225CF0000000A
:0225D000000009
:0225D100000008
:0225D200000007
:0225D300000006
:0225D400000005
:0225D500000004
:0225D600000003
:0225D700000002
:0225D800000001
:0225D900000000
:0225DA000000FF
:0225DB000000FE
:0225DC000000FD
:0225DD000000FC
:0225DE000000FB
:0225DF000000FA
:0225E0000000F9
:0225E1000000F8
:0225E2000000F7
:0225E3000000F6
:0225E4000000F5
:0225E5000000F4
:0225E6000000F3
:0225E7000000F2
:0225E8000000F1
:0225E9000000F0
:0225EA000000EF
:0225EB000000EE
:0225EC000000ED
:0225ED000000EC
:0225EE000000EB
:0225EF000000EA
:0225F0000000E9
:0225F1000000E8
:0225F2000000E7
:0225F3000000E6
:0225F4000000E5
:0225F5000000E4
:0225F6000000E3
:0225F7000000E2
:0225F8000000E1
:0225F9000000E0
:0225FA000000DF
:0225FB000000DE
:0225FC000000DD
:0225FD000000DC
:0225FE000000DB
:0225FF000000DA
:022600000000D8
:022601000000D7
:022602000000D6
:022603000000D5
:022604000000D4
:022605000000D3
:022606000000D2
:022607000000D1
:022608000000D0
:022609000000CF
:02260A000000CE
:02260B000000CD
:02260C000000CC
:02260D000000CB
:02260E000000CA
:02260F000000C9
:022610000000C8
:022611000000C7
:022612000000C6
:022613000000C5
:022614000000C4
:022615000000C3
:022616000000C2
:022617000000C1
:022618000000C0
:022619000000BF
:02261A000000BE
:02261B000000BD
:02261C000000BC
:02261D000000BB
:02261E000000BA
:02261F000000B9
:022620000000B8
:022621000000B7
:022622000000B6
:022623000000B5
:022624000000B4
:022625000000B3
:022626000000B2
:022627000000B1
:022628000000B0
:022629000000AF
:02262A000000AE
:02262B000000AD
:02262C000000AC
:02262D000000AB
:02262E000000AA
:02262F000000A9
:022630000000A8
:022631000000A7
:022632000000A6
:022633000000A5
:022634000000A4
:022635000000A3
:022636000000A2
:022637000000A1
:022638000000A0
:0226390000009F
:02263A0000009E
:02263B0000009D
:02263C0000009C
:02263D0000009B
:02263E0000009A
:02263F00000099
:02264000000098
:02264100000097
:02264200000096
:02264300000095
:02264400000094
:02264500000093
:02264600000092
:02264700000091
:02264800000090
:0226490000008F
:02264A0000008E
:02264B0000008D
:02264C0000008C
:02264D0000008B
:02264E0000008A
:02264F00000089
:02265000000088
:02265100000087
:02265200000086
:02265300000085
:02265400000084
:02265500000083
:02265600000082
:02265700000081
:02265800000080
:0226590000007F
:02265A0000007E
:02265B0000007D
:02265C0000007C
:02265D0000007B
:02265E0000007A
:02265F00000079
:02266000000078
:02266100000077
:02266200000076
:02266300000075
:02266400000074
:02266500000073
:02266600000072
:02266700000071
:02266800000070
:0226690000006F
:02266A0000006E
:02266B0000006D
:02266C0000006C
:02266D0000006B
:02266E0000006A
:02266F00000069
:02267000000068
:02267100000067
:02267200000066
:02267300000065
:02267400000064
:02267500000063
:02267600000062
:02267700000061
:02267800000060
:0226790000005F
:02267A0000005E
:02267B0000005D
:02267C0000005C
:02267D0000005B
:02267E0000005A
:02267F00000059
:02268000000058
:02268100000057
:02268200000056
:02268300000055
:02268400000054
:02268500000053
:02268600000052
:02268700000051
:02268800000050
:0226890000004F
:02268A0000004E
:02268B0000004D
:02268C0000004C
:02268D0000004B
:02268E0000004A
:02268F00000049
:02269000000048
:02269100000047
:02269200000046
:02269300000045
:02269400000044
:02269500000043
:02269600000042
:02269700000041
:02269800000040
:0226990000003F
:02269A0000003E
:02269B0000003D
:02269C0000003C
:02269D0000003B
:02269E0000003A
:02269F00000039
:0226A000000038
:0226A100000037
:0226A200000036
:0226A300000035
:0226A400000034
:0226A500000033
:0226A600000032
:0226A700000031
:0226A800000030
:0226A90000002F
:0226AA0000002E
:0226AB0000002D
:0226AC0000002C
:0226AD0000002B
:0226AE0000002A
:0226AF00000029
:0226B000000028
:0226B100000027
:0226B200000026
:0226B300000025
:0226B400000024
:0226B500000023
:0226B600000022
:0226B700000021
:0226B800000020
:0226B90000001F
:0226BA0000001E
:0226BB0000001D
:0226BC0000001C
:0226BD0000001B
:0226BE0000001A
:0226BF00000019
:0226C000000018
:0226C100000017
:0226C200000016
:0226C300000015
:0226C400000014
:0226C500000013
:0226C600000012
:0226C700000011
:0226C800000010
:0226C90000000F
:0226CA0000000E
:0226CB0000000D
:0226CC0000000C
:0226CD0000000B
:0226CE0000000A
:0226CF00000009
:0226D000000008
:0226D100000007
:0226D200000006
:0226D300000005
:0226D400000004
:0226D500000003
:0226D600000002
:0226D700000001
:0226D800000000
:0226D9000000FF
:0226DA000000FE
:0226DB000000FD
:0226DC000000FC
:0226DD000000FB
:0226DE000000FA
:0226DF000000F9
:0226E0000000F8
:0226E1000000F7
:0226E2000000F6
:0226E3000000F5
:0226E4000000F4
:0226E5000000F3
:0226E6000000F2
:0226E7000000F1
:0226E8000000F0
:0226E9000000EF
:0226EA000000EE
:0226EB000000ED
:0226EC000000EC
:0226ED000000EB
:0226EE000000EA
:0226EF000000E9
:0226F0000000E8
:0226F1000000E7
:0226F2000000E6
:0226F3000000E5
:0226F4000000E4
:0226F5000000E3
:0226F6000000E2
:0226F7000000E1
:0226F8000000E0
:0226F9000000DF
:0226FA000000DE
:0226FB000000DD
:0226FC000000DC
:0226FD000000DB
:0226FE000000DA
:0226FF000000D9
:022700000000D7
:022701000000D6
:022702000000D5
:022703000000D4
:022704000000D3
:022705000000D2
:022706000000D1
:022707000000D0
:022708000000CF
:022709000000CE
:02270A000000CD
:02270B000000CC
:02270C000000CB
:02270D000000CA
:02270E000000C9
:02270F000000C8
:022710000000C7
:022711000000C6
:022712000000C5
:022713000000C4
:022714000000C3
:022715000000C2
:022716000000C1
:022717000000C0
:022718000000BF
:022719000000BE
:02271A000000BD
:02271B000000BC
:02271C000000BB
:02271D000000BA
:02271E000000B9
:02271F000000B8
:022720000000B7
:022721000000B6
:022722000000B5
:022723000000B4
:022724000000B3
:022725000000B2
:022726000000B1
:022727000000B0
:022728000000AF
:022729000000AE
:02272A000000AD
:02272B000000AC
:02272C000000AB
:02272D000000AA
:02272E000000A9
:02272F000000A8
:022730000000A7
:022731000000A6
:022732000000A5
:022733000000A4
:022734000000A3
:022735000000A2
:022736000000A1
:022737000000A0
:0227380000009F
:0227390000009E
:02273A0000009D
:02273B0000009C
:02273C0000009B
:02273D0000009A
:02273E00000099
:02273F00000098
:02274000000097
:02274100000096
:02274200000095
:02274300000094
:02274400000093
:02274500000092
:02274600000091
:02274700000090
:0227480000008F
:0227490000008E
:02274A0000008D
:02274B0000008C
:02274C0000008B
:02274D0000008A
:02274E00000089
:02274F00000088
:02275000000087
:02275100000086
:02275200000085
:02275300000084
:02275400000083
:02275500000082
:02275600000081
:02275700000080
:0227580000007F
:0227590000007E
:02275A0000007D
:02275B0000007C
:02275C0000007B
:02275D0000007A
:02275E00000079
:02275F00000078
:02276000000077
:02276100000076
:02276200000075
:02276300000074
:02276400000073
:02276500000072
:02276600000071
:02276700000070
:0227680000006F
:0227690000006E
:02276A0000006D
:02276B0000006C
:02276C0000006B
:02276D0000006A
:02276E00000069
:02276F00000068
:02277000000067
:02277100000066
:02277200000065
:02277300000064
:02277400000063
:02277500000062
:02277600000061
:02277700000060
:0227780000005F
:0227790000005E
:02277A0000005D
:02277B0000005C
:02277C0000005B
:02277D0000005A
:02277E00000059
:02277F00000058
:02278000000057
:02278100000056
:02278200000055
:02278300000054
:02278400000053
:02278500000052
:02278600000051
:02278700000050
:0227880000004F
:0227890000004E
:02278A0000004D
:02278B0000004C
:02278C0000004B
:02278D0000004A
:02278E00000049
:02278F00000048
:02279000000047
:02279100000046
:02279200000045
:02279300000044
:02279400000043
:02279500000042
:02279600000041
:02279700000040
:0227980000003F
:0227990000003E
:02279A0000003D
:02279B0000003C
:02279C0000003B
:02279D0000003A
:02279E00000039
:02279F00000038
:0227A000000037
:0227A100000036
:0227A200000035
:0227A300000034
:0227A400000033
:0227A500000032
:0227A600000031
:0227A700000030
:0227A80000002F
:0227A90000002E
:0227AA0000002D
:0227AB0000002C
:0227AC0000002B
:0227AD0000002A
:0227AE00000029
:0227AF00000028
:0227B000000027
:0227B100000026
:0227B200000025
:0227B300000024
:0227B400000023
:0227B500000022
:0227B600000021
:0227B700000020
:0227B80000001F
:0227B90000001E
:0227BA0000001D
:0227BB0000001C
:0227BC0000001B
:0227BD0000001A
:0227BE00000019
:0227BF00000018
:0227C000000017
:0227C100000016
:0227C200000015
:0227C300000014
:0227C400000013
:0227C500000012
:0227C600000011
:0227C700000010
:0227C80000000F
:0227C90000000E
:0227CA0000000D
:0227CB0000000C
:0227CC0000000B
:0227CD0000000A
:0227CE00000009
:0227CF00000008
:0227D000000007
:0227D100000006
:0227D200000005
:0227D300000004
:0227D400000003
:0227D500000002
:0227D600000001
:0227D700000000
:0227D8000000FF
:0227D9000000FE
:0227DA000000FD
:0227DB000000FC
:0227DC000000FB
:0227DD000000FA
:0227DE000000F9
:0227DF000000F8
:0227E0000000F7
:0227E1000000F6
:0227E2000000F5
:0227E3000000F4
:0227E4000000F3
:0227E5000000F2
:0227E6000000F1
:0227E7000000F0
:0227E8000000EF
:0227E9000000EE
:0227EA000000ED
:0227EB000000EC
:0227EC000000EB
:0227ED000000EA
:0227EE000000E9
:0227EF000000E8
:0227F0000000E7
:0227F1000000E6
:0227F2000000E5
:0227F3000000E4
:0227F4000000E3
:0227F5000000E2
:0227F6000000E1
:0227F7000000E0
:0227F8000000DF
:0227F9000000DE
:0227FA000000DD
:0227FB000000DC
:0227FC000000DB
:0227FD000000DA
:0227FE000000D9
:0227FF000000D8
:022800000000D6
:022801000000D5
:022802000000D4
:022803000000D3
:022804000000D2
:022805000000D1
:022806000000D0
:022807000000CF
:022808000000CE
:022809000000CD
:02280A000000CC
:02280B000000CB
:02280C000000CA
:02280D000000C9
:02280E000000C8
:02280F000000C7
:022810000000C6
:022811000000C5
:022812000000C4
:022813000000C3
:022814000000C2
:022815000000C1
:022816000000C0
:022817000000BF
:022818000000BE
:022819000000BD
:02281A000000BC
:02281B000000BB
:02281C000000BA
:02281D000000B9
:02281E000000B8
:02281F000000B7
:022820000000B6
:022821000000B5
:022822000000B4
:022823000000B3
:022824000000B2
:022825000000B1
:022826000000B0
:022827000000AF
:022828000000AE
:022829000000AD
:02282A000000AC
:02282B000000AB
:02282C000000AA
:02282D000000A9
:02282E000000A8
:02282F000000A7
:022830000000A6
:022831000000A5
:022832000000A4
:022833000000A3
:022834000000A2
:022835000000A1
:022836000000A0
:0228370000009F
:0228380000009E
:0228390000009D
:02283A0000009C
:02283B0000009B
:02283C0000009A
:02283D00000099
:02283E00000098
:02283F00000097
:02284000000096
:02284100000095
:02284200000094
:02284300000093
:02284400000092
:02284500000091
:02284600000090
:0228470000008F
:0228480000008E
:0228490000008D
:02284A0000008C
:02284B0000008B
:02284C0000008A
:02284D00000089
:02284E00000088
:02284F00000087
:02285000000086
:02285100000085
:02285200000084
:02285300000083
:02285400000082
:02285500000081
:02285600000080
:0228570000007F
:0228580000007E
:0228590000007D
:02285A0000007C
:02285B0000007B
:02285C0000007A
:02285D00000079
:02285E00000078
:02285F00000077
:02286000000076
:02286100000075
:02286200000074
:02286300000073
:02286400000072
:02286500000071
:02286600000070
:0228670000006F
:0228680000006E
:0228690000006D
:02286A0000006C
:02286B0000006B
:02286C0000006A
:02286D00000069
:02286E00000068
:02286F00000067
:02287000000066
:02287100000065
:02287200000064
:02287300000063
:02287400000062
:02287500000061
:02287600000060
:0228770000005F
:0228780000005E
:0228790000005D
:02287A0000005C
:02287B0000005B
:02287C0000005A
:02287D00000059
:02287E00000058
:02287F00000057
:02288000000056
:02288100000055
:02288200000054
:02288300000053
:02288400000052
:02288500000051
:02288600000050
:0228870000004F
:0228880000004E
:0228890000004D
:02288A0000004C
:02288B0000004B
:02288C0000004A
:02288D00000049
:02288E00000048
:02288F00000047
:02289000000046
:02289100000045
:02289200000044
:02289300000043
:02289400000042
:02289500000041
:02289600000040
:0228970000003F
:0228980000003E
:0228990000003D
:02289A0000003C
:02289B0000003B
:02289C0000003A
:02289D00000039
:02289E00000038
:02289F00000037
:0228A000000036
:0228A100000035
:0228A200000034
:0228A300000033
:0228A400000032
:0228A500000031
:0228A600000030
:0228A70000002F
:0228A80000002E
:0228A90000002D
:0228AA0000002C
:0228AB0000002B
:0228AC0000002A
:0228AD00000029
:0228AE00000028
:0228AF00000027
:0228B000000026
:0228B100000025
:0228B200000024
:0228B300000023
:0228B400000022
:0228B500000021
:0228B600000020
:0228B70000001F
:0228B80000001E
:0228B90000001D
:0228BA0000001C
:0228BB0000001B
:0228BC0000001A
:0228BD00000019
:0228BE00000018
:0228BF00000017
:0228C000000016
:0228C100000015
:0228C200000014
:0228C300000013
:0228C400000012
:0228C500000011
:0228C600000010
:0228C70000000F
:0228C80000000E
:0228C90000000D
:0228CA0000000C
:0228CB0000000B
:0228CC0000000A
:0228CD00000009
:0228CE00000008
:0228CF00000007
:0228D000000006
:0228D100000005
:0228D200000004
:0228D300000003
:0228D400000002
:0228D500000001
:0228D600000000
:0228D7000000FF
:0228D8000000FE
:0228D9000000FD
:0228DA000000FC
:0228DB000000FB
:0228DC000000FA
:0228DD000000F9
:0228DE000000F8
:0228DF000000F7
:0228E0000000F6
:0228E1000000F5
:0228E2000000F4
:0228E3000000F3
:0228E4000000F2
:0228E5000000F1
:0228E6000000F0
:0228E7000000EF
:0228E8000000EE
:0228E9000000ED
:0228EA000000EC
:0228EB000000EB
:0228EC000000EA
:0228ED000000E9
:0228EE000000E8
:0228EF000000E7
:0228F0000000E6
:0228F1000000E5
:0228F2000000E4
:0228F3000000E3
:0228F4000000E2
:0228F5000000E1
:0228F6000000E0
:0228F7000000DF
:0228F8000000DE
:0228F9000000DD
:0228FA000000DC
:0228FB000000DB
:0228FC000000DA
:0228FD000000D9
:0228FE000000D8
:0228FF000000D7
:022900000000D5
:022901000000D4
:022902000000D3
:022903000000D2
:022904000000D1
:022905000000D0
:022906000000CF
:022907000000CE
:022908000000CD
:022909000000CC
:02290A000000CB
:02290B000000CA
:02290C000000C9
:02290D000000C8
:02290E000000C7
:02290F000000C6
:022910000000C5
:022911000000C4
:022912000000C3
:022913000000C2
:022914000000C1
:022915000000C0
:022916000000BF
:022917000000BE
:022918000000BD
:022919000000BC
:02291A000000BB
:02291B000000BA
:02291C000000B9
:02291D000000B8
:02291E000000B7
:02291F000000B6
:022920000000B5
:022921000000B4
:022922000000B3
:022923000000B2
:022924000000B1
:022925000000B0
:022926000000AF
:022927000000AE
:022928000000AD
:022929000000AC
:02292A000000AB
:02292B000000AA
:02292C000000A9
:02292D000000A8
:02292E000000A7
:02292F000000A6
:022930000000A5
:022931000000A4
:022932000000A3
:022933000000A2
:022934000000A1
:022935000000A0
:0229360000009F
:0229370000009E
:0229380000009D
:0229390000009C
:02293A0000009B
:02293B0000009A
:02293C00000099
:02293D00000098
:02293E00000097
:02293F00000096
:02294000000095
:02294100000094
:02294200000093
:02294300000092
:02294400000091
:02294500000090
:0229460000008F
:0229470000008E
:0229480000008D
:0229490000008C
:02294A0000008B
:02294B0000008A
:02294C00000089
:02294D00000088
:02294E00000087
:02294F00000086
:02295000000085
:02295100000084
:02295200000083
:02295300000082
:02295400000081
:02295500000080
:0229560000007F
:0229570000007E
:0229580000007D
:0229590000007C
:02295A0000007B
:02295B0000007A
:02295C00000079
:02295D00000078
:02295E00000077
:02295F00000076
:02296000000075
:02296100000074
:02296200000073
:02296300000072
:02296400000071
:02296500000070
:0229660000006F
:0229670000006E
:0229680000006D
:0229690000006C
:02296A0000006B
:02296B0000006A
:02296C00000069
:02296D00000068
:02296E00000067
:02296F00000066
:02297000000065
:02297100000064
:02297200000063
:02297300000062
:02297400000061
:02297500000060
:0229760000005F
:0229770000005E
:0229780000005D
:0229790000005C
:02297A0000005B
:02297B0000005A
:02297C00000059
:02297D00000058
:02297E00000057
:02297F00000056
:02298000000055
:02298100000054
:02298200000053
:02298300000052
:02298400000051
:02298500000050
:0229860000004F
:0229870000004E
:0229880000004D
:0229890000004C
:02298A0000004B
:02298B0000004A
:02298C00000049
:02298D00000048
:02298E00000047
:02298F00000046
:02299000000045
:02299100000044
:02299200000043
:02299300000042
:02299400000041
:02299500000040
:0229960000003F
:0229970000003E
:0229980000003D
:0229990000003C
:02299A0000003B
:02299B0000003A
:02299C00000039
:02299D00000038
:02299E00000037
:02299F00000036
:0229A000000035
:0229A100000034
:0229A200000033
:0229A300000032
:0229A400000031
:0229A500000030
:0229A60000002F
:0229A70000002E
:0229A80000002D
:0229A90000002C
:0229AA0000002B
:0229AB0000002A
:0229AC00000029
:0229AD00000028
:0229AE00000027
:0229AF00000026
:0229B000000025
:0229B100000024
:0229B200000023
:0229B300000022
:0229B400000021
:0229B500000020
:0229B60000001F
:0229B70000001E
:0229B80000001D
:0229B90000001C
:0229BA0000001B
:0229BB0000001A
:0229BC00000019
:0229BD00000018
:0229BE00000017
:0229BF00000016
:0229C000000015
:0229C100000014
:0229C200000013
:0229C300000012
:0229C400000011
:0229C500000010
:0229C60000000F
:0229C70000000E
:0229C80000000D
:0229C90000000C
:0229CA0000000B
:0229CB0000000A
:0229CC00000009
:0229CD00000008
:0229CE00000007
:0229CF00000006
:0229D000000005
:0229D100000004
:0229D200000003
:0229D300000002
:0229D400000001
:0229D500000000
:0229D6000000FF
:0229D7000000FE
:0229D8000000FD
:0229D9000000FC
:0229DA000000FB
:0229DB000000FA
:0229DC000000F9
:0229DD000000F8
:0229DE000000F7
:0229DF000000F6
:0229E0000000F5
:0229E1000000F4
:0229E2000000F3
:0229E3000000F2
:0229E4000000F1
:0229E5000000F0
:0229E6000000EF
:0229E7000000EE
:0229E8000000ED
:0229E9000000EC
:0229EA000000EB
:0229EB000000EA
:0229EC000000E9
:0229ED000000E8
:0229EE000000E7
:0229EF000000E6
:0229F0000000E5
:0229F1000000E4
:0229F2000000E3
:0229F3000000E2
:0229F4000000E1
:0229F5000000E0
:0229F6000000DF
:0229F7000000DE
:0229F8000000DD
:0229F9000000DC
:0229FA000000DB
:0229FB000000DA
:0229FC000000D9
:0229FD000000D8
:0229FE000000D7
:0229FF000000D6
:022A00000000D4
:022A01000000D3
:022A02000000D2
:022A03000000D1
:022A04000000D0
:022A05000000CF
:022A06000000CE
:022A07000000CD
:022A08000000CC
:022A09000000CB
:022A0A000000CA
:022A0B000000C9
:022A0C000000C8
:022A0D000000C7
:022A0E000000C6
:022A0F000000C5
:022A10000000C4
:022A11000000C3
:022A12000000C2
:022A13000000C1
:022A14000000C0
:022A15000000BF
:022A16000000BE
:022A17000000BD
:022A18000000BC
:022A19000000BB
:022A1A000000BA
:022A1B000000B9
:022A1C000000B8
:022A1D000000B7
:022A1E000000B6
:022A1F000000B5
:022A20000000B4
:022A21000000B3
:022A22000000B2
:022A23000000B1
:022A24000000B0
:022A25000000AF
:022A26000000AE
:022A27000000AD
:022A28000000AC
:022A29000000AB
:022A2A000000AA
:022A2B000000A9
:022A2C000000A8
:022A2D000000A7
:022A2E000000A6
:022A2F000000A5
:022A30000000A4
:022A31000000A3
:022A32000000A2
:022A33000000A1
:022A34000000A0
:022A350000009F
:022A360000009E
:022A370000009D
:022A380000009C
:022A390000009B
:022A3A0000009A
:022A3B00000099
:022A3C00000098
:022A3D00000097
:022A3E00000096
:022A3F00000095
:022A4000000094
:022A4100000093
:022A4200000092
:022A4300000091
:022A4400000090
:022A450000008F
:022A460000008E
:022A470000008D
:022A480000008C
:022A490000008B
:022A4A0000008A
:022A4B00000089
:022A4C00000088
:022A4D00000087
:022A4E00000086
:022A4F00000085
:022A5000000084
:022A5100000083
:022A5200000082
:022A5300000081
:022A5400000080
:022A550000007F
:022A560000007E
:022A570000007D
:022A580000007C
:022A590000007B
:022A5A0000007A
:022A5B00000079
:022A5C00000078
:022A5D00000077
:022A5E00000076
:022A5F00000075
:022A6000000074
:022A6100000073
:022A6200000072
:022A6300000071
:022A6400000070
:022A650000006F
:022A660000006E
:022A670000006D
:022A680000006C
:022A690000006B
:022A6A0000006A
:022A6B00000069
:022A6C00000068
:022A6D00000067
:022A6E00000066
:022A6F00000065
:022A7000000064
:022A7100000063
:022A7200000062
:022A7300000061
:022A7400000060
:022A750000005F
:022A760000005E
:022A770000005D
:022A780000005C
:022A790000005B
:022A7A0000005A
:022A7B00000059
:022A7C00000058
:022A7D00000057
:022A7E00000056
:022A7F00000055
:022A8000000054
:022A8100000053
:022A8200000052
:022A8300000051
:022A8400000050
:022A850000004F
:022A860000004E
:022A870000004D
:022A880000004C
:022A890000004B
:022A8A0000004A
:022A8B00000049
:022A8C00000048
:022A8D00000047
:022A8E00000046
:022A8F00000045
:022A9000000044
:022A9100000043
:022A9200000042
:022A9300000041
:022A9400000040
:022A950000003F
:022A960000003E
:022A970000003D
:022A980000003C
:022A990000003B
:022A9A0000003A
:022A9B00000039
:022A9C00000038
:022A9D00000037
:022A9E00000036
:022A9F00000035
:022AA000000034
:022AA100000033
:022AA200000032
:022AA300000031
:022AA400000030
:022AA50000002F
:022AA60000002E
:022AA70000002D
:022AA80000002C
:022AA90000002B
:022AAA0000002A
:022AAB00000029
:022AAC00000028
:022AAD00000027
:022AAE00000026
:022AAF00000025
:022AB000000024
:022AB100000023
:022AB200000022
:022AB300000021
:022AB400000020
:022AB50000001F
:022AB60000001E
:022AB70000001D
:022AB80000001C
:022AB90000001B
:022ABA0000001A
:022ABB00000019
:022ABC00000018
:022ABD00000017
:022ABE00000016
:022ABF00000015
:022AC000000014
:022AC100000013
:022AC200000012
:022AC300000011
:022AC400000010
:022AC50000000F
:022AC60000000E
:022AC70000000D
:022AC80000000C
:022AC90000000B
:022ACA0000000A
:022ACB00000009
:022ACC00000008
:022ACD00000007
:022ACE00000006
:022ACF00000005
:022AD000000004
:022AD100000003
:022AD200000002
:022AD300000001
:022AD400000000
:022AD5000000FF
:022AD6000000FE
:022AD7000000FD
:022AD8000000FC
:022AD9000000FB
:022ADA000000FA
:022ADB000000F9
:022ADC000000F8
:022ADD000000F7
:022ADE000000F6
:022ADF000000F5
:022AE0000000F4
:022AE1000000F3
:022AE2000000F2
:022AE3000000F1
:022AE4000000F0
:022AE5000000EF
:022AE6000000EE
:022AE7000000ED
:022AE8000000EC
:022AE9000000EB
:022AEA000000EA
:022AEB000000E9
:022AEC000000E8
:022AED000000E7
:022AEE000000E6
:022AEF000000E5
:022AF0000000E4
:022AF1000000E3
:022AF2000000E2
:022AF3000000E1
:022AF4000000E0
:022AF5000000DF
:022AF6000000DE
:022AF7000000DD
:022AF8000000DC
:022AF9000000DB
:022AFA000000DA
:022AFB000000D9
:022AFC000000D8
:022AFD000000D7
:022AFE000000D6
:022AFF000000D5
:022B00000000D3
:022B01000000D2
:022B02000000D1
:022B03000000D0
:022B04000000CF
:022B05000000CE
:022B06000000CD
:022B07000000CC
:022B08000000CB
:022B09000000CA
:022B0A000000C9
:022B0B000000C8
:022B0C000000C7
:022B0D000000C6
:022B0E000000C5
:022B0F000000C4
:022B10000000C3
:022B11000000C2
:022B12000000C1
:022B13000000C0
:022B14000000BF
:022B15000000BE
:022B16000000BD
:022B17000000BC
:022B18000000BB
:022B19000000BA
:022B1A000000B9
:022B1B000000B8
:022B1C000000B7
:022B1D000000B6
:022B1E000000B5
:022B1F000000B4
:022B20000000B3
:022B21000000B2
:022B22000000B1
:022B23000000B0
:022B24000000AF
:022B25000000AE
:022B26000000AD
:022B27000000AC
:022B28000000AB
:022B29000000AA
:022B2A000000A9
:022B2B000000A8
:022B2C000000A7
:022B2D000000A6
:022B2E000000A5
:022B2F000000A4
:022B30000000A3
:022B31000000A2
:022B32000000A1
:022B33000000A0
:022B340000009F
:022B350000009E
:022B360000009D
:022B370000009C
:022B380000009B
:022B390000009A
:022B3A00000099
:022B3B00000098
:022B3C00000097
:022B3D00000096
:022B3E00000095
:022B3F00000094
:022B4000000093
:022B4100000092
:022B4200000091
:022B4300000090
:022B440000008F
:022B450000008E
:022B460000008D
:022B470000008C
:022B480000008B
:022B490000008A
:022B4A00000089
:022B4B00000088
:022B4C00000087
:022B4D00000086
:022B4E00000085
:022B4F00000084
:022B5000000083
:022B5100000082
:022B5200000081
:022B5300000080
:022B540000007F
:022B550000007E
:022B560000007D
:022B570000007C
:022B580000007B
:022B590000007A
:022B5A00000079
:022B5B00000078
:022B5C00000077
:022B5D00000076
:022B5E00000075
:022B5F00000074
:022B6000000073
:022B6100000072
:022B6200000071
:022B6300000070
:022B640000006F
:022B650000006E
:022B660000006D
:022B670000006C
:022B680000006B
:022B690000006A
:022B6A00000069
:022B6B00000068
:022B6C00000067
:022B6D00000066
:022B6E00000065
:022B6F00000064
:022B7000000063
:022B7100000062
:022B7200000061
:022B7300000060
:022B740000005F
:022B750000005E
:022B760000005D
:022B770000005C
:022B780000005B
:022B790000005A
:022B7A00000059
:022B7B00000058
:022B7C00000057
:022B7D00000056
:022B7E00000055
:022B7F00000054
:022B8000000053
:022B8100000052
:022B8200000051
:022B8300000050
:022B840000004F
:022B850000004E
:022B860000004D
:022B870000004C
:022B880000004B
:022B890000004A
:022B8A00000049
:022B8B00000048
:022B8C00000047
:022B8D00000046
:022B8E00000045
:022B8F00000044
:022B9000000043
:022B9100000042
:022B9200000041
:022B9300000040
:022B940000003F
:022B950000003E
:022B960000003D
:022B970000003C
:022B980000003B
:022B990000003A
:022B9A00000039
:022B9B00000038
:022B9C00000037
:022B9D00000036
:022B9E00000035
:022B9F00000034
:022BA000000033
:022BA100000032
:022BA200000031
:022BA300000030
:022BA40000002F
:022BA50000002E
:022BA60000002D
:022BA70000002C
:022BA80000002B
:022BA90000002A
:022BAA00000029
:022BAB00000028
:022BAC00000027
:022BAD00000026
:022BAE00000025
:022BAF00000024
:022BB000000023
:022BB100000022
:022BB200000021
:022BB300000020
:022BB40000001F
:022BB50000001E
:022BB60000001D
:022BB70000001C
:022BB80000001B
:022BB90000001A
:022BBA00000019
:022BBB00000018
:022BBC00000017
:022BBD00000016
:022BBE00000015
:022BBF00000014
:022BC000000013
:022BC100000012
:022BC200000011
:022BC300000010
:022BC40000000F
:022BC50000000E
:022BC60000000D
:022BC70000000C
:022BC80000000B
:022BC90000000A
:022BCA00000009
:022BCB00000008
:022BCC00000007
:022BCD00000006
:022BCE00000005
:022BCF00000004
:022BD000000003
:022BD100000002
:022BD200000001
:022BD300000000
:022BD4000000FF
:022BD5000000FE
:022BD6000000FD
:022BD7000000FC
:022BD8000000FB
:022BD9000000FA
:022BDA000000F9
:022BDB000000F8
:022BDC000000F7
:022BDD000000F6
:022BDE000000F5
:022BDF000000F4
:022BE0000000F3
:022BE1000000F2
:022BE2000000F1
:022BE3000000F0
:022BE4000000EF
:022BE5000000EE
:022BE6000000ED
:022BE7000000EC
:022BE8000000EB
:022BE9000000EA
:022BEA000000E9
:022BEB000000E8
:022BEC000000E7
:022BED000000E6
:022BEE000000E5
:022BEF000000E4
:022BF0000000E3
:022BF1000000E2
:022BF2000000E1
:022BF3000000E0
:022BF4000000DF
:022BF5000000DE
:022BF6000000DD
:022BF7000000DC
:022BF8000000DB
:022BF9000000DA
:022BFA000000D9
:022BFB000000D8
:022BFC000000D7
:022BFD000000D6
:022BFE000000D5
:022BFF000000D4
:022C00000000D2
:022C01000000D1
:022C02000000D0
:022C03000000CF
:022C04000000CE
:022C05000000CD
:022C06000000CC
:022C07000000CB
:022C08000000CA
:022C09000000C9
:022C0A000000C8
:022C0B000000C7
:022C0C000000C6
:022C0D000000C5
:022C0E000000C4
:022C0F000000C3
:022C10000000C2
:022C11000000C1
:022C12000000C0
:022C13000000BF
:022C14000000BE
:022C15000000BD
:022C16000000BC
:022C17000000BB
:022C18000000BA
:022C19000000B9
:022C1A000000B8
:022C1B000000B7
:022C1C000000B6
:022C1D000000B5
:022C1E000000B4
:022C1F000000B3
:022C20000000B2
:022C21000000B1
:022C22000000B0
:022C23000000AF
:022C24000000AE
:022C25000000AD
:022C26000000AC
:022C27000000AB
:022C28000000AA
:022C29000000A9
:022C2A000000A8
:022C2B000000A7
:022C2C000000A6
:022C2D000000A5
:022C2E000000A4
:022C2F000000A3
:022C30000000A2
:022C31000000A1
:022C32000000A0
:022C330000009F
:022C340000009E
:022C350000009D
:022C360000009C
:022C370000009B
:022C380000009A
:022C3900000099
:022C3A00000098
:022C3B00000097
:022C3C00000096
:022C3D00000095
:022C3E00000094
:022C3F00000093
:022C4000000092
:022C4100000091
:022C4200000090
:022C430000008F
:022C440000008E
:022C450000008D
:022C460000008C
:022C470000008B
:022C480000008A
:022C4900000089
:022C4A00000088
:022C4B00000087
:022C4C00000086
:022C4D00000085
:022C4E00000084
:022C4F00000083
:022C5000000082
:022C5100000081
:022C5200000080
:022C530000007F
:022C540000007E
:022C550000007D
:022C560000007C
:022C570000007B
:022C580000007A
:022C5900000079
:022C5A00000078
:022C5B00000077
:022C5C00000076
:022C5D00000075
:022C5E00000074
:022C5F00000073
:022C6000000072
:022C6100000071
:022C6200000070
:022C630000006F
:022C640000006E
:022C650000006D
:022C660000006C
:022C670000006B
:022C680000006A
:022C6900000069
:022C6A00000068
:022C6B00000067
:022C6C00000066
:022C6D00000065
:022C6E00000064
:022C6F00000063
:022C7000000062
:022C7100000061
:022C7200000060
:022C730000005F
:022C740000005E
:022C750000005D
:022C760000005C
:022C770000005B
:022C780000005A
:022C7900000059
:022C7A00000058
:022C7B00000057
:022C7C00000056
:022C7D00000055
:022C7E00000054
:022C7F00000053
:022C8000000052
:022C8100000051
:022C8200000050
:022C830000004F
:022C840000004E
:022C850000004D
:022C860000004C
:022C870000004B
:022C880000004A
:022C8900000049
:022C8A00000048
:022C8B00000047
:022C8C00000046
:022C8D00000045
:022C8E00000044
:022C8F00000043
:022C9000000042
:022C9100000041
:022C9200000040
:022C930000003F
:022C940000003E
:022C950000003D
:022C960000003C
:022C970000003B
:022C980000003A
:022C9900000039
:022C9A00000038
:022C9B00000037
:022C9C00000036
:022C9D00000035
:022C9E00000034
:022C9F00000033
:022CA000000032
:022CA100000031
:022CA200000030
:022CA30000002F
:022CA40000002E
:022CA50000002D
:022CA60000002C
:022CA70000002B
:022CA80000002A
:022CA900000029
:022CAA00000028
:022CAB00000027
:022CAC00000026
:022CAD00000025
:022CAE00000024
:022CAF00000023
:022CB000000022
:022CB100000021
:022CB200000020
:022CB30000001F
:022CB40000001E
:022CB50000001D
:022CB60000001C
:022CB70000001B
:022CB80000001A
:022CB900000019
:022CBA00000018
:022CBB00000017
:022CBC00000016
:022CBD00000015
:022CBE00000014
:022CBF00000013
:022CC000000012
:022CC100000011
:022CC200000010
:022CC30000000F
:022CC40000000E
:022CC50000000D
:022CC60000000C
:022CC70000000B
:022CC80000000A
:022CC900000009
:022CCA00000008
:022CCB00000007
:022CCC00000006
:022CCD00000005
:022CCE00000004
:022CCF00000003
:022CD000000002
:022CD100000001
:022CD200000000
:022CD3000000FF
:022CD4000000FE
:022CD5000000FD
:022CD6000000FC
:022CD7000000FB
:022CD8000000FA
:022CD9000000F9
:022CDA000000F8
:022CDB000000F7
:022CDC000000F6
:022CDD000000F5
:022CDE000000F4
:022CDF000000F3
:022CE0000000F2
:022CE1000000F1
:022CE2000000F0
:022CE3000000EF
:022CE4000000EE
:022CE5000000ED
:022CE6000000EC
:022CE7000000EB
:022CE8000000EA
:022CE9000000E9
:022CEA000000E8
:022CEB000000E7
:022CEC000000E6
:022CED000000E5
:022CEE000000E4
:022CEF000000E3
:022CF0000000E2
:022CF1000000E1
:022CF2000000E0
:022CF3000000DF
:022CF4000000DE
:022CF5000000DD
:022CF6000000DC
:022CF7000000DB
:022CF8000000DA
:022CF9000000D9
:022CFA000000D8
:022CFB000000D7
:022CFC000000D6
:022CFD000000D5
:022CFE000000D4
:022CFF000000D3
:022D00000000D1
:022D01000000D0
:022D02000000CF
:022D03000000CE
:022D04000000CD
:022D05000000CC
:022D06000000CB
:022D07000000CA
:022D08000000C9
:022D09000000C8
:022D0A000000C7
:022D0B000000C6
:022D0C000000C5
:022D0D000000C4
:022D0E000000C3
:022D0F000000C2
:022D10000000C1
:022D11000000C0
:022D12000000BF
:022D13000000BE
:022D14000000BD
:022D15000000BC
:022D16000000BB
:022D17000000BA
:022D18000000B9
:022D19000000B8
:022D1A000000B7
:022D1B000000B6
:022D1C000000B5
:022D1D000000B4
:022D1E000000B3
:022D1F000000B2
:022D20000000B1
:022D21000000B0
:022D22000000AF
:022D23000000AE
:022D24000000AD
:022D25000000AC
:022D26000000AB
:022D27000000AA
:022D28000000A9
:022D29000000A8
:022D2A000000A7
:022D2B000000A6
:022D2C000000A5
:022D2D000000A4
:022D2E000000A3
:022D2F000000A2
:022D30000000A1
:022D31000000A0
:022D320000009F
:022D330000009E
:022D340000009D
:022D350000009C
:022D360000009B
:022D370000009A
:022D3800000099
:022D3900000098
:022D3A00000097
:022D3B00000096
:022D3C00000095
:022D3D00000094
:022D3E00000093
:022D3F00000092
:022D4000000091
:022D4100000090
:022D420000008F
:022D430000008E
:022D440000008D
:022D450000008C
:022D460000008B
:022D470000008A
:022D4800000089
:022D4900000088
:022D4A00000087
:022D4B00000086
:022D4C00000085
:022D4D00000084
:022D4E00000083
:022D4F00000082
:022D5000000081
:022D5100000080
:022D520000007F
:022D530000007E
:022D540000007D
:022D550000007C
:022D560000007B
:022D570000007A
:022D5800000079
:022D5900000078
:022D5A00000077
:022D5B00000076
:022D5C00000075
:022D5D00000074
:022D5E00000073
:022D5F00000072
:022D6000000071
:022D6100000070
:022D620000006F
:022D630000006E
:022D640000006D
:022D650000006C
:022D660000006B
:022D670000006A
:022D6800000069
:022D6900000068
:022D6A00000067
:022D6B00000066
:022D6C00000065
:022D6D00000064
:022D6E00000063
:022D6F00000062
:022D7000000061
:022D7100000060
:022D720000005F
:022D730000005E
:022D740000005D
:022D750000005C
:022D760000005B
:022D770000005A
:022D7800000059
:022D7900000058
:022D7A00000057
:022D7B00000056
:022D7C00000055
:022D7D00000054
:022D7E00000053
:022D7F00000052
:022D8000000051
:022D8100000050
:022D820000004F
:022D830000004E
:022D840000004D
:022D850000004C
:022D860000004B
:022D870000004A
:022D8800000049
:022D8900000048
:022D8A00000047
:022D8B00000046
:022D8C00000045
:022D8D00000044
:022D8E00000043
:022D8F00000042
:022D9000000041
:022D9100000040
:022D920000003F
:022D930000003E
:022D940000003D
:022D950000003C
:022D960000003B
:022D970000003A
:022D9800000039
:022D9900000038
:022D9A00000037
:022D9B00000036
:022D9C00000035
:022D9D00000034
:022D9E00000033
:022D9F00000032
:022DA000000031
:022DA100000030
:022DA20000002F
:022DA30000002E
:022DA40000002D
:022DA50000002C
:022DA60000002B
:022DA70000002A
:022DA800000029
:022DA900000028
:022DAA00000027
:022DAB00000026
:022DAC00000025
:022DAD00000024
:022DAE00000023
:022DAF00000022
:022DB000000021
:022DB100000020
:022DB20000001F
:022DB30000001E
:022DB40000001D
:022DB50000001C
:022DB60000001B
:022DB70000001A
:022DB800000019
:022DB900000018
:022DBA00000017
:022DBB00000016
:022DBC00000015
:022DBD00000014
:022DBE00000013
:022DBF00000012
:022DC000000011
:022DC100000010
:022DC20000000F
:022DC30000000E
:022DC40000000D
:022DC50000000C
:022DC60000000B
:022DC70000000A
:022DC800000009
:022DC900000008
:022DCA00000007
:022DCB00000006
:022DCC00000005
:022DCD00000004
:022DCE00000003
:022DCF00000002
:022DD000000001
:022DD100000000
:022DD2000000FF
:022DD3000000FE
:022DD4000000FD
:022DD5000000FC
:022DD6000000FB
:022DD7000000FA
:022DD8000000F9
:022DD9000000F8
:022DDA000000F7
:022DDB000000F6
:022DDC000000F5
:022DDD000000F4
:022DDE000000F3
:022DDF000000F2
:022DE0000000F1
:022DE1000000F0
:022DE2000000EF
:022DE3000000EE
:022DE4000000ED
:022DE5000000EC
:022DE6000000EB
:022DE7000000EA
:022DE8000000E9
:022DE9000000E8
:022DEA000000E7
:022DEB000000E6
:022DEC000000E5
:022DED000000E4
:022DEE000000E3
:022DEF000000E2
:022DF0000000E1
:022DF1000000E0
:022DF2000000DF
:022DF3000000DE
:022DF4000000DD
:022DF5000000DC
:022DF6000000DB
:022DF7000000DA
:022DF8000000D9
:022DF9000000D8
:022DFA000000D7
:022DFB000000D6
:022DFC000000D5
:022DFD000000D4
:022DFE000000D3
:022DFF000000D2
:022E00000000D0
:022E01000000CF
:022E02000000CE
:022E03000000CD
:022E04000000CC
:022E05000000CB
:022E06000000CA
:022E07000000C9
:022E08000000C8
:022E09000000C7
:022E0A000000C6
:022E0B000000C5
:022E0C000000C4
:022E0D000000C3
:022E0E000000C2
:022E0F000000C1
:022E10000000C0
:022E11000000BF
:022E12000000BE
:022E13000000BD
:022E14000000BC
:022E15000000BB
:022E16000000BA
:022E17000000B9
:022E18000000B8
:022E19000000B7
:022E1A000000B6
:022E1B000000B5
:022E1C000000B4
:022E1D000000B3
:022E1E000000B2
:022E1F000000B1
:022E20000000B0
:022E21000000AF
:022E22000000AE
:022E23000000AD
:022E24000000AC
:022E25000000AB
:022E26000000AA
:022E27000000A9
:022E28000000A8
:022E29000000A7
:022E2A000000A6
:022E2B000000A5
:022E2C000000A4
:022E2D000000A3
:022E2E000000A2
:022E2F000000A1
:022E30000000A0
:022E310000009F
:022E320000009E
:022E330000009D
:022E340000009C
:022E350000009B
:022E360000009A
:022E3700000099
:022E3800000098
:022E3900000097
:022E3A00000096
:022E3B00000095
:022E3C00000094
:022E3D00000093
:022E3E00000092
:022E3F00000091
:022E4000000090
:022E410000008F
:022E420000008E
:022E430000008D
:022E440000008C
:022E450000008B
:022E460000008A
:022E4700000089
:022E4800000088
:022E4900000087
:022E4A00000086
:022E4B00000085
:022E4C00000084
:022E4D00000083
:022E4E00000082
:022E4F00000081
:022E5000000080
:022E510000007F
:022E520000007E
:022E530000007D
:022E540000007C
:022E550000007B
:022E560000007A
:022E5700000079
:022E5800000078
:022E5900000077
:022E5A00000076
:022E5B00000075
:022E5C00000074
:022E5D00000073
:022E5E00000072
:022E5F00000071
:022E6000000070
:022E610000006F
:022E620000006E
:022E630000006D
:022E640000006C
:022E650000006B
:022E660000006A
:022E6700000069
:022E6800000068
:022E6900000067
:022E6A00000066
:022E6B00000065
:022E6C00000064
:022E6D00000063
:022E6E00000062
:022E6F00000061
:022E7000000060
:022E710000005F
:022E720000005E
:022E730000005D
:022E740000005C
:022E750000005B
:022E760000005A
:022E7700000059
:022E7800000058
:022E7900000057
:022E7A00000056
:022E7B00000055
:022E7C00000054
:022E7D00000053
:022E7E00000052
:022E7F00000051
:022E8000000050
:022E810000004F
:022E820000004E
:022E830000004D
:022E840000004C
:022E850000004B
:022E860000004A
:022E8700000049
:022E8800000048
:022E8900000047
:022E8A00000046
:022E8B00000045
:022E8C00000044
:022E8D00000043
:022E8E00000042
:022E8F00000041
:022E9000000040
:022E910000003F
:022E920000003E
:022E930000003D
:022E940000003C
:022E950000003B
:022E960000003A
:022E9700000039
:022E9800000038
:022E9900000037
:022E9A00000036
:022E9B00000035
:022E9C00000034
:022E9D00000033
:022E9E00000032
:022E9F00000031
:022EA000000030
:022EA10000002F
:022EA20000002E
:022EA30000002D
:022EA40000002C
:022EA50000002B
:022EA60000002A
:022EA700000029
:022EA800000028
:022EA900000027
:022EAA00000026
:022EAB00000025
:022EAC00000024
:022EAD00000023
:022EAE00000022
:022EAF00000021
:022EB000000020
:022EB10000001F
:022EB20000001E
:022EB30000001D
:022EB40000001C
:022EB50000001B
:022EB60000001A
:022EB700000019
:022EB800000018
:022EB900000017
:022EBA00000016
:022EBB00000015
:022EBC00000014
:022EBD00000013
:022EBE00000012
:022EBF00000011
:022EC000000010
:022EC10000000F
:022EC20000000E
:022EC30000000D
:022EC40000000C
:022EC50000000B
:022EC60000000A
:022EC700000009
:022EC800000008
:022EC900000007
:022ECA00000006
:022ECB00000005
:022ECC00000004
:022ECD00000003
:022ECE00000002
:022ECF00000001
:022ED000000000
:022ED1000000FF
:022ED2000000FE
:022ED3000000FD
:022ED4000000FC
:022ED5000000FB
:022ED6000000FA
:022ED7000000F9
:022ED8000000F8
:022ED9000000F7
:022EDA000000F6
:022EDB000000F5
:022EDC000000F4
:022EDD000000F3
:022EDE000000F2
:022EDF000000F1
:022EE0000000F0
:022EE1000000EF
:022EE2000000EE
:022EE3000000ED
:022EE4000000EC
:022EE5000000EB
:022EE6000000EA
:022EE7000000E9
:022EE8000000E8
:022EE9000000E7
:022EEA000000E6
:022EEB000000E5
:022EEC000000E4
:022EED000000E3
:022EEE000000E2
:022EEF000000E1
:022EF0000000E0
:022EF1000000DF
:022EF2000000DE
:022EF3000000DD
:022EF4000000DC
:022EF5000000DB
:022EF6000000DA
:022EF7000000D9
:022EF8000000D8
:022EF9000000D7
:022EFA000000D6
:022EFB000000D5
:022EFC000000D4
:022EFD000000D3
:022EFE000000D2
:022EFF000000D1
:022F00000000CF
:022F01000000CE
:022F02000000CD
:022F03000000CC
:022F04000000CB
:022F05000000CA
:022F06000000C9
:022F07000000C8
:022F08000000C7
:022F09000000C6
:022F0A000000C5
:022F0B000000C4
:022F0C000000C3
:022F0D000000C2
:022F0E000000C1
:022F0F000000C0
:022F10000000BF
:022F11000000BE
:022F12000000BD
:022F13000000BC
:022F14000000BB
:022F15000000BA
:022F16000000B9
:022F17000000B8
:022F18000000B7
:022F19000000B6
:022F1A000000B5
:022F1B000000B4
:022F1C000000B3
:022F1D000000B2
:022F1E000000B1
:022F1F000000B0
:022F20000000AF
:022F21000000AE
:022F22000000AD
:022F23000000AC
:022F24000000AB
:022F25000000AA
:022F26000000A9
:022F27000000A8
:022F28000000A7
:022F29000000A6
:022F2A000000A5
:022F2B000000A4
:022F2C000000A3
:022F2D000000A2
:022F2E000000A1
:022F2F000000A0
:022F300000009F
:022F310000009E
:022F320000009D
:022F330000009C
:022F340000009B
:022F350000009A
:022F3600000099
:022F3700000098
:022F3800000097
:022F3900000096
:022F3A00000095
:022F3B00000094
:022F3C00000093
:022F3D00000092
:022F3E00000091
:022F3F00000090
:022F400000008F
:022F410000008E
:022F420000008D
:022F430000008C
:022F440000008B
:022F450000008A
:022F4600000089
:022F4700000088
:022F4800000087
:022F4900000086
:022F4A00000085
:022F4B00000084
:022F4C00000083
:022F4D00000082
:022F4E00000081
:022F4F00000080
:022F500000007F
:022F510000007E
:022F520000007D
:022F530000007C
:022F540000007B
:022F550000007A
:022F5600000079
:022F5700000078
:022F5800000077
:022F5900000076
:022F5A00000075
:022F5B00000074
:022F5C00000073
:022F5D00000072
:022F5E00000071
:022F5F00000070
:022F600000006F
:022F610000006E
:022F620000006D
:022F630000006C
:022F640000006B
:022F650000006A
:022F6600000069
:022F6700000068
:022F6800000067
:022F6900000066
:022F6A00000065
:022F6B00000064
:022F6C00000063
:022F6D00000062
:022F6E00000061
:022F6F00000060
:022F700000005F
:022F710000005E
:022F720000005D
:022F730000005C
:022F740000005B
:022F750000005A
:022F7600000059
:022F7700000058
:022F7800000057
:022F7900000056
:022F7A00000055
:022F7B00000054
:022F7C00000053
:022F7D00000052
:022F7E00000051
:022F7F00000050
:022F800000004F
:022F810000004E
:022F820000004D
:022F830000004C
:022F840000004B
:022F850000004A
:022F8600000049
:022F8700000048
:022F8800000047
:022F8900000046
:022F8A00000045
:022F8B00000044
:022F8C00000043
:022F8D00000042
:022F8E00000041
:022F8F00000040
:022F900000003F
:022F910000003E
:022F920000003D
:022F930000003C
:022F940000003B
:022F950000003A
:022F9600000039
:022F9700000038
:022F9800000037
:022F9900000036
:022F9A00000035
:022F9B00000034
:022F9C00000033
:022F9D00000032
:022F9E00000031
:022F9F00000030
:022FA00000002F
:022FA10000002E
:022FA20000002D
:022FA30000002C
:022FA40000002B
:022FA50000002A
:022FA600000029
:022FA700000028
:022FA800000027
:022FA900000026
:022FAA00000025
:022FAB00000024
:022FAC00000023
:022FAD00000022
:022FAE00000021
:022FAF00000020
:022FB00000001F
:022FB10000001E
:022FB20000001D
:022FB30000001C
:022FB40000001B
:022FB50000001A
:022FB600000019
:022FB700000018
:022FB800000017
:022FB900000016
:022FBA00000015
:022FBB00000014
:022FBC00000013
:022FBD00000012
:022FBE00000011
:022FBF00000010
:022FC00000000F
:022FC10000000E
:022FC20000000D
:022FC30000000C
:022FC40000000B
:022FC50000000A
:022FC600000009
:022FC700000008
:022FC800000007
:022FC900000006
:022FCA00000005
:022FCB00000004
:022FCC00000003
:022FCD00000002
:022FCE00000001
:022FCF00000000
:022FD0000000FF
:022FD1000000FE
:022FD2000000FD
:022FD3000000FC
:022FD4000000FB
:022FD5000000FA
:022FD6000000F9
:022FD7000000F8
:022FD8000000F7
:022FD9000000F6
:022FDA000000F5
:022FDB000000F4
:022FDC000000F3
:022FDD000000F2
:022FDE000000F1
:022FDF000000F0
:022FE0000000EF
:022FE1000000EE
:022FE2000000ED
:022FE3000000EC
:022FE4000000EB
:022FE5000000EA
:022FE6000000E9
:022FE7000000E8
:022FE8000000E7
:022FE9000000E6
:022FEA000000E5
:022FEB000000E4
:022FEC000000E3
:022FED000000E2
:022FEE000000E1
:022FEF000000E0
:022FF0000000DF
:022FF1000000DE
:022FF2000000DD
:022FF3000000DC
:022FF4000000DB
:022FF5000000DA
:022FF6000000D9
:022FF7000000D8
:022FF8000000D7
:022FF9000000D6
:022FFA000000D5
:022FFB000000D4
:022FFC000000D3
:022FFD000000D2
:022FFE000000D1
:022FFF000000D0
:023000000000CE
:023001000000CD
:023002000000CC
:023003000000CB
:023004000000CA
:023005000000C9
:023006000000C8
:023007000000C7
:023008000000C6
:023009000000C5
:02300A000000C4
:02300B000000C3
:02300C000000C2
:02300D000000C1
:02300E000000C0
:02300F000000BF
:023010000000BE
:023011000000BD
:023012000000BC
:023013000000BB
:023014000000BA
:023015000000B9
:023016000000B8
:023017000000B7
:023018000000B6
:023019000000B5
:02301A000000B4
:02301B000000B3
:02301C000000B2
:02301D000000B1
:02301E000000B0
:02301F000000AF
:023020000000AE
:023021000000AD
:023022000000AC
:023023000000AB
:023024000000AA
:023025000000A9
:023026000000A8
:023027000000A7
:023028000000A6
:023029000000A5
:02302A000000A4
:02302B000000A3
:02302C000000A2
:02302D000000A1
:02302E000000A0
:02302F0000009F
:0230300000009E
:0230310000009D
:0230320000009C
:0230330000009B
:0230340000009A
:02303500000099
:02303600000098
:02303700000097
:02303800000096
:02303900000095
:02303A00000094
:02303B00000093
:02303C00000092
:02303D00000091
:02303E00000090
:02303F0000008F
:0230400000008E
:0230410000008D
:0230420000008C
:0230430000008B
:0230440000008A
:02304500000089
:02304600000088
:02304700000087
:02304800000086
:02304900000085
:02304A00000084
:02304B00000083
:02304C00000082
:02304D00000081
:02304E00000080
:02304F0000007F
:0230500000007E
:0230510000007D
:0230520000007C
:0230530000007B
:0230540000007A
:02305500000079
:02305600000078
:02305700000077
:02305800000076
:02305900000075
:02305A00000074
:02305B00000073
:02305C00000072
:02305D00000071
:02305E00000070
:02305F0000006F
:0230600000006E
:0230610000006D
:0230620000006C
:0230630000006B
:0230640000006A
:02306500000069
:02306600000068
:02306700000067
:02306800000066
:02306900000065
:02306A00000064
:02306B00000063
:02306C00000062
:02306D00000061
:02306E00000060
:02306F0000005F
:0230700000005E
:0230710000005D
:0230720000005C
:0230730000005B
:0230740000005A
:02307500000059
:02307600000058
:02307700000057
:02307800000056
:02307900000055
:02307A00000054
:02307B00000053
:02307C00000052
:02307D00000051
:02307E00000050
:02307F0000004F
:0230800000004E
:0230810000004D
:0230820000004C
:0230830000004B
:0230840000004A
:02308500000049
:02308600000048
:02308700000047
:02308800000046
:02308900000045
:02308A00000044
:02308B00000043
:02308C00000042
:02308D00000041
:02308E00000040
:02308F0000003F
:0230900000003E
:0230910000003D
:0230920000003C
:0230930000003B
:0230940000003A
:02309500000039
:02309600000038
:02309700000037
:02309800000036
:02309900000035
:02309A00000034
:02309B00000033
:02309C00000032
:02309D00000031
:02309E00000030
:02309F0000002F
:0230A00000002E
:0230A10000002D
:0230A20000002C
:0230A30000002B
:0230A40000002A
:0230A500000029
:0230A600000028
:0230A700000027
:0230A800000026
:0230A900000025
:0230AA00000024
:0230AB00000023
:0230AC00000022
:0230AD00000021
:0230AE00000020
:0230AF0000001F
:0230B00000001E
:0230B10000001D
:0230B20000001C
:0230B30000001B
:0230B40000001A
:0230B500000019
:0230B600000018
:0230B700000017
:0230B800000016
:0230B900000015
:0230BA00000014
:0230BB00000013
:0230BC00000012
:0230BD00000011
:0230BE00000010
:0230BF0000000F
:0230C00000000E
:0230C10000000D
:0230C20000000C
:0230C30000000B
:0230C40000000A
:0230C500000009
:0230C600000008
:0230C700000007
:0230C800000006
:0230C900000005
:0230CA00000004
:0230CB00000003
:0230CC00000002
:0230CD00000001
:0230CE00000000
:0230CF000000FF
:0230D0000000FE
:0230D1000000FD
:0230D2000000FC
:0230D3000000FB
